
PL_DC_CM4.elf:     file format elf32-littlearm

Sections:
Idx Name          Size      VMA       LMA       File off  Algn
  0 .isr_vector   00000298  08100000  08100000  00010000  2**0
                  CONTENTS, ALLOC, LOAD, READONLY, DATA
  1 .text         00000990  08100298  08100298  00010298  2**2
                  CONTENTS, ALLOC, LOAD, READONLY, CODE
  2 .rodata       00000010  08100c28  08100c28  00010c28  2**2
                  CONTENTS, ALLOC, LOAD, READONLY, DATA
  3 .init_array   00000004  08100c38  08100c38  00010c38  2**2
                  CONTENTS, ALLOC, LOAD, DATA
  4 .fini_array   00000004  08100c3c  08100c3c  00010c3c  2**2
                  CONTENTS, ALLOC, LOAD, DATA
  5 .data         00000010  10000000  08100c40  00020000  2**2
                  CONTENTS, ALLOC, LOAD, DATA
  6 .bss          00000020  10000010  08100c50  00020010  2**2
                  ALLOC
  7 ._user_heap_stack 00000600  10000030  08100c50  00020030  2**0
                  ALLOC
  8 .ARM.attributes 00000030  00000000  00000000  00020010  2**0
                  CONTENTS, READONLY
  9 .debug_info   000061c2  00000000  00000000  00020040  2**0
                  CONTENTS, READONLY, DEBUGGING, OCTETS
 10 .debug_abbrev 0000114d  00000000  00000000  00026202  2**0
                  CONTENTS, READONLY, DEBUGGING, OCTETS
 11 .debug_aranges 00000680  00000000  00000000  00027350  2**3
                  CONTENTS, READONLY, DEBUGGING, OCTETS
 12 .debug_ranges 000005e8  00000000  00000000  000279d0  2**3
                  CONTENTS, READONLY, DEBUGGING, OCTETS
 13 .debug_macro  00036ec0  00000000  00000000  00027fb8  2**0
                  CONTENTS, READONLY, DEBUGGING, OCTETS
 14 .debug_line   00006cae  00000000  00000000  0005ee78  2**0
                  CONTENTS, READONLY, DEBUGGING, OCTETS
 15 .debug_str    0016db51  00000000  00000000  00065b26  2**0
                  CONTENTS, READONLY, DEBUGGING, OCTETS
 16 .comment      00000050  00000000  00000000  001d3677  2**0
                  CONTENTS, READONLY
 17 .debug_frame  000018a8  00000000  00000000  001d36c8  2**2
                  CONTENTS, READONLY, DEBUGGING, OCTETS

Disassembly of section .text:

08100298 <__do_global_dtors_aux>:
 8100298:	b510      	push	{r4, lr}
 810029a:	4c05      	ldr	r4, [pc, #20]	; (81002b0 <__do_global_dtors_aux+0x18>)
 810029c:	7823      	ldrb	r3, [r4, #0]
 810029e:	b933      	cbnz	r3, 81002ae <__do_global_dtors_aux+0x16>
 81002a0:	4b04      	ldr	r3, [pc, #16]	; (81002b4 <__do_global_dtors_aux+0x1c>)
 81002a2:	b113      	cbz	r3, 81002aa <__do_global_dtors_aux+0x12>
 81002a4:	4804      	ldr	r0, [pc, #16]	; (81002b8 <__do_global_dtors_aux+0x20>)
 81002a6:	f3af 8000 	nop.w
 81002aa:	2301      	movs	r3, #1
 81002ac:	7023      	strb	r3, [r4, #0]
 81002ae:	bd10      	pop	{r4, pc}
 81002b0:	10000010 	.word	0x10000010
 81002b4:	00000000 	.word	0x00000000
 81002b8:	08100c10 	.word	0x08100c10

081002bc <frame_dummy>:
 81002bc:	b508      	push	{r3, lr}
 81002be:	4b03      	ldr	r3, [pc, #12]	; (81002cc <frame_dummy+0x10>)
 81002c0:	b11b      	cbz	r3, 81002ca <frame_dummy+0xe>
 81002c2:	4903      	ldr	r1, [pc, #12]	; (81002d0 <frame_dummy+0x14>)
 81002c4:	4803      	ldr	r0, [pc, #12]	; (81002d4 <frame_dummy+0x18>)
 81002c6:	f3af 8000 	nop.w
 81002ca:	bd08      	pop	{r3, pc}
 81002cc:	00000000 	.word	0x00000000
 81002d0:	10000014 	.word	0x10000014
 81002d4:	08100c10 	.word	0x08100c10

081002d8 <SystemInit>:
  *         configuration.
  * @param  None
  * @retval None
  */
void SystemInit (void)
{
 81002d8:	b480      	push	{r7}
 81002da:	af00      	add	r7, sp, #0
  /* FPU settings ------------------------------------------------------------*/
  #if (__FPU_PRESENT == 1) && (__FPU_USED == 1)
    SCB->CPACR |= ((3UL << (10*2))|(3UL << (11*2)));  /* set CP10 and CP11 Full Access */
 81002dc:	4b09      	ldr	r3, [pc, #36]	; (8100304 <SystemInit+0x2c>)
 81002de:	f8d3 3088 	ldr.w	r3, [r3, #136]	; 0x88
 81002e2:	4a08      	ldr	r2, [pc, #32]	; (8100304 <SystemInit+0x2c>)
 81002e4:	f443 0370 	orr.w	r3, r3, #15728640	; 0xf00000
 81002e8:	f8c2 3088 	str.w	r3, [r2, #136]	; 0x88
  #endif

    /*SEVONPEND enabled so that an interrupt coming from the CPU(n) interrupt signal is
     detectable by the CPU after a WFI/WFE instruction.*/
 SCB->SCR |= SCB_SCR_SEVONPEND_Msk;
 81002ec:	4b05      	ldr	r3, [pc, #20]	; (8100304 <SystemInit+0x2c>)
 81002ee:	691b      	ldr	r3, [r3, #16]
 81002f0:	4a04      	ldr	r2, [pc, #16]	; (8100304 <SystemInit+0x2c>)
 81002f2:	f043 0310 	orr.w	r3, r3, #16
 81002f6:	6113      	str	r3, [r2, #16]
#endif /* USER_VECT_TAB_ADDRESS */

#else
#error Please #define CORE_CM4 or CORE_CM7
#endif /* CORE_CM4 */
}
 81002f8:	bf00      	nop
 81002fa:	46bd      	mov	sp, r7
 81002fc:	f85d 7b04 	ldr.w	r7, [sp], #4
 8100300:	4770      	bx	lr
 8100302:	bf00      	nop
 8100304:	e000ed00 	.word	0xe000ed00

08100308 <main>:
/**
  * @brief  The application entry point.
  * @retval int
  */
int main(void)
{
 8100308:	b580      	push	{r7, lr}
 810030a:	b082      	sub	sp, #8
 810030c:	af00      	add	r7, sp, #0

  /* USER CODE END 1 */

/* USER CODE BEGIN Boot_Mode_Sequence_1 */
  /*HW semaphore Clock enable*/
  __HAL_RCC_HSEM_CLK_ENABLE();
 810030e:	4b1a      	ldr	r3, [pc, #104]	; (8100378 <main+0x70>)
 8100310:	f8d3 30e0 	ldr.w	r3, [r3, #224]	; 0xe0
 8100314:	4a18      	ldr	r2, [pc, #96]	; (8100378 <main+0x70>)
 8100316:	f043 7300 	orr.w	r3, r3, #33554432	; 0x2000000
 810031a:	f8c2 30e0 	str.w	r3, [r2, #224]	; 0xe0
 810031e:	4b16      	ldr	r3, [pc, #88]	; (8100378 <main+0x70>)
 8100320:	f8d3 30e0 	ldr.w	r3, [r3, #224]	; 0xe0
 8100324:	f003 7300 	and.w	r3, r3, #33554432	; 0x2000000
 8100328:	607b      	str	r3, [r7, #4]
 810032a:	687b      	ldr	r3, [r7, #4]
  /* Activate HSEM notification for Cortex-M4*/
  HAL_HSEM_ActivateNotification(__HAL_HSEM_SEMID_TO_MASK(HSEM_ID_0));
 810032c:	2001      	movs	r0, #1
 810032e:	f000 fa37 	bl	81007a0 <HAL_HSEM_ActivateNotification>
  /*
  Domain D2 goes to STOP mode (Cortex-M4 in deep-sleep) waiting for Cortex-M7 to
  perform system initialization (system clock config, external memory configuration.. )
  */
  HAL_PWREx_ClearPendingEvent();
 8100332:	f000 fac1 	bl	81008b8 <HAL_PWREx_ClearPendingEvent>
  HAL_PWREx_EnterSTOPMode(PWR_MAINREGULATOR_ON, PWR_STOPENTRY_WFE, PWR_D2_DOMAIN);
 8100336:	2201      	movs	r2, #1
 8100338:	2102      	movs	r1, #2
 810033a:	2000      	movs	r0, #0
 810033c:	f000 fa42 	bl	81007c4 <HAL_PWREx_EnterSTOPMode>
  /* Clear HSEM flag */
  __HAL_HSEM_CLEAR_FLAG(__HAL_HSEM_SEMID_TO_MASK(HSEM_ID_0));
 8100340:	4b0e      	ldr	r3, [pc, #56]	; (810037c <main+0x74>)
 8100342:	681b      	ldr	r3, [r3, #0]
 8100344:	091b      	lsrs	r3, r3, #4
 8100346:	f003 030f 	and.w	r3, r3, #15
 810034a:	2b07      	cmp	r3, #7
 810034c:	d108      	bne.n	8100360 <main+0x58>
 810034e:	4b0c      	ldr	r3, [pc, #48]	; (8100380 <main+0x78>)
 8100350:	f8d3 3104 	ldr.w	r3, [r3, #260]	; 0x104
 8100354:	4a0a      	ldr	r2, [pc, #40]	; (8100380 <main+0x78>)
 8100356:	f043 0301 	orr.w	r3, r3, #1
 810035a:	f8c2 3104 	str.w	r3, [r2, #260]	; 0x104
 810035e:	e007      	b.n	8100370 <main+0x68>
 8100360:	4b07      	ldr	r3, [pc, #28]	; (8100380 <main+0x78>)
 8100362:	f8d3 3114 	ldr.w	r3, [r3, #276]	; 0x114
 8100366:	4a06      	ldr	r2, [pc, #24]	; (8100380 <main+0x78>)
 8100368:	f043 0301 	orr.w	r3, r3, #1
 810036c:	f8c2 3114 	str.w	r3, [r2, #276]	; 0x114

/* USER CODE END Boot_Mode_Sequence_1 */
  /* MCU Configuration--------------------------------------------------------*/

  /* Reset of all peripherals, Initializes the Flash interface and the Systick. */
  HAL_Init();
 8100370:	f000 f876 	bl	8100460 <HAL_Init>

  /* USER CODE END 2 */

  /* Infinite loop */
  /* USER CODE BEGIN WHILE */
  while (1)
 8100374:	e7fe      	b.n	8100374 <main+0x6c>
 8100376:	bf00      	nop
 8100378:	58024400 	.word	0x58024400
 810037c:	e000ed00 	.word	0xe000ed00
 8100380:	58026400 	.word	0x58026400

08100384 <HAL_MspInit>:
/* USER CODE END 0 */
/**
  * Initializes the Global MSP.
  */
void HAL_MspInit(void)
{
 8100384:	b480      	push	{r7}
 8100386:	b083      	sub	sp, #12
 8100388:	af00      	add	r7, sp, #0
  /* USER CODE BEGIN MspInit 0 */

  /* USER CODE END MspInit 0 */

  __HAL_RCC_SYSCFG_CLK_ENABLE();
 810038a:	4b0a      	ldr	r3, [pc, #40]	; (81003b4 <HAL_MspInit+0x30>)
 810038c:	f8d3 30f4 	ldr.w	r3, [r3, #244]	; 0xf4
 8100390:	4a08      	ldr	r2, [pc, #32]	; (81003b4 <HAL_MspInit+0x30>)
 8100392:	f043 0302 	orr.w	r3, r3, #2
 8100396:	f8c2 30f4 	str.w	r3, [r2, #244]	; 0xf4
 810039a:	4b06      	ldr	r3, [pc, #24]	; (81003b4 <HAL_MspInit+0x30>)
 810039c:	f8d3 30f4 	ldr.w	r3, [r3, #244]	; 0xf4
 81003a0:	f003 0302 	and.w	r3, r3, #2
 81003a4:	607b      	str	r3, [r7, #4]
 81003a6:	687b      	ldr	r3, [r7, #4]
  /* System interrupt init*/

  /* USER CODE BEGIN MspInit 1 */

  /* USER CODE END MspInit 1 */
}
 81003a8:	bf00      	nop
 81003aa:	370c      	adds	r7, #12
 81003ac:	46bd      	mov	sp, r7
 81003ae:	f85d 7b04 	ldr.w	r7, [sp], #4
 81003b2:	4770      	bx	lr
 81003b4:	58024400 	.word	0x58024400

081003b8 <NMI_Handler>:
/******************************************************************************/
/**
  * @brief This function handles Non maskable interrupt.
  */
void NMI_Handler(void)
{
 81003b8:	b480      	push	{r7}
 81003ba:	af00      	add	r7, sp, #0
  /* USER CODE BEGIN NonMaskableInt_IRQn 0 */

  /* USER CODE END NonMaskableInt_IRQn 0 */
  /* USER CODE BEGIN NonMaskableInt_IRQn 1 */
  while (1)
 81003bc:	e7fe      	b.n	81003bc <NMI_Handler+0x4>

081003be <HardFault_Handler>:

/**
  * @brief This function handles Hard fault interrupt.
  */
void HardFault_Handler(void)
{
 81003be:	b480      	push	{r7}
 81003c0:	af00      	add	r7, sp, #0
  /* USER CODE BEGIN HardFault_IRQn 0 */

  /* USER CODE END HardFault_IRQn 0 */
  while (1)
 81003c2:	e7fe      	b.n	81003c2 <HardFault_Handler+0x4>

081003c4 <MemManage_Handler>:

/**
  * @brief This function handles Memory management fault.
  */
void MemManage_Handler(void)
{
 81003c4:	b480      	push	{r7}
 81003c6:	af00      	add	r7, sp, #0
  /* USER CODE BEGIN MemoryManagement_IRQn 0 */

  /* USER CODE END MemoryManagement_IRQn 0 */
  while (1)
 81003c8:	e7fe      	b.n	81003c8 <MemManage_Handler+0x4>

081003ca <BusFault_Handler>:

/**
  * @brief This function handles Pre-fetch fault, memory access fault.
  */
void BusFault_Handler(void)
{
 81003ca:	b480      	push	{r7}
 81003cc:	af00      	add	r7, sp, #0
  /* USER CODE BEGIN BusFault_IRQn 0 */

  /* USER CODE END BusFault_IRQn 0 */
  while (1)
 81003ce:	e7fe      	b.n	81003ce <BusFault_Handler+0x4>

081003d0 <UsageFault_Handler>:

/**
  * @brief This function handles Undefined instruction or illegal state.
  */
void UsageFault_Handler(void)
{
 81003d0:	b480      	push	{r7}
 81003d2:	af00      	add	r7, sp, #0
  /* USER CODE BEGIN UsageFault_IRQn 0 */

  /* USER CODE END UsageFault_IRQn 0 */
  while (1)
 81003d4:	e7fe      	b.n	81003d4 <UsageFault_Handler+0x4>

081003d6 <SVC_Handler>:

/**
  * @brief This function handles System service call via SWI instruction.
  */
void SVC_Handler(void)
{
 81003d6:	b480      	push	{r7}
 81003d8:	af00      	add	r7, sp, #0

  /* USER CODE END SVCall_IRQn 0 */
  /* USER CODE BEGIN SVCall_IRQn 1 */

  /* USER CODE END SVCall_IRQn 1 */
}
 81003da:	bf00      	nop
 81003dc:	46bd      	mov	sp, r7
 81003de:	f85d 7b04 	ldr.w	r7, [sp], #4
 81003e2:	4770      	bx	lr

081003e4 <DebugMon_Handler>:

/**
  * @brief This function handles Debug monitor.
  */
void DebugMon_Handler(void)
{
 81003e4:	b480      	push	{r7}
 81003e6:	af00      	add	r7, sp, #0

  /* USER CODE END DebugMonitor_IRQn 0 */
  /* USER CODE BEGIN DebugMonitor_IRQn 1 */

  /* USER CODE END DebugMonitor_IRQn 1 */
}
 81003e8:	bf00      	nop
 81003ea:	46bd      	mov	sp, r7
 81003ec:	f85d 7b04 	ldr.w	r7, [sp], #4
 81003f0:	4770      	bx	lr

081003f2 <PendSV_Handler>:

/**
  * @brief This function handles Pendable request for system service.
  */
void PendSV_Handler(void)
{
 81003f2:	b480      	push	{r7}
 81003f4:	af00      	add	r7, sp, #0

  /* USER CODE END PendSV_IRQn 0 */
  /* USER CODE BEGIN PendSV_IRQn 1 */

  /* USER CODE END PendSV_IRQn 1 */
}
 81003f6:	bf00      	nop
 81003f8:	46bd      	mov	sp, r7
 81003fa:	f85d 7b04 	ldr.w	r7, [sp], #4
 81003fe:	4770      	bx	lr

08100400 <SysTick_Handler>:

/**
  * @brief This function handles System tick timer.
  */
void SysTick_Handler(void)
{
 8100400:	b580      	push	{r7, lr}
 8100402:	af00      	add	r7, sp, #0
  /* USER CODE BEGIN SysTick_IRQn 0 */

  /* USER CODE END SysTick_IRQn 0 */
  HAL_IncTick();
 8100404:	f000 f8c0 	bl	8100588 <HAL_IncTick>
  /* USER CODE BEGIN SysTick_IRQn 1 */

  /* USER CODE END SysTick_IRQn 1 */
}
 8100408:	bf00      	nop
 810040a:	bd80      	pop	{r7, pc}

0810040c <Reset_Handler>:

    .section  .text.Reset_Handler
  .weak  Reset_Handler
  .type  Reset_Handler, %function
Reset_Handler:
  ldr   sp, =_estack      /* set stack pointer */
 810040c:	f8df d034 	ldr.w	sp, [pc, #52]	; 8100444 <LoopFillZerobss+0xe>

/* Call the clock system initialization function.*/
  bl  SystemInit
 8100410:	f7ff ff62 	bl	81002d8 <SystemInit>

/* Copy the data segment initializers from flash to SRAM */
  ldr r0, =_sdata
 8100414:	480c      	ldr	r0, [pc, #48]	; (8100448 <LoopFillZerobss+0x12>)
  ldr r1, =_edata
 8100416:	490d      	ldr	r1, [pc, #52]	; (810044c <LoopFillZerobss+0x16>)
  ldr r2, =_sidata
 8100418:	4a0d      	ldr	r2, [pc, #52]	; (8100450 <LoopFillZerobss+0x1a>)
  movs r3, #0
 810041a:	2300      	movs	r3, #0
  b LoopCopyDataInit
 810041c:	e002      	b.n	8100424 <LoopCopyDataInit>

0810041e <CopyDataInit>:

CopyDataInit:
  ldr r4, [r2, r3]
 810041e:	58d4      	ldr	r4, [r2, r3]
  str r4, [r0, r3]
 8100420:	50c4      	str	r4, [r0, r3]
  adds r3, r3, #4
 8100422:	3304      	adds	r3, #4

08100424 <LoopCopyDataInit>:

LoopCopyDataInit:
  adds r4, r0, r3
 8100424:	18c4      	adds	r4, r0, r3
  cmp r4, r1
 8100426:	428c      	cmp	r4, r1
  bcc CopyDataInit
 8100428:	d3f9      	bcc.n	810041e <CopyDataInit>
/* Zero fill the bss segment. */
  ldr r2, =_sbss
 810042a:	4a0a      	ldr	r2, [pc, #40]	; (8100454 <LoopFillZerobss+0x1e>)
  ldr r4, =_ebss
 810042c:	4c0a      	ldr	r4, [pc, #40]	; (8100458 <LoopFillZerobss+0x22>)
  movs r3, #0
 810042e:	2300      	movs	r3, #0
  b LoopFillZerobss
 8100430:	e001      	b.n	8100436 <LoopFillZerobss>

08100432 <FillZerobss>:

FillZerobss:
  str  r3, [r2]
 8100432:	6013      	str	r3, [r2, #0]
  adds r2, r2, #4
 8100434:	3204      	adds	r2, #4

08100436 <LoopFillZerobss>:

LoopFillZerobss:
  cmp r2, r4
 8100436:	42a2      	cmp	r2, r4
  bcc FillZerobss
 8100438:	d3fb      	bcc.n	8100432 <FillZerobss>

/* Call static constructors */
    bl __libc_init_array
 810043a:	f000 fbc5 	bl	8100bc8 <__libc_init_array>
/* Call the application's entry point.*/
  bl  main
 810043e:	f7ff ff63 	bl	8100308 <main>
  bx  lr
 8100442:	4770      	bx	lr
  ldr   sp, =_estack      /* set stack pointer */
 8100444:	10048000 	.word	0x10048000
  ldr r0, =_sdata
 8100448:	10000000 	.word	0x10000000
  ldr r1, =_edata
 810044c:	10000010 	.word	0x10000010
  ldr r2, =_sidata
 8100450:	08100c40 	.word	0x08100c40
  ldr r2, =_sbss
 8100454:	10000010 	.word	0x10000010
  ldr r4, =_ebss
 8100458:	10000030 	.word	0x10000030

0810045c <ADC3_IRQHandler>:
 * @retval None
*/
    .section  .text.Default_Handler,"ax",%progbits
Default_Handler:
Infinite_Loop:
  b  Infinite_Loop
 810045c:	e7fe      	b.n	810045c <ADC3_IRQHandler>
	...

08100460 <HAL_Init>:
  *         need to ensure that the SysTick time base is always set to 1 millisecond
  *         to have correct HAL operation.
  * @retval HAL status
  */
HAL_StatusTypeDef HAL_Init(void)
{
 8100460:	b580      	push	{r7, lr}
 8100462:	b082      	sub	sp, #8
 8100464:	af00      	add	r7, sp, #0

uint32_t common_system_clock;

#if defined(DUAL_CORE) && defined(CORE_CM4)
   /* Configure Cortex-M4 Instruction cache through ART accelerator */
   __HAL_RCC_ART_CLK_ENABLE();                   /* Enable the Cortex-M4 ART Clock */
 8100466:	4b28      	ldr	r3, [pc, #160]	; (8100508 <HAL_Init+0xa8>)
 8100468:	f8d3 30d8 	ldr.w	r3, [r3, #216]	; 0xd8
 810046c:	4a26      	ldr	r2, [pc, #152]	; (8100508 <HAL_Init+0xa8>)
 810046e:	f443 4380 	orr.w	r3, r3, #16384	; 0x4000
 8100472:	f8c2 30d8 	str.w	r3, [r2, #216]	; 0xd8
 8100476:	4b24      	ldr	r3, [pc, #144]	; (8100508 <HAL_Init+0xa8>)
 8100478:	f8d3 30d8 	ldr.w	r3, [r3, #216]	; 0xd8
 810047c:	f403 4380 	and.w	r3, r3, #16384	; 0x4000
 8100480:	603b      	str	r3, [r7, #0]
 8100482:	683b      	ldr	r3, [r7, #0]
   __HAL_ART_CONFIG_BASE_ADDRESS(0x08100000UL);  /* Configure the Cortex-M4 ART Base address to the Flash Bank 2 : */
 8100484:	4b21      	ldr	r3, [pc, #132]	; (810050c <HAL_Init+0xac>)
 8100486:	681b      	ldr	r3, [r3, #0]
 8100488:	f423 237f 	bic.w	r3, r3, #1044480	; 0xff000
 810048c:	f423 6370 	bic.w	r3, r3, #3840	; 0xf00
 8100490:	4a1e      	ldr	r2, [pc, #120]	; (810050c <HAL_Init+0xac>)
 8100492:	f443 4301 	orr.w	r3, r3, #33024	; 0x8100
 8100496:	6013      	str	r3, [r2, #0]
   __HAL_ART_ENABLE();                           /* Enable the Cortex-M4 ART */
 8100498:	4b1c      	ldr	r3, [pc, #112]	; (810050c <HAL_Init+0xac>)
 810049a:	681b      	ldr	r3, [r3, #0]
 810049c:	4a1b      	ldr	r2, [pc, #108]	; (810050c <HAL_Init+0xac>)
 810049e:	f043 0301 	orr.w	r3, r3, #1
 81004a2:	6013      	str	r3, [r2, #0]
#endif /* DUAL_CORE &&  CORE_CM4 */

  /* Set Interrupt Group Priority */
  HAL_NVIC_SetPriorityGrouping(NVIC_PRIORITYGROUP_4);
 81004a4:	2003      	movs	r0, #3
 81004a6:	f000 f935 	bl	8100714 <HAL_NVIC_SetPriorityGrouping>

  /* Update the SystemCoreClock global variable */
#if defined(RCC_D1CFGR_D1CPRE)
  common_system_clock = HAL_RCC_GetSysClockFreq() >> ((D1CorePrescTable[(RCC->D1CFGR & RCC_D1CFGR_D1CPRE)>> RCC_D1CFGR_D1CPRE_Pos]) & 0x1FU);
 81004aa:	f000 fa13 	bl	81008d4 <HAL_RCC_GetSysClockFreq>
 81004ae:	4602      	mov	r2, r0
 81004b0:	4b15      	ldr	r3, [pc, #84]	; (8100508 <HAL_Init+0xa8>)
 81004b2:	699b      	ldr	r3, [r3, #24]
 81004b4:	0a1b      	lsrs	r3, r3, #8
 81004b6:	f003 030f 	and.w	r3, r3, #15
 81004ba:	4915      	ldr	r1, [pc, #84]	; (8100510 <HAL_Init+0xb0>)
 81004bc:	5ccb      	ldrb	r3, [r1, r3]
 81004be:	f003 031f 	and.w	r3, r3, #31
 81004c2:	fa22 f303 	lsr.w	r3, r2, r3
 81004c6:	607b      	str	r3, [r7, #4]
  common_system_clock = HAL_RCC_GetSysClockFreq() >> ((D1CorePrescTable[(RCC->CDCFGR1 & RCC_CDCFGR1_CDCPRE)>> RCC_CDCFGR1_CDCPRE_Pos]) & 0x1FU);
#endif

  /* Update the SystemD2Clock global variable */
#if defined(RCC_D1CFGR_HPRE)
  SystemD2Clock = (common_system_clock >> ((D1CorePrescTable[(RCC->D1CFGR & RCC_D1CFGR_HPRE)>> RCC_D1CFGR_HPRE_Pos]) & 0x1FU));
 81004c8:	4b0f      	ldr	r3, [pc, #60]	; (8100508 <HAL_Init+0xa8>)
 81004ca:	699b      	ldr	r3, [r3, #24]
 81004cc:	f003 030f 	and.w	r3, r3, #15
 81004d0:	4a0f      	ldr	r2, [pc, #60]	; (8100510 <HAL_Init+0xb0>)
 81004d2:	5cd3      	ldrb	r3, [r2, r3]
 81004d4:	f003 031f 	and.w	r3, r3, #31
 81004d8:	687a      	ldr	r2, [r7, #4]
 81004da:	fa22 f303 	lsr.w	r3, r2, r3
 81004de:	4a0d      	ldr	r2, [pc, #52]	; (8100514 <HAL_Init+0xb4>)
 81004e0:	6013      	str	r3, [r2, #0]
#else
  SystemD2Clock = (common_system_clock >> ((D1CorePrescTable[(RCC->CDCFGR1 & RCC_CDCFGR1_HPRE)>> RCC_CDCFGR1_HPRE_Pos]) & 0x1FU));
#endif

#if defined(DUAL_CORE) && defined(CORE_CM4)
  SystemCoreClock = SystemD2Clock;
 81004e2:	4b0c      	ldr	r3, [pc, #48]	; (8100514 <HAL_Init+0xb4>)
 81004e4:	681b      	ldr	r3, [r3, #0]
 81004e6:	4a0c      	ldr	r2, [pc, #48]	; (8100518 <HAL_Init+0xb8>)
 81004e8:	6013      	str	r3, [r2, #0]
#else
  SystemCoreClock = common_system_clock;
#endif /* DUAL_CORE && CORE_CM4 */

  /* Use systick as time base source and configure 1ms tick (default clock after Reset is HSI) */
  if(HAL_InitTick(TICK_INT_PRIORITY) != HAL_OK)
 81004ea:	200f      	movs	r0, #15
 81004ec:	f000 f816 	bl	810051c <HAL_InitTick>
 81004f0:	4603      	mov	r3, r0
 81004f2:	2b00      	cmp	r3, #0
 81004f4:	d001      	beq.n	81004fa <HAL_Init+0x9a>
  {
    return HAL_ERROR;
 81004f6:	2301      	movs	r3, #1
 81004f8:	e002      	b.n	8100500 <HAL_Init+0xa0>
  }

  /* Init the low level hardware */
  HAL_MspInit();
 81004fa:	f7ff ff43 	bl	8100384 <HAL_MspInit>

  /* Return function status */
  return HAL_OK;
 81004fe:	2300      	movs	r3, #0
}
 8100500:	4618      	mov	r0, r3
 8100502:	3708      	adds	r7, #8
 8100504:	46bd      	mov	sp, r7
 8100506:	bd80      	pop	{r7, pc}
 8100508:	58024400 	.word	0x58024400
 810050c:	40024400 	.word	0x40024400
 8100510:	08100c28 	.word	0x08100c28
 8100514:	10000004 	.word	0x10000004
 8100518:	10000000 	.word	0x10000000

0810051c <HAL_InitTick>:
  *       implementation  in user file.
  * @param TickPriority: Tick interrupt priority.
  * @retval HAL status
  */
__weak HAL_StatusTypeDef HAL_InitTick(uint32_t TickPriority)
{
 810051c:	b580      	push	{r7, lr}
 810051e:	b082      	sub	sp, #8
 8100520:	af00      	add	r7, sp, #0
 8100522:	6078      	str	r0, [r7, #4]
  /* Check uwTickFreq for MisraC 2012 (even if uwTickFreq is a enum type that don't take the value zero)*/
  if((uint32_t)uwTickFreq == 0UL)
 8100524:	4b15      	ldr	r3, [pc, #84]	; (810057c <HAL_InitTick+0x60>)
 8100526:	781b      	ldrb	r3, [r3, #0]
 8100528:	2b00      	cmp	r3, #0
 810052a:	d101      	bne.n	8100530 <HAL_InitTick+0x14>
  {
    return HAL_ERROR;
 810052c:	2301      	movs	r3, #1
 810052e:	e021      	b.n	8100574 <HAL_InitTick+0x58>
  }

    /* Configure the SysTick to have interrupt in 1ms time basis*/
    if (HAL_SYSTICK_Config(SystemCoreClock / (1000UL / (uint32_t)uwTickFreq)) > 0U)
 8100530:	4b13      	ldr	r3, [pc, #76]	; (8100580 <HAL_InitTick+0x64>)
 8100532:	681a      	ldr	r2, [r3, #0]
 8100534:	4b11      	ldr	r3, [pc, #68]	; (810057c <HAL_InitTick+0x60>)
 8100536:	781b      	ldrb	r3, [r3, #0]
 8100538:	4619      	mov	r1, r3
 810053a:	f44f 737a 	mov.w	r3, #1000	; 0x3e8
 810053e:	fbb3 f3f1 	udiv	r3, r3, r1
 8100542:	fbb2 f3f3 	udiv	r3, r2, r3
 8100546:	4618      	mov	r0, r3
 8100548:	f000 f909 	bl	810075e <HAL_SYSTICK_Config>
 810054c:	4603      	mov	r3, r0
 810054e:	2b00      	cmp	r3, #0
 8100550:	d001      	beq.n	8100556 <HAL_InitTick+0x3a>
    {
      return HAL_ERROR;
 8100552:	2301      	movs	r3, #1
 8100554:	e00e      	b.n	8100574 <HAL_InitTick+0x58>
    }

  /* Configure the SysTick IRQ priority */
  if (TickPriority < (1UL << __NVIC_PRIO_BITS))
 8100556:	687b      	ldr	r3, [r7, #4]
 8100558:	2b0f      	cmp	r3, #15
 810055a:	d80a      	bhi.n	8100572 <HAL_InitTick+0x56>
  {
    HAL_NVIC_SetPriority(SysTick_IRQn, TickPriority, 0U);
 810055c:	2200      	movs	r2, #0
 810055e:	6879      	ldr	r1, [r7, #4]
 8100560:	f04f 30ff 	mov.w	r0, #4294967295
 8100564:	f000 f8e1 	bl	810072a <HAL_NVIC_SetPriority>
    uwTickPrio = TickPriority;
 8100568:	4a06      	ldr	r2, [pc, #24]	; (8100584 <HAL_InitTick+0x68>)
 810056a:	687b      	ldr	r3, [r7, #4]
 810056c:	6013      	str	r3, [r2, #0]
  {
    return HAL_ERROR;
  }

  /* Return function status */
  return HAL_OK;
 810056e:	2300      	movs	r3, #0
 8100570:	e000      	b.n	8100574 <HAL_InitTick+0x58>
    return HAL_ERROR;
 8100572:	2301      	movs	r3, #1
}
 8100574:	4618      	mov	r0, r3
 8100576:	3708      	adds	r7, #8
 8100578:	46bd      	mov	sp, r7
 810057a:	bd80      	pop	{r7, pc}
 810057c:	1000000c 	.word	0x1000000c
 8100580:	10000000 	.word	0x10000000
 8100584:	10000008 	.word	0x10000008

08100588 <HAL_IncTick>:
 * @note This function is declared as __weak to be overwritten in case of other
  *      implementations in user file.
  * @retval None
  */
__weak void HAL_IncTick(void)
{
 8100588:	b480      	push	{r7}
 810058a:	af00      	add	r7, sp, #0
  uwTick += (uint32_t)uwTickFreq;
 810058c:	4b06      	ldr	r3, [pc, #24]	; (81005a8 <HAL_IncTick+0x20>)
 810058e:	781b      	ldrb	r3, [r3, #0]
 8100590:	461a      	mov	r2, r3
 8100592:	4b06      	ldr	r3, [pc, #24]	; (81005ac <HAL_IncTick+0x24>)
 8100594:	681b      	ldr	r3, [r3, #0]
 8100596:	4413      	add	r3, r2
 8100598:	4a04      	ldr	r2, [pc, #16]	; (81005ac <HAL_IncTick+0x24>)
 810059a:	6013      	str	r3, [r2, #0]
}
 810059c:	bf00      	nop
 810059e:	46bd      	mov	sp, r7
 81005a0:	f85d 7b04 	ldr.w	r7, [sp], #4
 81005a4:	4770      	bx	lr
 81005a6:	bf00      	nop
 81005a8:	1000000c 	.word	0x1000000c
 81005ac:	1000002c 	.word	0x1000002c

081005b0 <__NVIC_SetPriorityGrouping>:
           In case of a conflict between priority grouping and available
           priority bits (__NVIC_PRIO_BITS), the smallest possible priority group is set.
  \param [in]      PriorityGroup  Priority grouping field.
 */
__STATIC_INLINE void __NVIC_SetPriorityGrouping(uint32_t PriorityGroup)
{
 81005b0:	b480      	push	{r7}
 81005b2:	b085      	sub	sp, #20
 81005b4:	af00      	add	r7, sp, #0
 81005b6:	6078      	str	r0, [r7, #4]
  uint32_t reg_value;
  uint32_t PriorityGroupTmp = (PriorityGroup & (uint32_t)0x07UL);             /* only values 0..7 are used          */
 81005b8:	687b      	ldr	r3, [r7, #4]
 81005ba:	f003 0307 	and.w	r3, r3, #7
 81005be:	60fb      	str	r3, [r7, #12]

  reg_value  =  SCB->AIRCR;                                                   /* read old register configuration    */
 81005c0:	4b0c      	ldr	r3, [pc, #48]	; (81005f4 <__NVIC_SetPriorityGrouping+0x44>)
 81005c2:	68db      	ldr	r3, [r3, #12]
 81005c4:	60bb      	str	r3, [r7, #8]
  reg_value &= ~((uint32_t)(SCB_AIRCR_VECTKEY_Msk | SCB_AIRCR_PRIGROUP_Msk)); /* clear bits to change               */
 81005c6:	68ba      	ldr	r2, [r7, #8]
 81005c8:	f64f 03ff 	movw	r3, #63743	; 0xf8ff
 81005cc:	4013      	ands	r3, r2
 81005ce:	60bb      	str	r3, [r7, #8]
  reg_value  =  (reg_value                                   |
                ((uint32_t)0x5FAUL << SCB_AIRCR_VECTKEY_Pos) |
                (PriorityGroupTmp << SCB_AIRCR_PRIGROUP_Pos)  );              /* Insert write key and priority group */
 81005d0:	68fb      	ldr	r3, [r7, #12]
 81005d2:	021a      	lsls	r2, r3, #8
                ((uint32_t)0x5FAUL << SCB_AIRCR_VECTKEY_Pos) |
 81005d4:	68bb      	ldr	r3, [r7, #8]
 81005d6:	4313      	orrs	r3, r2
  reg_value  =  (reg_value                                   |
 81005d8:	f043 63bf 	orr.w	r3, r3, #100139008	; 0x5f80000
 81005dc:	f443 3300 	orr.w	r3, r3, #131072	; 0x20000
 81005e0:	60bb      	str	r3, [r7, #8]
  SCB->AIRCR =  reg_value;
 81005e2:	4a04      	ldr	r2, [pc, #16]	; (81005f4 <__NVIC_SetPriorityGrouping+0x44>)
 81005e4:	68bb      	ldr	r3, [r7, #8]
 81005e6:	60d3      	str	r3, [r2, #12]
}
 81005e8:	bf00      	nop
 81005ea:	3714      	adds	r7, #20
 81005ec:	46bd      	mov	sp, r7
 81005ee:	f85d 7b04 	ldr.w	r7, [sp], #4
 81005f2:	4770      	bx	lr
 81005f4:	e000ed00 	.word	0xe000ed00

081005f8 <__NVIC_GetPriorityGrouping>:
  \brief   Get Priority Grouping
  \details Reads the priority grouping field from the NVIC Interrupt Controller.
  \return                Priority grouping field (SCB->AIRCR [10:8] PRIGROUP field).
 */
__STATIC_INLINE uint32_t __NVIC_GetPriorityGrouping(void)
{
 81005f8:	b480      	push	{r7}
 81005fa:	af00      	add	r7, sp, #0
  return ((uint32_t)((SCB->AIRCR & SCB_AIRCR_PRIGROUP_Msk) >> SCB_AIRCR_PRIGROUP_Pos));
 81005fc:	4b04      	ldr	r3, [pc, #16]	; (8100610 <__NVIC_GetPriorityGrouping+0x18>)
 81005fe:	68db      	ldr	r3, [r3, #12]
 8100600:	0a1b      	lsrs	r3, r3, #8
 8100602:	f003 0307 	and.w	r3, r3, #7
}
 8100606:	4618      	mov	r0, r3
 8100608:	46bd      	mov	sp, r7
 810060a:	f85d 7b04 	ldr.w	r7, [sp], #4
 810060e:	4770      	bx	lr
 8100610:	e000ed00 	.word	0xe000ed00

08100614 <__NVIC_SetPriority>:
  \param [in]      IRQn  Interrupt number.
  \param [in]  priority  Priority to set.
  \note    The priority cannot be set for every processor exception.
 */
__STATIC_INLINE void __NVIC_SetPriority(IRQn_Type IRQn, uint32_t priority)
{
 8100614:	b480      	push	{r7}
 8100616:	b083      	sub	sp, #12
 8100618:	af00      	add	r7, sp, #0
 810061a:	4603      	mov	r3, r0
 810061c:	6039      	str	r1, [r7, #0]
 810061e:	80fb      	strh	r3, [r7, #6]
  if ((int32_t)(IRQn) >= 0)
 8100620:	f9b7 3006 	ldrsh.w	r3, [r7, #6]
 8100624:	2b00      	cmp	r3, #0
 8100626:	db0a      	blt.n	810063e <__NVIC_SetPriority+0x2a>
  {
    NVIC->IP[((uint32_t)IRQn)]               = (uint8_t)((priority << (8U - __NVIC_PRIO_BITS)) & (uint32_t)0xFFUL);
 8100628:	683b      	ldr	r3, [r7, #0]
 810062a:	b2da      	uxtb	r2, r3
 810062c:	490c      	ldr	r1, [pc, #48]	; (8100660 <__NVIC_SetPriority+0x4c>)
 810062e:	f9b7 3006 	ldrsh.w	r3, [r7, #6]
 8100632:	0112      	lsls	r2, r2, #4
 8100634:	b2d2      	uxtb	r2, r2
 8100636:	440b      	add	r3, r1
 8100638:	f883 2300 	strb.w	r2, [r3, #768]	; 0x300
  }
  else
  {
    SCB->SHP[(((uint32_t)IRQn) & 0xFUL)-4UL] = (uint8_t)((priority << (8U - __NVIC_PRIO_BITS)) & (uint32_t)0xFFUL);
  }
}
 810063c:	e00a      	b.n	8100654 <__NVIC_SetPriority+0x40>
    SCB->SHP[(((uint32_t)IRQn) & 0xFUL)-4UL] = (uint8_t)((priority << (8U - __NVIC_PRIO_BITS)) & (uint32_t)0xFFUL);
 810063e:	683b      	ldr	r3, [r7, #0]
 8100640:	b2da      	uxtb	r2, r3
 8100642:	4908      	ldr	r1, [pc, #32]	; (8100664 <__NVIC_SetPriority+0x50>)
 8100644:	88fb      	ldrh	r3, [r7, #6]
 8100646:	f003 030f 	and.w	r3, r3, #15
 810064a:	3b04      	subs	r3, #4
 810064c:	0112      	lsls	r2, r2, #4
 810064e:	b2d2      	uxtb	r2, r2
 8100650:	440b      	add	r3, r1
 8100652:	761a      	strb	r2, [r3, #24]
}
 8100654:	bf00      	nop
 8100656:	370c      	adds	r7, #12
 8100658:	46bd      	mov	sp, r7
 810065a:	f85d 7b04 	ldr.w	r7, [sp], #4
 810065e:	4770      	bx	lr
 8100660:	e000e100 	.word	0xe000e100
 8100664:	e000ed00 	.word	0xe000ed00

08100668 <NVIC_EncodePriority>:
  \param [in]   PreemptPriority  Preemptive priority value (starting from 0).
  \param [in]       SubPriority  Subpriority value (starting from 0).
  \return                        Encoded priority. Value can be used in the function \ref NVIC_SetPriority().
 */
__STATIC_INLINE uint32_t NVIC_EncodePriority (uint32_t PriorityGroup, uint32_t PreemptPriority, uint32_t SubPriority)
{
 8100668:	b480      	push	{r7}
 810066a:	b089      	sub	sp, #36	; 0x24
 810066c:	af00      	add	r7, sp, #0
 810066e:	60f8      	str	r0, [r7, #12]
 8100670:	60b9      	str	r1, [r7, #8]
 8100672:	607a      	str	r2, [r7, #4]
  uint32_t PriorityGroupTmp = (PriorityGroup & (uint32_t)0x07UL);   /* only values 0..7 are used          */
 8100674:	68fb      	ldr	r3, [r7, #12]
 8100676:	f003 0307 	and.w	r3, r3, #7
 810067a:	61fb      	str	r3, [r7, #28]
  uint32_t PreemptPriorityBits;
  uint32_t SubPriorityBits;

  PreemptPriorityBits = ((7UL - PriorityGroupTmp) > (uint32_t)(__NVIC_PRIO_BITS)) ? (uint32_t)(__NVIC_PRIO_BITS) : (uint32_t)(7UL - PriorityGroupTmp);
 810067c:	69fb      	ldr	r3, [r7, #28]
 810067e:	f1c3 0307 	rsb	r3, r3, #7
 8100682:	2b04      	cmp	r3, #4
 8100684:	bf28      	it	cs
 8100686:	2304      	movcs	r3, #4
 8100688:	61bb      	str	r3, [r7, #24]
  SubPriorityBits     = ((PriorityGroupTmp + (uint32_t)(__NVIC_PRIO_BITS)) < (uint32_t)7UL) ? (uint32_t)0UL : (uint32_t)((PriorityGroupTmp - 7UL) + (uint32_t)(__NVIC_PRIO_BITS));
 810068a:	69fb      	ldr	r3, [r7, #28]
 810068c:	3304      	adds	r3, #4
 810068e:	2b06      	cmp	r3, #6
 8100690:	d902      	bls.n	8100698 <NVIC_EncodePriority+0x30>
 8100692:	69fb      	ldr	r3, [r7, #28]
 8100694:	3b03      	subs	r3, #3
 8100696:	e000      	b.n	810069a <NVIC_EncodePriority+0x32>
 8100698:	2300      	movs	r3, #0
 810069a:	617b      	str	r3, [r7, #20]

  return (
           ((PreemptPriority & (uint32_t)((1UL << (PreemptPriorityBits)) - 1UL)) << SubPriorityBits) |
 810069c:	f04f 32ff 	mov.w	r2, #4294967295
 81006a0:	69bb      	ldr	r3, [r7, #24]
 81006a2:	fa02 f303 	lsl.w	r3, r2, r3
 81006a6:	43da      	mvns	r2, r3
 81006a8:	68bb      	ldr	r3, [r7, #8]
 81006aa:	401a      	ands	r2, r3
 81006ac:	697b      	ldr	r3, [r7, #20]
 81006ae:	409a      	lsls	r2, r3
           ((SubPriority     & (uint32_t)((1UL << (SubPriorityBits    )) - 1UL)))
 81006b0:	f04f 31ff 	mov.w	r1, #4294967295
 81006b4:	697b      	ldr	r3, [r7, #20]
 81006b6:	fa01 f303 	lsl.w	r3, r1, r3
 81006ba:	43d9      	mvns	r1, r3
 81006bc:	687b      	ldr	r3, [r7, #4]
 81006be:	400b      	ands	r3, r1
           ((PreemptPriority & (uint32_t)((1UL << (PreemptPriorityBits)) - 1UL)) << SubPriorityBits) |
 81006c0:	4313      	orrs	r3, r2
         );
}
 81006c2:	4618      	mov	r0, r3
 81006c4:	3724      	adds	r7, #36	; 0x24
 81006c6:	46bd      	mov	sp, r7
 81006c8:	f85d 7b04 	ldr.w	r7, [sp], #4
 81006cc:	4770      	bx	lr
	...

081006d0 <SysTick_Config>:
  \note    When the variable <b>__Vendor_SysTickConfig</b> is set to 1, then the
           function <b>SysTick_Config</b> is not included. In this case, the file <b><i>device</i>.h</b>
           must contain a vendor-specific implementation of this function.
 */
__STATIC_INLINE uint32_t SysTick_Config(uint32_t ticks)
{
 81006d0:	b580      	push	{r7, lr}
 81006d2:	b082      	sub	sp, #8
 81006d4:	af00      	add	r7, sp, #0
 81006d6:	6078      	str	r0, [r7, #4]
  if ((ticks - 1UL) > SysTick_LOAD_RELOAD_Msk)
 81006d8:	687b      	ldr	r3, [r7, #4]
 81006da:	3b01      	subs	r3, #1
 81006dc:	f1b3 7f80 	cmp.w	r3, #16777216	; 0x1000000
 81006e0:	d301      	bcc.n	81006e6 <SysTick_Config+0x16>
  {
    return (1UL);                                                   /* Reload value impossible */
 81006e2:	2301      	movs	r3, #1
 81006e4:	e00f      	b.n	8100706 <SysTick_Config+0x36>
  }

  SysTick->LOAD  = (uint32_t)(ticks - 1UL);                         /* set reload register */
 81006e6:	4a0a      	ldr	r2, [pc, #40]	; (8100710 <SysTick_Config+0x40>)
 81006e8:	687b      	ldr	r3, [r7, #4]
 81006ea:	3b01      	subs	r3, #1
 81006ec:	6053      	str	r3, [r2, #4]
  NVIC_SetPriority (SysTick_IRQn, (1UL << __NVIC_PRIO_BITS) - 1UL); /* set Priority for Systick Interrupt */
 81006ee:	210f      	movs	r1, #15
 81006f0:	f04f 30ff 	mov.w	r0, #4294967295
 81006f4:	f7ff ff8e 	bl	8100614 <__NVIC_SetPriority>
  SysTick->VAL   = 0UL;                                             /* Load the SysTick Counter Value */
 81006f8:	4b05      	ldr	r3, [pc, #20]	; (8100710 <SysTick_Config+0x40>)
 81006fa:	2200      	movs	r2, #0
 81006fc:	609a      	str	r2, [r3, #8]
  SysTick->CTRL  = SysTick_CTRL_CLKSOURCE_Msk |
 81006fe:	4b04      	ldr	r3, [pc, #16]	; (8100710 <SysTick_Config+0x40>)
 8100700:	2207      	movs	r2, #7
 8100702:	601a      	str	r2, [r3, #0]
                   SysTick_CTRL_TICKINT_Msk   |
                   SysTick_CTRL_ENABLE_Msk;                         /* Enable SysTick IRQ and SysTick Timer */
  return (0UL);                                                     /* Function successful */
 8100704:	2300      	movs	r3, #0
}
 8100706:	4618      	mov	r0, r3
 8100708:	3708      	adds	r7, #8
 810070a:	46bd      	mov	sp, r7
 810070c:	bd80      	pop	{r7, pc}
 810070e:	bf00      	nop
 8100710:	e000e010 	.word	0xe000e010

08100714 <HAL_NVIC_SetPriorityGrouping>:
  * @note   When the NVIC_PriorityGroup_0 is selected, IRQ preemption is no more possible.
  *         The pending IRQ priority will be managed only by the subpriority.
  * @retval None
  */
void HAL_NVIC_SetPriorityGrouping(uint32_t PriorityGroup)
{
 8100714:	b580      	push	{r7, lr}
 8100716:	b082      	sub	sp, #8
 8100718:	af00      	add	r7, sp, #0
 810071a:	6078      	str	r0, [r7, #4]
  /* Check the parameters */
  assert_param(IS_NVIC_PRIORITY_GROUP(PriorityGroup));

  /* Set the PRIGROUP[10:8] bits according to the PriorityGroup parameter value */
  NVIC_SetPriorityGrouping(PriorityGroup);
 810071c:	6878      	ldr	r0, [r7, #4]
 810071e:	f7ff ff47 	bl	81005b0 <__NVIC_SetPriorityGrouping>
}
 8100722:	bf00      	nop
 8100724:	3708      	adds	r7, #8
 8100726:	46bd      	mov	sp, r7
 8100728:	bd80      	pop	{r7, pc}

0810072a <HAL_NVIC_SetPriority>:
  *         This parameter can be a value between 0 and 15
  *         A lower priority value indicates a higher priority.
  * @retval None
  */
void HAL_NVIC_SetPriority(IRQn_Type IRQn, uint32_t PreemptPriority, uint32_t SubPriority)
{
 810072a:	b580      	push	{r7, lr}
 810072c:	b086      	sub	sp, #24
 810072e:	af00      	add	r7, sp, #0
 8100730:	4603      	mov	r3, r0
 8100732:	60b9      	str	r1, [r7, #8]
 8100734:	607a      	str	r2, [r7, #4]
 8100736:	81fb      	strh	r3, [r7, #14]

  /* Check the parameters */
  assert_param(IS_NVIC_SUB_PRIORITY(SubPriority));
  assert_param(IS_NVIC_PREEMPTION_PRIORITY(PreemptPriority));

  prioritygroup = NVIC_GetPriorityGrouping();
 8100738:	f7ff ff5e 	bl	81005f8 <__NVIC_GetPriorityGrouping>
 810073c:	6178      	str	r0, [r7, #20]

  NVIC_SetPriority(IRQn, NVIC_EncodePriority(prioritygroup, PreemptPriority, SubPriority));
 810073e:	687a      	ldr	r2, [r7, #4]
 8100740:	68b9      	ldr	r1, [r7, #8]
 8100742:	6978      	ldr	r0, [r7, #20]
 8100744:	f7ff ff90 	bl	8100668 <NVIC_EncodePriority>
 8100748:	4602      	mov	r2, r0
 810074a:	f9b7 300e 	ldrsh.w	r3, [r7, #14]
 810074e:	4611      	mov	r1, r2
 8100750:	4618      	mov	r0, r3
 8100752:	f7ff ff5f 	bl	8100614 <__NVIC_SetPriority>
}
 8100756:	bf00      	nop
 8100758:	3718      	adds	r7, #24
 810075a:	46bd      	mov	sp, r7
 810075c:	bd80      	pop	{r7, pc}

0810075e <HAL_SYSTICK_Config>:
  * @param  TicksNumb Specifies the ticks Number of ticks between two interrupts.
  * @retval status   - 0  Function succeeded.
  *                  - 1  Function failed.
  */
uint32_t HAL_SYSTICK_Config(uint32_t TicksNumb)
{
 810075e:	b580      	push	{r7, lr}
 8100760:	b082      	sub	sp, #8
 8100762:	af00      	add	r7, sp, #0
 8100764:	6078      	str	r0, [r7, #4]
   return SysTick_Config(TicksNumb);
 8100766:	6878      	ldr	r0, [r7, #4]
 8100768:	f7ff ffb2 	bl	81006d0 <SysTick_Config>
 810076c:	4603      	mov	r3, r0
}
 810076e:	4618      	mov	r0, r3
 8100770:	3708      	adds	r7, #8
 8100772:	46bd      	mov	sp, r7
 8100774:	bd80      	pop	{r7, pc}
	...

08100778 <HAL_GetCurrentCPUID>:
/**
  * @brief  Returns the current CPU ID.
  * @retval CPU identifier
  */
uint32_t HAL_GetCurrentCPUID(void)
{
 8100778:	b480      	push	{r7}
 810077a:	af00      	add	r7, sp, #0
  if (((SCB->CPUID & 0x000000F0U) >> 4 )== 0x7U)
 810077c:	4b07      	ldr	r3, [pc, #28]	; (810079c <HAL_GetCurrentCPUID+0x24>)
 810077e:	681b      	ldr	r3, [r3, #0]
 8100780:	091b      	lsrs	r3, r3, #4
 8100782:	f003 030f 	and.w	r3, r3, #15
 8100786:	2b07      	cmp	r3, #7
 8100788:	d101      	bne.n	810078e <HAL_GetCurrentCPUID+0x16>
  {
    return  CM7_CPUID;
 810078a:	2303      	movs	r3, #3
 810078c:	e000      	b.n	8100790 <HAL_GetCurrentCPUID+0x18>
  }
  else
  {
    return CM4_CPUID;
 810078e:	2301      	movs	r3, #1
  }
}
 8100790:	4618      	mov	r0, r3
 8100792:	46bd      	mov	sp, r7
 8100794:	f85d 7b04 	ldr.w	r7, [sp], #4
 8100798:	4770      	bx	lr
 810079a:	bf00      	nop
 810079c:	e000ed00 	.word	0xe000ed00

081007a0 <HAL_HSEM_ActivateNotification>:
  * @brief  Activate Semaphore release Notification for a given Semaphores Mask .
  * @param  SemMask: Mask of Released semaphores
  * @retval Semaphore Key
  */
void HAL_HSEM_ActivateNotification(uint32_t SemMask)
{
 81007a0:	b480      	push	{r7}
 81007a2:	b083      	sub	sp, #12
 81007a4:	af00      	add	r7, sp, #0
 81007a6:	6078      	str	r0, [r7, #4]
  {
    /*Use interrupt line 1 for CPU2 Master*/
    HSEM->C2IER |= SemMask;
  }
#else
  HSEM_COMMON->IER |= SemMask;
 81007a8:	4b05      	ldr	r3, [pc, #20]	; (81007c0 <HAL_HSEM_ActivateNotification+0x20>)
 81007aa:	681a      	ldr	r2, [r3, #0]
 81007ac:	4904      	ldr	r1, [pc, #16]	; (81007c0 <HAL_HSEM_ActivateNotification+0x20>)
 81007ae:	687b      	ldr	r3, [r7, #4]
 81007b0:	4313      	orrs	r3, r2
 81007b2:	600b      	str	r3, [r1, #0]
#endif
}
 81007b4:	bf00      	nop
 81007b6:	370c      	adds	r7, #12
 81007b8:	46bd      	mov	sp, r7
 81007ba:	f85d 7b04 	ldr.w	r7, [sp], #4
 81007be:	4770      	bx	lr
 81007c0:	58026510 	.word	0x58026510

081007c4 <HAL_PWREx_EnterSTOPMode>:
  *            @arg PWR_D2_DOMAIN : Enter D2 Domain to DSTOP mode.
  *            @arg PWR_D3_DOMAIN : Enter D3/SRD Domain to DSTOP mode.
  * @retval None.
  */
void HAL_PWREx_EnterSTOPMode (uint32_t Regulator, uint8_t STOPEntry, uint32_t Domain)
{
 81007c4:	b580      	push	{r7, lr}
 81007c6:	b084      	sub	sp, #16
 81007c8:	af00      	add	r7, sp, #0
 81007ca:	60f8      	str	r0, [r7, #12]
 81007cc:	460b      	mov	r3, r1
 81007ce:	607a      	str	r2, [r7, #4]
 81007d0:	72fb      	strb	r3, [r7, #11]
  assert_param (IS_PWR_REGULATOR (Regulator));
  assert_param (IS_PWR_STOP_ENTRY (STOPEntry));
  assert_param (IS_PWR_DOMAIN (Domain));

  /* Select the regulator state in Stop mode */
  MODIFY_REG (PWR->CR1, PWR_CR1_LPDS, Regulator);
 81007d2:	4b37      	ldr	r3, [pc, #220]	; (81008b0 <HAL_PWREx_EnterSTOPMode+0xec>)
 81007d4:	681b      	ldr	r3, [r3, #0]
 81007d6:	f023 0201 	bic.w	r2, r3, #1
 81007da:	4935      	ldr	r1, [pc, #212]	; (81008b0 <HAL_PWREx_EnterSTOPMode+0xec>)
 81007dc:	68fb      	ldr	r3, [r7, #12]
 81007de:	4313      	orrs	r3, r2
 81007e0:	600b      	str	r3, [r1, #0]

  /* Select the domain Power Down DeepSleep */
  if (Domain == PWR_D1_DOMAIN)
 81007e2:	687b      	ldr	r3, [r7, #4]
 81007e4:	2b00      	cmp	r3, #0
 81007e6:	d123      	bne.n	8100830 <HAL_PWREx_EnterSTOPMode+0x6c>
  {
#if defined (DUAL_CORE)
    /* Check current core */
    if (HAL_GetCurrentCPUID () != CM7_CPUID)
 81007e8:	f7ff ffc6 	bl	8100778 <HAL_GetCurrentCPUID>
 81007ec:	4603      	mov	r3, r0
 81007ee:	2b03      	cmp	r3, #3
 81007f0:	d158      	bne.n	81008a4 <HAL_PWREx_EnterSTOPMode+0xe0>
      return;
    }
#endif /* defined (DUAL_CORE) */

    /* Keep DSTOP mode when D1/CD domain enters Deepsleep */
    CLEAR_BIT (PWR->CPUCR, PWR_CPUCR_PDDS_D1);
 81007f2:	4b2f      	ldr	r3, [pc, #188]	; (81008b0 <HAL_PWREx_EnterSTOPMode+0xec>)
 81007f4:	691b      	ldr	r3, [r3, #16]
 81007f6:	4a2e      	ldr	r2, [pc, #184]	; (81008b0 <HAL_PWREx_EnterSTOPMode+0xec>)
 81007f8:	f023 0301 	bic.w	r3, r3, #1
 81007fc:	6113      	str	r3, [r2, #16]

    /* Set SLEEPDEEP bit of Cortex System Control Register */
    SET_BIT (SCB->SCR, SCB_SCR_SLEEPDEEP_Msk);
 81007fe:	4b2d      	ldr	r3, [pc, #180]	; (81008b4 <HAL_PWREx_EnterSTOPMode+0xf0>)
 8100800:	691b      	ldr	r3, [r3, #16]
 8100802:	4a2c      	ldr	r2, [pc, #176]	; (81008b4 <HAL_PWREx_EnterSTOPMode+0xf0>)
 8100804:	f043 0304 	orr.w	r3, r3, #4
 8100808:	6113      	str	r3, [r2, #16]
  \details Acts as a special kind of Data Memory Barrier.
           It completes when all explicit memory accesses before this instruction complete.
 */
__STATIC_FORCEINLINE void __DSB(void)
{
  __ASM volatile ("dsb 0xF":::"memory");
 810080a:	f3bf 8f4f 	dsb	sy
}
 810080e:	bf00      	nop
  __ASM volatile ("isb 0xF":::"memory");
 8100810:	f3bf 8f6f 	isb	sy
}
 8100814:	bf00      	nop
    /* Ensure that all instructions are done before entering STOP mode */
    __DSB ();
    __ISB ();

    /* Select Stop mode entry */
    if (STOPEntry == PWR_STOPENTRY_WFI)
 8100816:	7afb      	ldrb	r3, [r7, #11]
 8100818:	2b01      	cmp	r3, #1
 810081a:	d101      	bne.n	8100820 <HAL_PWREx_EnterSTOPMode+0x5c>
    {
      /* Request Wait For Interrupt */
      __WFI ();
 810081c:	bf30      	wfi
 810081e:	e000      	b.n	8100822 <HAL_PWREx_EnterSTOPMode+0x5e>
    }
    else
    {
      /* Request Wait For Event */
      __WFE ();
 8100820:	bf20      	wfe
    }

    /* Clear SLEEPDEEP bit of Cortex-Mx in the System Control Register */
    CLEAR_BIT (SCB->SCR, SCB_SCR_SLEEPDEEP_Msk);
 8100822:	4b24      	ldr	r3, [pc, #144]	; (81008b4 <HAL_PWREx_EnterSTOPMode+0xf0>)
 8100824:	691b      	ldr	r3, [r3, #16]
 8100826:	4a23      	ldr	r2, [pc, #140]	; (81008b4 <HAL_PWREx_EnterSTOPMode+0xf0>)
 8100828:	f023 0304 	bic.w	r3, r3, #4
 810082c:	6113      	str	r3, [r2, #16]
 810082e:	e03c      	b.n	81008aa <HAL_PWREx_EnterSTOPMode+0xe6>
  }
#if defined (PWR_CPUCR_PDDS_D2)
  else if (Domain == PWR_D2_DOMAIN)
 8100830:	687b      	ldr	r3, [r7, #4]
 8100832:	2b01      	cmp	r3, #1
 8100834:	d123      	bne.n	810087e <HAL_PWREx_EnterSTOPMode+0xba>
  {
#if defined (DUAL_CORE)
    /* Check current core */
    if (HAL_GetCurrentCPUID () != CM4_CPUID)
 8100836:	f7ff ff9f 	bl	8100778 <HAL_GetCurrentCPUID>
 810083a:	4603      	mov	r3, r0
 810083c:	2b01      	cmp	r3, #1
 810083e:	d133      	bne.n	81008a8 <HAL_PWREx_EnterSTOPMode+0xe4>
      */
      return;
    }

    /* Keep DSTOP mode when D2 domain enters Deepsleep */
    CLEAR_BIT (PWR->CPU2CR, PWR_CPU2CR_PDDS_D2);
 8100840:	4b1b      	ldr	r3, [pc, #108]	; (81008b0 <HAL_PWREx_EnterSTOPMode+0xec>)
 8100842:	695b      	ldr	r3, [r3, #20]
 8100844:	4a1a      	ldr	r2, [pc, #104]	; (81008b0 <HAL_PWREx_EnterSTOPMode+0xec>)
 8100846:	f023 0302 	bic.w	r3, r3, #2
 810084a:	6153      	str	r3, [r2, #20]

    /* Set SLEEPDEEP bit of Cortex System Control Register */
    SET_BIT (SCB->SCR, SCB_SCR_SLEEPDEEP_Msk);
 810084c:	4b19      	ldr	r3, [pc, #100]	; (81008b4 <HAL_PWREx_EnterSTOPMode+0xf0>)
 810084e:	691b      	ldr	r3, [r3, #16]
 8100850:	4a18      	ldr	r2, [pc, #96]	; (81008b4 <HAL_PWREx_EnterSTOPMode+0xf0>)
 8100852:	f043 0304 	orr.w	r3, r3, #4
 8100856:	6113      	str	r3, [r2, #16]
  __ASM volatile ("dsb 0xF":::"memory");
 8100858:	f3bf 8f4f 	dsb	sy
}
 810085c:	bf00      	nop
  __ASM volatile ("isb 0xF":::"memory");
 810085e:	f3bf 8f6f 	isb	sy
}
 8100862:	bf00      	nop
    /* Ensure that all instructions are done before entering STOP mode */
    __DSB ();
    __ISB ();

    /* Select Stop mode entry */
    if (STOPEntry == PWR_STOPENTRY_WFI)
 8100864:	7afb      	ldrb	r3, [r7, #11]
 8100866:	2b01      	cmp	r3, #1
 8100868:	d101      	bne.n	810086e <HAL_PWREx_EnterSTOPMode+0xaa>
    {
      /* Request Wait For Interrupt */
      __WFI ();
 810086a:	bf30      	wfi
 810086c:	e000      	b.n	8100870 <HAL_PWREx_EnterSTOPMode+0xac>
    }
    else
    {
      /* Request Wait For Event */
      __WFE ();
 810086e:	bf20      	wfe
    }

    /* Clear SLEEPDEEP bit of Cortex-Mx in the System Control Register */
    CLEAR_BIT (SCB->SCR, SCB_SCR_SLEEPDEEP_Msk);
 8100870:	4b10      	ldr	r3, [pc, #64]	; (81008b4 <HAL_PWREx_EnterSTOPMode+0xf0>)
 8100872:	691b      	ldr	r3, [r3, #16]
 8100874:	4a0f      	ldr	r2, [pc, #60]	; (81008b4 <HAL_PWREx_EnterSTOPMode+0xf0>)
 8100876:	f023 0304 	bic.w	r3, r3, #4
 810087a:	6113      	str	r3, [r2, #16]
 810087c:	e015      	b.n	81008aa <HAL_PWREx_EnterSTOPMode+0xe6>
#endif /* defined (PWR_CPUCR_PDDS_D2) */
  else
  {
#if defined (DUAL_CORE)
    /* Check current core */
    if (HAL_GetCurrentCPUID () == CM7_CPUID)
 810087e:	f7ff ff7b 	bl	8100778 <HAL_GetCurrentCPUID>
 8100882:	4603      	mov	r3, r0
 8100884:	2b03      	cmp	r3, #3
 8100886:	d106      	bne.n	8100896 <HAL_PWREx_EnterSTOPMode+0xd2>
    {
      /* Keep DSTOP mode when D3 domain enters Deepsleep */
      CLEAR_BIT (PWR->CPUCR, PWR_CPUCR_PDDS_D3);
 8100888:	4b09      	ldr	r3, [pc, #36]	; (81008b0 <HAL_PWREx_EnterSTOPMode+0xec>)
 810088a:	691b      	ldr	r3, [r3, #16]
 810088c:	4a08      	ldr	r2, [pc, #32]	; (81008b0 <HAL_PWREx_EnterSTOPMode+0xec>)
 810088e:	f023 0304 	bic.w	r3, r3, #4
 8100892:	6113      	str	r3, [r2, #16]
 8100894:	e009      	b.n	81008aa <HAL_PWREx_EnterSTOPMode+0xe6>
    }
    else
    {
      /* Keep DSTOP mode when D3 domain enters Deepsleep */
      CLEAR_BIT (PWR->CPU2CR, PWR_CPU2CR_PDDS_D3);
 8100896:	4b06      	ldr	r3, [pc, #24]	; (81008b0 <HAL_PWREx_EnterSTOPMode+0xec>)
 8100898:	695b      	ldr	r3, [r3, #20]
 810089a:	4a05      	ldr	r2, [pc, #20]	; (81008b0 <HAL_PWREx_EnterSTOPMode+0xec>)
 810089c:	f023 0304 	bic.w	r3, r3, #4
 81008a0:	6153      	str	r3, [r2, #20]
 81008a2:	e002      	b.n	81008aa <HAL_PWREx_EnterSTOPMode+0xe6>
      return;
 81008a4:	bf00      	nop
 81008a6:	e000      	b.n	81008aa <HAL_PWREx_EnterSTOPMode+0xe6>
      return;
 81008a8:	bf00      	nop
#else
    /* Keep DSTOP mode when D3/SRD domain enters Deepsleep */
    CLEAR_BIT (PWR->CPUCR, PWR_CPUCR_PDDS_D3);
#endif  /* defined (DUAL_CORE) */
  }
}
 81008aa:	3710      	adds	r7, #16
 81008ac:	46bd      	mov	sp, r7
 81008ae:	bd80      	pop	{r7, pc}
 81008b0:	58024800 	.word	0x58024800
 81008b4:	e000ed00 	.word	0xe000ed00

081008b8 <HAL_PWREx_ClearPendingEvent>:
  *         enter low power mode using Wait For Event request.
  * @note   Cortex-M7 must be in CRUN mode when calling this API by Cortex-M4.
  * @retval None.
  */
void HAL_PWREx_ClearPendingEvent (void)
{
 81008b8:	b580      	push	{r7, lr}
 81008ba:	af00      	add	r7, sp, #0
#if defined (DUAL_CORE)
  /* Check the current Core */
  if (HAL_GetCurrentCPUID () == CM7_CPUID)
 81008bc:	f7ff ff5c 	bl	8100778 <HAL_GetCurrentCPUID>
 81008c0:	4603      	mov	r3, r0
 81008c2:	2b03      	cmp	r3, #3
 81008c4:	d101      	bne.n	81008ca <HAL_PWREx_ClearPendingEvent+0x12>
  {
    __WFE ();
 81008c6:	bf20      	wfe
    __WFE ();
  }
#else
  __WFE ();
#endif /* defined (DUAL_CORE) */
}
 81008c8:	e001      	b.n	81008ce <HAL_PWREx_ClearPendingEvent+0x16>
    __SEV ();
 81008ca:	bf40      	sev
    __WFE ();
 81008cc:	bf20      	wfe
}
 81008ce:	bf00      	nop
 81008d0:	bd80      	pop	{r7, pc}
	...

081008d4 <HAL_RCC_GetSysClockFreq>:
  *
  *
  * @retval SYSCLK frequency
  */
uint32_t HAL_RCC_GetSysClockFreq(void)
{
 81008d4:	b480      	push	{r7}
 81008d6:	b089      	sub	sp, #36	; 0x24
 81008d8:	af00      	add	r7, sp, #0
  float_t fracn1, pllvco;
  uint32_t sysclockfreq;

  /* Get SYSCLK source -------------------------------------------------------*/

  switch (RCC->CFGR & RCC_CFGR_SWS)
 81008da:	4bb3      	ldr	r3, [pc, #716]	; (8100ba8 <HAL_RCC_GetSysClockFreq+0x2d4>)
 81008dc:	691b      	ldr	r3, [r3, #16]
 81008de:	f003 0338 	and.w	r3, r3, #56	; 0x38
 81008e2:	2b18      	cmp	r3, #24
 81008e4:	f200 8155 	bhi.w	8100b92 <HAL_RCC_GetSysClockFreq+0x2be>
 81008e8:	a201      	add	r2, pc, #4	; (adr r2, 81008f0 <HAL_RCC_GetSysClockFreq+0x1c>)
 81008ea:	f852 f023 	ldr.w	pc, [r2, r3, lsl #2]
 81008ee:	bf00      	nop
 81008f0:	08100955 	.word	0x08100955
 81008f4:	08100b93 	.word	0x08100b93
 81008f8:	08100b93 	.word	0x08100b93
 81008fc:	08100b93 	.word	0x08100b93
 8100900:	08100b93 	.word	0x08100b93
 8100904:	08100b93 	.word	0x08100b93
 8100908:	08100b93 	.word	0x08100b93
 810090c:	08100b93 	.word	0x08100b93
 8100910:	0810097b 	.word	0x0810097b
 8100914:	08100b93 	.word	0x08100b93
 8100918:	08100b93 	.word	0x08100b93
 810091c:	08100b93 	.word	0x08100b93
 8100920:	08100b93 	.word	0x08100b93
 8100924:	08100b93 	.word	0x08100b93
 8100928:	08100b93 	.word	0x08100b93
 810092c:	08100b93 	.word	0x08100b93
 8100930:	08100981 	.word	0x08100981
 8100934:	08100b93 	.word	0x08100b93
 8100938:	08100b93 	.word	0x08100b93
 810093c:	08100b93 	.word	0x08100b93
 8100940:	08100b93 	.word	0x08100b93
 8100944:	08100b93 	.word	0x08100b93
 8100948:	08100b93 	.word	0x08100b93
 810094c:	08100b93 	.word	0x08100b93
 8100950:	08100987 	.word	0x08100987
  {
  case RCC_CFGR_SWS_HSI:  /* HSI used as system clock source */

   if (__HAL_RCC_GET_FLAG(RCC_FLAG_HSIDIV) != 0U)
 8100954:	4b94      	ldr	r3, [pc, #592]	; (8100ba8 <HAL_RCC_GetSysClockFreq+0x2d4>)
 8100956:	681b      	ldr	r3, [r3, #0]
 8100958:	f003 0320 	and.w	r3, r3, #32
 810095c:	2b00      	cmp	r3, #0
 810095e:	d009      	beq.n	8100974 <HAL_RCC_GetSysClockFreq+0xa0>
      {
        sysclockfreq = (uint32_t) (HSI_VALUE >> (__HAL_RCC_GET_HSI_DIVIDER()>> 3));
 8100960:	4b91      	ldr	r3, [pc, #580]	; (8100ba8 <HAL_RCC_GetSysClockFreq+0x2d4>)
 8100962:	681b      	ldr	r3, [r3, #0]
 8100964:	08db      	lsrs	r3, r3, #3
 8100966:	f003 0303 	and.w	r3, r3, #3
 810096a:	4a90      	ldr	r2, [pc, #576]	; (8100bac <HAL_RCC_GetSysClockFreq+0x2d8>)
 810096c:	fa22 f303 	lsr.w	r3, r2, r3
 8100970:	61bb      	str	r3, [r7, #24]
      else
      {
        sysclockfreq = (uint32_t) HSI_VALUE;
      }

    break;
 8100972:	e111      	b.n	8100b98 <HAL_RCC_GetSysClockFreq+0x2c4>
        sysclockfreq = (uint32_t) HSI_VALUE;
 8100974:	4b8d      	ldr	r3, [pc, #564]	; (8100bac <HAL_RCC_GetSysClockFreq+0x2d8>)
 8100976:	61bb      	str	r3, [r7, #24]
    break;
 8100978:	e10e      	b.n	8100b98 <HAL_RCC_GetSysClockFreq+0x2c4>

  case RCC_CFGR_SWS_CSI:  /* CSI used as system clock  source */
    sysclockfreq = CSI_VALUE;
 810097a:	4b8d      	ldr	r3, [pc, #564]	; (8100bb0 <HAL_RCC_GetSysClockFreq+0x2dc>)
 810097c:	61bb      	str	r3, [r7, #24]
    break;
 810097e:	e10b      	b.n	8100b98 <HAL_RCC_GetSysClockFreq+0x2c4>

  case RCC_CFGR_SWS_HSE:  /* HSE used as system clock  source */
    sysclockfreq = HSE_VALUE;
 8100980:	4b8c      	ldr	r3, [pc, #560]	; (8100bb4 <HAL_RCC_GetSysClockFreq+0x2e0>)
 8100982:	61bb      	str	r3, [r7, #24]
    break;
 8100984:	e108      	b.n	8100b98 <HAL_RCC_GetSysClockFreq+0x2c4>
  case RCC_CFGR_SWS_PLL1:  /* PLL1 used as system clock  source */

    /* PLL_VCO = (HSE_VALUE or HSI_VALUE or CSI_VALUE/ PLLM) * PLLN
    SYSCLK = PLL_VCO / PLLR
    */
    pllsource = (RCC->PLLCKSELR & RCC_PLLCKSELR_PLLSRC);
 8100986:	4b88      	ldr	r3, [pc, #544]	; (8100ba8 <HAL_RCC_GetSysClockFreq+0x2d4>)
 8100988:	6a9b      	ldr	r3, [r3, #40]	; 0x28
 810098a:	f003 0303 	and.w	r3, r3, #3
 810098e:	617b      	str	r3, [r7, #20]
    pllm = ((RCC->PLLCKSELR & RCC_PLLCKSELR_DIVM1)>> 4)  ;
 8100990:	4b85      	ldr	r3, [pc, #532]	; (8100ba8 <HAL_RCC_GetSysClockFreq+0x2d4>)
 8100992:	6a9b      	ldr	r3, [r3, #40]	; 0x28
 8100994:	091b      	lsrs	r3, r3, #4
 8100996:	f003 033f 	and.w	r3, r3, #63	; 0x3f
 810099a:	613b      	str	r3, [r7, #16]
    pllfracen = ((RCC-> PLLCFGR & RCC_PLLCFGR_PLL1FRACEN)>>RCC_PLLCFGR_PLL1FRACEN_Pos);
 810099c:	4b82      	ldr	r3, [pc, #520]	; (8100ba8 <HAL_RCC_GetSysClockFreq+0x2d4>)
 810099e:	6adb      	ldr	r3, [r3, #44]	; 0x2c
 81009a0:	f003 0301 	and.w	r3, r3, #1
 81009a4:	60fb      	str	r3, [r7, #12]
    fracn1 = (float_t)(uint32_t)(pllfracen* ((RCC->PLL1FRACR & RCC_PLL1FRACR_FRACN1)>> 3));
 81009a6:	4b80      	ldr	r3, [pc, #512]	; (8100ba8 <HAL_RCC_GetSysClockFreq+0x2d4>)
 81009a8:	6b5b      	ldr	r3, [r3, #52]	; 0x34
 81009aa:	08db      	lsrs	r3, r3, #3
 81009ac:	f3c3 030c 	ubfx	r3, r3, #0, #13
 81009b0:	68fa      	ldr	r2, [r7, #12]
 81009b2:	fb02 f303 	mul.w	r3, r2, r3
 81009b6:	ee07 3a90 	vmov	s15, r3
 81009ba:	eef8 7a67 	vcvt.f32.u32	s15, s15
 81009be:	edc7 7a02 	vstr	s15, [r7, #8]

    if (pllm != 0U)
 81009c2:	693b      	ldr	r3, [r7, #16]
 81009c4:	2b00      	cmp	r3, #0
 81009c6:	f000 80e1 	beq.w	8100b8c <HAL_RCC_GetSysClockFreq+0x2b8>
 81009ca:	697b      	ldr	r3, [r7, #20]
 81009cc:	2b02      	cmp	r3, #2
 81009ce:	f000 8083 	beq.w	8100ad8 <HAL_RCC_GetSysClockFreq+0x204>
 81009d2:	697b      	ldr	r3, [r7, #20]
 81009d4:	2b02      	cmp	r3, #2
 81009d6:	f200 80a1 	bhi.w	8100b1c <HAL_RCC_GetSysClockFreq+0x248>
 81009da:	697b      	ldr	r3, [r7, #20]
 81009dc:	2b00      	cmp	r3, #0
 81009de:	d003      	beq.n	81009e8 <HAL_RCC_GetSysClockFreq+0x114>
 81009e0:	697b      	ldr	r3, [r7, #20]
 81009e2:	2b01      	cmp	r3, #1
 81009e4:	d056      	beq.n	8100a94 <HAL_RCC_GetSysClockFreq+0x1c0>
 81009e6:	e099      	b.n	8100b1c <HAL_RCC_GetSysClockFreq+0x248>
    {
      switch (pllsource)
      {
      case RCC_PLLSOURCE_HSI:  /* HSI used as PLL clock source */

       if (__HAL_RCC_GET_FLAG(RCC_FLAG_HSIDIV) != 0U)
 81009e8:	4b6f      	ldr	r3, [pc, #444]	; (8100ba8 <HAL_RCC_GetSysClockFreq+0x2d4>)
 81009ea:	681b      	ldr	r3, [r3, #0]
 81009ec:	f003 0320 	and.w	r3, r3, #32
 81009f0:	2b00      	cmp	r3, #0
 81009f2:	d02d      	beq.n	8100a50 <HAL_RCC_GetSysClockFreq+0x17c>
        {
          hsivalue= (HSI_VALUE >> (__HAL_RCC_GET_HSI_DIVIDER()>> 3));
 81009f4:	4b6c      	ldr	r3, [pc, #432]	; (8100ba8 <HAL_RCC_GetSysClockFreq+0x2d4>)
 81009f6:	681b      	ldr	r3, [r3, #0]
 81009f8:	08db      	lsrs	r3, r3, #3
 81009fa:	f003 0303 	and.w	r3, r3, #3
 81009fe:	4a6b      	ldr	r2, [pc, #428]	; (8100bac <HAL_RCC_GetSysClockFreq+0x2d8>)
 8100a00:	fa22 f303 	lsr.w	r3, r2, r3
 8100a04:	607b      	str	r3, [r7, #4]
          pllvco = ( (float_t)hsivalue / (float_t)pllm) * ((float_t)(uint32_t)(RCC->PLL1DIVR & RCC_PLL1DIVR_N1) + (fracn1/(float_t)0x2000) +(float_t)1 );
 8100a06:	687b      	ldr	r3, [r7, #4]
 8100a08:	ee07 3a90 	vmov	s15, r3
 8100a0c:	eef8 6a67 	vcvt.f32.u32	s13, s15
 8100a10:	693b      	ldr	r3, [r7, #16]
 8100a12:	ee07 3a90 	vmov	s15, r3
 8100a16:	eef8 7a67 	vcvt.f32.u32	s15, s15
 8100a1a:	ee86 7aa7 	vdiv.f32	s14, s13, s15
 8100a1e:	4b62      	ldr	r3, [pc, #392]	; (8100ba8 <HAL_RCC_GetSysClockFreq+0x2d4>)
 8100a20:	6b1b      	ldr	r3, [r3, #48]	; 0x30
 8100a22:	f3c3 0308 	ubfx	r3, r3, #0, #9
 8100a26:	ee07 3a90 	vmov	s15, r3
 8100a2a:	eef8 6a67 	vcvt.f32.u32	s13, s15
 8100a2e:	ed97 6a02 	vldr	s12, [r7, #8]
 8100a32:	eddf 5a61 	vldr	s11, [pc, #388]	; 8100bb8 <HAL_RCC_GetSysClockFreq+0x2e4>
 8100a36:	eec6 7a25 	vdiv.f32	s15, s12, s11
 8100a3a:	ee76 7aa7 	vadd.f32	s15, s13, s15
 8100a3e:	eef7 6a00 	vmov.f32	s13, #112	; 0x3f800000  1.0
 8100a42:	ee77 7aa6 	vadd.f32	s15, s15, s13
 8100a46:	ee67 7a27 	vmul.f32	s15, s14, s15
 8100a4a:	edc7 7a07 	vstr	s15, [r7, #28]
        }
        else
        {
          pllvco = ((float_t)HSI_VALUE / (float_t)pllm) * ((float_t)(uint32_t)(RCC->PLL1DIVR & RCC_PLL1DIVR_N1) + (fracn1/(float_t)0x2000) +(float_t)1 );
        }
        break;
 8100a4e:	e087      	b.n	8100b60 <HAL_RCC_GetSysClockFreq+0x28c>
          pllvco = ((float_t)HSI_VALUE / (float_t)pllm) * ((float_t)(uint32_t)(RCC->PLL1DIVR & RCC_PLL1DIVR_N1) + (fracn1/(float_t)0x2000) +(float_t)1 );
 8100a50:	693b      	ldr	r3, [r7, #16]
 8100a52:	ee07 3a90 	vmov	s15, r3
 8100a56:	eef8 7a67 	vcvt.f32.u32	s15, s15
 8100a5a:	eddf 6a58 	vldr	s13, [pc, #352]	; 8100bbc <HAL_RCC_GetSysClockFreq+0x2e8>
 8100a5e:	ee86 7aa7 	vdiv.f32	s14, s13, s15
 8100a62:	4b51      	ldr	r3, [pc, #324]	; (8100ba8 <HAL_RCC_GetSysClockFreq+0x2d4>)
 8100a64:	6b1b      	ldr	r3, [r3, #48]	; 0x30
 8100a66:	f3c3 0308 	ubfx	r3, r3, #0, #9
 8100a6a:	ee07 3a90 	vmov	s15, r3
 8100a6e:	eef8 6a67 	vcvt.f32.u32	s13, s15
 8100a72:	ed97 6a02 	vldr	s12, [r7, #8]
 8100a76:	eddf 5a50 	vldr	s11, [pc, #320]	; 8100bb8 <HAL_RCC_GetSysClockFreq+0x2e4>
 8100a7a:	eec6 7a25 	vdiv.f32	s15, s12, s11
 8100a7e:	ee76 7aa7 	vadd.f32	s15, s13, s15
 8100a82:	eef7 6a00 	vmov.f32	s13, #112	; 0x3f800000  1.0
 8100a86:	ee77 7aa6 	vadd.f32	s15, s15, s13
 8100a8a:	ee67 7a27 	vmul.f32	s15, s14, s15
 8100a8e:	edc7 7a07 	vstr	s15, [r7, #28]
        break;
 8100a92:	e065      	b.n	8100b60 <HAL_RCC_GetSysClockFreq+0x28c>

      case RCC_PLLSOURCE_CSI:  /* CSI used as PLL clock source */
        pllvco = ((float_t)CSI_VALUE / (float_t)pllm) * ((float_t)(uint32_t)(RCC->PLL1DIVR & RCC_PLL1DIVR_N1) + (fracn1/(float_t)0x2000) +(float_t)1 );
 8100a94:	693b      	ldr	r3, [r7, #16]
 8100a96:	ee07 3a90 	vmov	s15, r3
 8100a9a:	eef8 7a67 	vcvt.f32.u32	s15, s15
 8100a9e:	eddf 6a48 	vldr	s13, [pc, #288]	; 8100bc0 <HAL_RCC_GetSysClockFreq+0x2ec>
 8100aa2:	ee86 7aa7 	vdiv.f32	s14, s13, s15
 8100aa6:	4b40      	ldr	r3, [pc, #256]	; (8100ba8 <HAL_RCC_GetSysClockFreq+0x2d4>)
 8100aa8:	6b1b      	ldr	r3, [r3, #48]	; 0x30
 8100aaa:	f3c3 0308 	ubfx	r3, r3, #0, #9
 8100aae:	ee07 3a90 	vmov	s15, r3
 8100ab2:	eef8 6a67 	vcvt.f32.u32	s13, s15
 8100ab6:	ed97 6a02 	vldr	s12, [r7, #8]
 8100aba:	eddf 5a3f 	vldr	s11, [pc, #252]	; 8100bb8 <HAL_RCC_GetSysClockFreq+0x2e4>
 8100abe:	eec6 7a25 	vdiv.f32	s15, s12, s11
 8100ac2:	ee76 7aa7 	vadd.f32	s15, s13, s15
 8100ac6:	eef7 6a00 	vmov.f32	s13, #112	; 0x3f800000  1.0
 8100aca:	ee77 7aa6 	vadd.f32	s15, s15, s13
 8100ace:	ee67 7a27 	vmul.f32	s15, s14, s15
 8100ad2:	edc7 7a07 	vstr	s15, [r7, #28]
        break;
 8100ad6:	e043      	b.n	8100b60 <HAL_RCC_GetSysClockFreq+0x28c>

      case RCC_PLLSOURCE_HSE:  /* HSE used as PLL clock source */
        pllvco = ((float_t)HSE_VALUE / (float_t)pllm) * ((float_t)(uint32_t)(RCC->PLL1DIVR & RCC_PLL1DIVR_N1) + (fracn1/(float_t)0x2000) +(float_t)1 );
 8100ad8:	693b      	ldr	r3, [r7, #16]
 8100ada:	ee07 3a90 	vmov	s15, r3
 8100ade:	eef8 7a67 	vcvt.f32.u32	s15, s15
 8100ae2:	eddf 6a38 	vldr	s13, [pc, #224]	; 8100bc4 <HAL_RCC_GetSysClockFreq+0x2f0>
 8100ae6:	ee86 7aa7 	vdiv.f32	s14, s13, s15
 8100aea:	4b2f      	ldr	r3, [pc, #188]	; (8100ba8 <HAL_RCC_GetSysClockFreq+0x2d4>)
 8100aec:	6b1b      	ldr	r3, [r3, #48]	; 0x30
 8100aee:	f3c3 0308 	ubfx	r3, r3, #0, #9
 8100af2:	ee07 3a90 	vmov	s15, r3
 8100af6:	eef8 6a67 	vcvt.f32.u32	s13, s15
 8100afa:	ed97 6a02 	vldr	s12, [r7, #8]
 8100afe:	eddf 5a2e 	vldr	s11, [pc, #184]	; 8100bb8 <HAL_RCC_GetSysClockFreq+0x2e4>
 8100b02:	eec6 7a25 	vdiv.f32	s15, s12, s11
 8100b06:	ee76 7aa7 	vadd.f32	s15, s13, s15
 8100b0a:	eef7 6a00 	vmov.f32	s13, #112	; 0x3f800000  1.0
 8100b0e:	ee77 7aa6 	vadd.f32	s15, s15, s13
 8100b12:	ee67 7a27 	vmul.f32	s15, s14, s15
 8100b16:	edc7 7a07 	vstr	s15, [r7, #28]
        break;
 8100b1a:	e021      	b.n	8100b60 <HAL_RCC_GetSysClockFreq+0x28c>

      default:
        pllvco = ((float_t)CSI_VALUE / (float_t)pllm) * ((float_t)(uint32_t)(RCC->PLL1DIVR & RCC_PLL1DIVR_N1) + (fracn1/(float_t)0x2000) +(float_t)1 );
 8100b1c:	693b      	ldr	r3, [r7, #16]
 8100b1e:	ee07 3a90 	vmov	s15, r3
 8100b22:	eef8 7a67 	vcvt.f32.u32	s15, s15
 8100b26:	eddf 6a26 	vldr	s13, [pc, #152]	; 8100bc0 <HAL_RCC_GetSysClockFreq+0x2ec>
 8100b2a:	ee86 7aa7 	vdiv.f32	s14, s13, s15
 8100b2e:	4b1e      	ldr	r3, [pc, #120]	; (8100ba8 <HAL_RCC_GetSysClockFreq+0x2d4>)
 8100b30:	6b1b      	ldr	r3, [r3, #48]	; 0x30
 8100b32:	f3c3 0308 	ubfx	r3, r3, #0, #9
 8100b36:	ee07 3a90 	vmov	s15, r3
 8100b3a:	eef8 6a67 	vcvt.f32.u32	s13, s15
 8100b3e:	ed97 6a02 	vldr	s12, [r7, #8]
 8100b42:	eddf 5a1d 	vldr	s11, [pc, #116]	; 8100bb8 <HAL_RCC_GetSysClockFreq+0x2e4>
 8100b46:	eec6 7a25 	vdiv.f32	s15, s12, s11
 8100b4a:	ee76 7aa7 	vadd.f32	s15, s13, s15
 8100b4e:	eef7 6a00 	vmov.f32	s13, #112	; 0x3f800000  1.0
 8100b52:	ee77 7aa6 	vadd.f32	s15, s15, s13
 8100b56:	ee67 7a27 	vmul.f32	s15, s14, s15
 8100b5a:	edc7 7a07 	vstr	s15, [r7, #28]
        break;
 8100b5e:	bf00      	nop
      }
      pllp = (((RCC->PLL1DIVR & RCC_PLL1DIVR_P1) >>9) + 1U ) ;
 8100b60:	4b11      	ldr	r3, [pc, #68]	; (8100ba8 <HAL_RCC_GetSysClockFreq+0x2d4>)
 8100b62:	6b1b      	ldr	r3, [r3, #48]	; 0x30
 8100b64:	0a5b      	lsrs	r3, r3, #9
 8100b66:	f003 037f 	and.w	r3, r3, #127	; 0x7f
 8100b6a:	3301      	adds	r3, #1
 8100b6c:	603b      	str	r3, [r7, #0]
      sysclockfreq =  (uint32_t)(float_t)(pllvco/(float_t)pllp);
 8100b6e:	683b      	ldr	r3, [r7, #0]
 8100b70:	ee07 3a90 	vmov	s15, r3
 8100b74:	eeb8 7a67 	vcvt.f32.u32	s14, s15
 8100b78:	edd7 6a07 	vldr	s13, [r7, #28]
 8100b7c:	eec6 7a87 	vdiv.f32	s15, s13, s14
 8100b80:	eefc 7ae7 	vcvt.u32.f32	s15, s15
 8100b84:	ee17 3a90 	vmov	r3, s15
 8100b88:	61bb      	str	r3, [r7, #24]
    }
    else
    {
      sysclockfreq = 0U;
    }
    break;
 8100b8a:	e005      	b.n	8100b98 <HAL_RCC_GetSysClockFreq+0x2c4>
      sysclockfreq = 0U;
 8100b8c:	2300      	movs	r3, #0
 8100b8e:	61bb      	str	r3, [r7, #24]
    break;
 8100b90:	e002      	b.n	8100b98 <HAL_RCC_GetSysClockFreq+0x2c4>

  default:
    sysclockfreq = CSI_VALUE;
 8100b92:	4b07      	ldr	r3, [pc, #28]	; (8100bb0 <HAL_RCC_GetSysClockFreq+0x2dc>)
 8100b94:	61bb      	str	r3, [r7, #24]
    break;
 8100b96:	bf00      	nop
  }

  return sysclockfreq;
 8100b98:	69bb      	ldr	r3, [r7, #24]
}
 8100b9a:	4618      	mov	r0, r3
 8100b9c:	3724      	adds	r7, #36	; 0x24
 8100b9e:	46bd      	mov	sp, r7
 8100ba0:	f85d 7b04 	ldr.w	r7, [sp], #4
 8100ba4:	4770      	bx	lr
 8100ba6:	bf00      	nop
 8100ba8:	58024400 	.word	0x58024400
 8100bac:	03d09000 	.word	0x03d09000
 8100bb0:	003d0900 	.word	0x003d0900
 8100bb4:	017d7840 	.word	0x017d7840
 8100bb8:	46000000 	.word	0x46000000
 8100bbc:	4c742400 	.word	0x4c742400
 8100bc0:	4a742400 	.word	0x4a742400
 8100bc4:	4bbebc20 	.word	0x4bbebc20

08100bc8 <__libc_init_array>:
 8100bc8:	b570      	push	{r4, r5, r6, lr}
 8100bca:	4d0d      	ldr	r5, [pc, #52]	; (8100c00 <__libc_init_array+0x38>)
 8100bcc:	4c0d      	ldr	r4, [pc, #52]	; (8100c04 <__libc_init_array+0x3c>)
 8100bce:	1b64      	subs	r4, r4, r5
 8100bd0:	10a4      	asrs	r4, r4, #2
 8100bd2:	2600      	movs	r6, #0
 8100bd4:	42a6      	cmp	r6, r4
 8100bd6:	d109      	bne.n	8100bec <__libc_init_array+0x24>
 8100bd8:	4d0b      	ldr	r5, [pc, #44]	; (8100c08 <__libc_init_array+0x40>)
 8100bda:	4c0c      	ldr	r4, [pc, #48]	; (8100c0c <__libc_init_array+0x44>)
 8100bdc:	f000 f818 	bl	8100c10 <_init>
 8100be0:	1b64      	subs	r4, r4, r5
 8100be2:	10a4      	asrs	r4, r4, #2
 8100be4:	2600      	movs	r6, #0
 8100be6:	42a6      	cmp	r6, r4
 8100be8:	d105      	bne.n	8100bf6 <__libc_init_array+0x2e>
 8100bea:	bd70      	pop	{r4, r5, r6, pc}
 8100bec:	f855 3b04 	ldr.w	r3, [r5], #4
 8100bf0:	4798      	blx	r3
 8100bf2:	3601      	adds	r6, #1
 8100bf4:	e7ee      	b.n	8100bd4 <__libc_init_array+0xc>
 8100bf6:	f855 3b04 	ldr.w	r3, [r5], #4
 8100bfa:	4798      	blx	r3
 8100bfc:	3601      	adds	r6, #1
 8100bfe:	e7f2      	b.n	8100be6 <__libc_init_array+0x1e>
 8100c00:	08100c38 	.word	0x08100c38
 8100c04:	08100c38 	.word	0x08100c38
 8100c08:	08100c38 	.word	0x08100c38
 8100c0c:	08100c3c 	.word	0x08100c3c

08100c10 <_init>:
 8100c10:	b5f8      	push	{r3, r4, r5, r6, r7, lr}
 8100c12:	bf00      	nop
 8100c14:	bcf8      	pop	{r3, r4, r5, r6, r7}
 8100c16:	bc08      	pop	{r3}
 8100c18:	469e      	mov	lr, r3
 8100c1a:	4770      	bx	lr

08100c1c <_fini>:
 8100c1c:	b5f8      	push	{r3, r4, r5, r6, r7, lr}
 8100c1e:	bf00      	nop
 8100c20:	bcf8      	pop	{r3, r4, r5, r6, r7}
 8100c22:	bc08      	pop	{r3}
 8100c24:	469e      	mov	lr, r3
 8100c26:	4770      	bx	lr
