
PL_DC_CM7.elf:     file format elf32-littlearm

Sections:
Idx Name          Size      VMA       LMA       File off  Algn
  0 .isr_vector   00000298  08000000  08000000  00010000  2**0
                  CONTENTS, ALLOC, LOAD, READONLY, DATA
  1 .text         00007f68  080002a0  080002a0  000102a0  2**4
                  CONTENTS, ALLOC, LOAD, READONLY, CODE
  2 .rodata       0000010c  08008208  08008208  00018208  2**2
                  CONTENTS, ALLOC, LOAD, READONLY, DATA
  3 .ARM.extab    00000000  08008314  08008314  00020128  2**0
                  CONTENTS
  4 .ARM          00000008  08008314  08008314  00018314  2**2
                  CONTENTS, ALLOC, LOAD, READONLY, DATA
  5 .preinit_array 00000000  0800831c  0800831c  00020128  2**0
                  CONTENTS, ALLOC, LOAD, DATA
  6 .init_array   00000004  0800831c  0800831c  0001831c  2**2
                  CONTENTS, ALLOC, LOAD, DATA
  7 .fini_array   00000004  08008320  08008320  00018320  2**2
                  CONTENTS, ALLOC, LOAD, DATA
  8 .data         00000128  24000000  08008324  00020000  2**2
                  CONTENTS, ALLOC, LOAD, DATA
  9 .bss          00000198  24000128  0800844c  00020128  2**2
                  ALLOC
 10 ._user_heap_stack 00000600  240002c0  0800844c  000202c0  2**0
                  ALLOC
 11 .ARM.attributes 0000002e  00000000  00000000  00020128  2**0
                  CONTENTS, READONLY
 12 .debug_info   000174dd  00000000  00000000  00020156  2**0
                  CONTENTS, READONLY, DEBUGGING, OCTETS
 13 .debug_abbrev 00002b33  00000000  00000000  00037633  2**0
                  CONTENTS, READONLY, DEBUGGING, OCTETS
 14 .debug_aranges 000010b8  00000000  00000000  0003a168  2**3
                  CONTENTS, READONLY, DEBUGGING, OCTETS
 15 .debug_ranges 00000fa0  00000000  00000000  0003b220  2**3
                  CONTENTS, READONLY, DEBUGGING, OCTETS
 16 .debug_macro  0003b1af  00000000  00000000  0003c1c0  2**0
                  CONTENTS, READONLY, DEBUGGING, OCTETS
 17 .debug_line   00017000  00000000  00000000  0007736f  2**0
                  CONTENTS, READONLY, DEBUGGING, OCTETS
 18 .debug_str    0017f340  00000000  00000000  0008e36f  2**0
                  CONTENTS, READONLY, DEBUGGING, OCTETS
 19 .comment      00000050  00000000  00000000  0020d6af  2**0
                  CONTENTS, READONLY
 20 .debug_frame  00004d6c  00000000  00000000  0020d700  2**2
                  CONTENTS, READONLY, DEBUGGING, OCTETS

Disassembly of section .text:

080002a0 <__do_global_dtors_aux>:
 80002a0:	b510      	push	{r4, lr}
 80002a2:	4c05      	ldr	r4, [pc, #20]	; (80002b8 <__do_global_dtors_aux+0x18>)
 80002a4:	7823      	ldrb	r3, [r4, #0]
 80002a6:	b933      	cbnz	r3, 80002b6 <__do_global_dtors_aux+0x16>
 80002a8:	4b04      	ldr	r3, [pc, #16]	; (80002bc <__do_global_dtors_aux+0x1c>)
 80002aa:	b113      	cbz	r3, 80002b2 <__do_global_dtors_aux+0x12>
 80002ac:	4804      	ldr	r0, [pc, #16]	; (80002c0 <__do_global_dtors_aux+0x20>)
 80002ae:	f3af 8000 	nop.w
 80002b2:	2301      	movs	r3, #1
 80002b4:	7023      	strb	r3, [r4, #0]
 80002b6:	bd10      	pop	{r4, pc}
 80002b8:	24000128 	.word	0x24000128
 80002bc:	00000000 	.word	0x00000000
 80002c0:	080081f0 	.word	0x080081f0

080002c4 <frame_dummy>:
 80002c4:	b508      	push	{r3, lr}
 80002c6:	4b03      	ldr	r3, [pc, #12]	; (80002d4 <frame_dummy+0x10>)
 80002c8:	b11b      	cbz	r3, 80002d2 <frame_dummy+0xe>
 80002ca:	4903      	ldr	r1, [pc, #12]	; (80002d8 <frame_dummy+0x14>)
 80002cc:	4803      	ldr	r0, [pc, #12]	; (80002dc <frame_dummy+0x18>)
 80002ce:	f3af 8000 	nop.w
 80002d2:	bd08      	pop	{r3, pc}
 80002d4:	00000000 	.word	0x00000000
 80002d8:	2400012c 	.word	0x2400012c
 80002dc:	080081f0 	.word	0x080081f0

080002e0 <memchr>:
 80002e0:	f001 01ff 	and.w	r1, r1, #255	; 0xff
 80002e4:	2a10      	cmp	r2, #16
 80002e6:	db2b      	blt.n	8000340 <memchr+0x60>
 80002e8:	f010 0f07 	tst.w	r0, #7
 80002ec:	d008      	beq.n	8000300 <memchr+0x20>
 80002ee:	f810 3b01 	ldrb.w	r3, [r0], #1
 80002f2:	3a01      	subs	r2, #1
 80002f4:	428b      	cmp	r3, r1
 80002f6:	d02d      	beq.n	8000354 <memchr+0x74>
 80002f8:	f010 0f07 	tst.w	r0, #7
 80002fc:	b342      	cbz	r2, 8000350 <memchr+0x70>
 80002fe:	d1f6      	bne.n	80002ee <memchr+0xe>
 8000300:	b4f0      	push	{r4, r5, r6, r7}
 8000302:	ea41 2101 	orr.w	r1, r1, r1, lsl #8
 8000306:	ea41 4101 	orr.w	r1, r1, r1, lsl #16
 800030a:	f022 0407 	bic.w	r4, r2, #7
 800030e:	f07f 0700 	mvns.w	r7, #0
 8000312:	2300      	movs	r3, #0
 8000314:	e8f0 5602 	ldrd	r5, r6, [r0], #8
 8000318:	3c08      	subs	r4, #8
 800031a:	ea85 0501 	eor.w	r5, r5, r1
 800031e:	ea86 0601 	eor.w	r6, r6, r1
 8000322:	fa85 f547 	uadd8	r5, r5, r7
 8000326:	faa3 f587 	sel	r5, r3, r7
 800032a:	fa86 f647 	uadd8	r6, r6, r7
 800032e:	faa5 f687 	sel	r6, r5, r7
 8000332:	b98e      	cbnz	r6, 8000358 <memchr+0x78>
 8000334:	d1ee      	bne.n	8000314 <memchr+0x34>
 8000336:	bcf0      	pop	{r4, r5, r6, r7}
 8000338:	f001 01ff 	and.w	r1, r1, #255	; 0xff
 800033c:	f002 0207 	and.w	r2, r2, #7
 8000340:	b132      	cbz	r2, 8000350 <memchr+0x70>
 8000342:	f810 3b01 	ldrb.w	r3, [r0], #1
 8000346:	3a01      	subs	r2, #1
 8000348:	ea83 0301 	eor.w	r3, r3, r1
 800034c:	b113      	cbz	r3, 8000354 <memchr+0x74>
 800034e:	d1f8      	bne.n	8000342 <memchr+0x62>
 8000350:	2000      	movs	r0, #0
 8000352:	4770      	bx	lr
 8000354:	3801      	subs	r0, #1
 8000356:	4770      	bx	lr
 8000358:	2d00      	cmp	r5, #0
 800035a:	bf06      	itte	eq
 800035c:	4635      	moveq	r5, r6
 800035e:	3803      	subeq	r0, #3
 8000360:	3807      	subne	r0, #7
 8000362:	f015 0f01 	tst.w	r5, #1
 8000366:	d107      	bne.n	8000378 <memchr+0x98>
 8000368:	3001      	adds	r0, #1
 800036a:	f415 7f80 	tst.w	r5, #256	; 0x100
 800036e:	bf02      	ittt	eq
 8000370:	3001      	addeq	r0, #1
 8000372:	f415 3fc0 	tsteq.w	r5, #98304	; 0x18000
 8000376:	3001      	addeq	r0, #1
 8000378:	bcf0      	pop	{r4, r5, r6, r7}
 800037a:	3801      	subs	r0, #1
 800037c:	4770      	bx	lr
 800037e:	bf00      	nop

08000380 <__aeabi_uldivmod>:
 8000380:	b953      	cbnz	r3, 8000398 <__aeabi_uldivmod+0x18>
 8000382:	b94a      	cbnz	r2, 8000398 <__aeabi_uldivmod+0x18>
 8000384:	2900      	cmp	r1, #0
 8000386:	bf08      	it	eq
 8000388:	2800      	cmpeq	r0, #0
 800038a:	bf1c      	itt	ne
 800038c:	f04f 31ff 	movne.w	r1, #4294967295
 8000390:	f04f 30ff 	movne.w	r0, #4294967295
 8000394:	f000 b974 	b.w	8000680 <__aeabi_idiv0>
 8000398:	f1ad 0c08 	sub.w	ip, sp, #8
 800039c:	e96d ce04 	strd	ip, lr, [sp, #-16]!
 80003a0:	f000 f806 	bl	80003b0 <__udivmoddi4>
 80003a4:	f8dd e004 	ldr.w	lr, [sp, #4]
 80003a8:	e9dd 2302 	ldrd	r2, r3, [sp, #8]
 80003ac:	b004      	add	sp, #16
 80003ae:	4770      	bx	lr

080003b0 <__udivmoddi4>:
 80003b0:	e92d 47f0 	stmdb	sp!, {r4, r5, r6, r7, r8, r9, sl, lr}
 80003b4:	9d08      	ldr	r5, [sp, #32]
 80003b6:	4604      	mov	r4, r0
 80003b8:	468e      	mov	lr, r1
 80003ba:	2b00      	cmp	r3, #0
 80003bc:	d14d      	bne.n	800045a <__udivmoddi4+0xaa>
 80003be:	428a      	cmp	r2, r1
 80003c0:	4694      	mov	ip, r2
 80003c2:	d969      	bls.n	8000498 <__udivmoddi4+0xe8>
 80003c4:	fab2 f282 	clz	r2, r2
 80003c8:	b152      	cbz	r2, 80003e0 <__udivmoddi4+0x30>
 80003ca:	fa01 f302 	lsl.w	r3, r1, r2
 80003ce:	f1c2 0120 	rsb	r1, r2, #32
 80003d2:	fa20 f101 	lsr.w	r1, r0, r1
 80003d6:	fa0c fc02 	lsl.w	ip, ip, r2
 80003da:	ea41 0e03 	orr.w	lr, r1, r3
 80003de:	4094      	lsls	r4, r2
 80003e0:	ea4f 481c 	mov.w	r8, ip, lsr #16
 80003e4:	0c21      	lsrs	r1, r4, #16
 80003e6:	fbbe f6f8 	udiv	r6, lr, r8
 80003ea:	fa1f f78c 	uxth.w	r7, ip
 80003ee:	fb08 e316 	mls	r3, r8, r6, lr
 80003f2:	ea41 4303 	orr.w	r3, r1, r3, lsl #16
 80003f6:	fb06 f107 	mul.w	r1, r6, r7
 80003fa:	4299      	cmp	r1, r3
 80003fc:	d90a      	bls.n	8000414 <__udivmoddi4+0x64>
 80003fe:	eb1c 0303 	adds.w	r3, ip, r3
 8000402:	f106 30ff 	add.w	r0, r6, #4294967295
 8000406:	f080 811f 	bcs.w	8000648 <__udivmoddi4+0x298>
 800040a:	4299      	cmp	r1, r3
 800040c:	f240 811c 	bls.w	8000648 <__udivmoddi4+0x298>
 8000410:	3e02      	subs	r6, #2
 8000412:	4463      	add	r3, ip
 8000414:	1a5b      	subs	r3, r3, r1
 8000416:	b2a4      	uxth	r4, r4
 8000418:	fbb3 f0f8 	udiv	r0, r3, r8
 800041c:	fb08 3310 	mls	r3, r8, r0, r3
 8000420:	ea44 4403 	orr.w	r4, r4, r3, lsl #16
 8000424:	fb00 f707 	mul.w	r7, r0, r7
 8000428:	42a7      	cmp	r7, r4
 800042a:	d90a      	bls.n	8000442 <__udivmoddi4+0x92>
 800042c:	eb1c 0404 	adds.w	r4, ip, r4
 8000430:	f100 33ff 	add.w	r3, r0, #4294967295
 8000434:	f080 810a 	bcs.w	800064c <__udivmoddi4+0x29c>
 8000438:	42a7      	cmp	r7, r4
 800043a:	f240 8107 	bls.w	800064c <__udivmoddi4+0x29c>
 800043e:	4464      	add	r4, ip
 8000440:	3802      	subs	r0, #2
 8000442:	ea40 4006 	orr.w	r0, r0, r6, lsl #16
 8000446:	1be4      	subs	r4, r4, r7
 8000448:	2600      	movs	r6, #0
 800044a:	b11d      	cbz	r5, 8000454 <__udivmoddi4+0xa4>
 800044c:	40d4      	lsrs	r4, r2
 800044e:	2300      	movs	r3, #0
 8000450:	e9c5 4300 	strd	r4, r3, [r5]
 8000454:	4631      	mov	r1, r6
 8000456:	e8bd 87f0 	ldmia.w	sp!, {r4, r5, r6, r7, r8, r9, sl, pc}
 800045a:	428b      	cmp	r3, r1
 800045c:	d909      	bls.n	8000472 <__udivmoddi4+0xc2>
 800045e:	2d00      	cmp	r5, #0
 8000460:	f000 80ef 	beq.w	8000642 <__udivmoddi4+0x292>
 8000464:	2600      	movs	r6, #0
 8000466:	e9c5 0100 	strd	r0, r1, [r5]
 800046a:	4630      	mov	r0, r6
 800046c:	4631      	mov	r1, r6
 800046e:	e8bd 87f0 	ldmia.w	sp!, {r4, r5, r6, r7, r8, r9, sl, pc}
 8000472:	fab3 f683 	clz	r6, r3
 8000476:	2e00      	cmp	r6, #0
 8000478:	d14a      	bne.n	8000510 <__udivmoddi4+0x160>
 800047a:	428b      	cmp	r3, r1
 800047c:	d302      	bcc.n	8000484 <__udivmoddi4+0xd4>
 800047e:	4282      	cmp	r2, r0
 8000480:	f200 80f9 	bhi.w	8000676 <__udivmoddi4+0x2c6>
 8000484:	1a84      	subs	r4, r0, r2
 8000486:	eb61 0303 	sbc.w	r3, r1, r3
 800048a:	2001      	movs	r0, #1
 800048c:	469e      	mov	lr, r3
 800048e:	2d00      	cmp	r5, #0
 8000490:	d0e0      	beq.n	8000454 <__udivmoddi4+0xa4>
 8000492:	e9c5 4e00 	strd	r4, lr, [r5]
 8000496:	e7dd      	b.n	8000454 <__udivmoddi4+0xa4>
 8000498:	b902      	cbnz	r2, 800049c <__udivmoddi4+0xec>
 800049a:	deff      	udf	#255	; 0xff
 800049c:	fab2 f282 	clz	r2, r2
 80004a0:	2a00      	cmp	r2, #0
 80004a2:	f040 8092 	bne.w	80005ca <__udivmoddi4+0x21a>
 80004a6:	eba1 010c 	sub.w	r1, r1, ip
 80004aa:	ea4f 471c 	mov.w	r7, ip, lsr #16
 80004ae:	fa1f fe8c 	uxth.w	lr, ip
 80004b2:	2601      	movs	r6, #1
 80004b4:	0c20      	lsrs	r0, r4, #16
 80004b6:	fbb1 f3f7 	udiv	r3, r1, r7
 80004ba:	fb07 1113 	mls	r1, r7, r3, r1
 80004be:	ea40 4101 	orr.w	r1, r0, r1, lsl #16
 80004c2:	fb0e f003 	mul.w	r0, lr, r3
 80004c6:	4288      	cmp	r0, r1
 80004c8:	d908      	bls.n	80004dc <__udivmoddi4+0x12c>
 80004ca:	eb1c 0101 	adds.w	r1, ip, r1
 80004ce:	f103 38ff 	add.w	r8, r3, #4294967295
 80004d2:	d202      	bcs.n	80004da <__udivmoddi4+0x12a>
 80004d4:	4288      	cmp	r0, r1
 80004d6:	f200 80cb 	bhi.w	8000670 <__udivmoddi4+0x2c0>
 80004da:	4643      	mov	r3, r8
 80004dc:	1a09      	subs	r1, r1, r0
 80004de:	b2a4      	uxth	r4, r4
 80004e0:	fbb1 f0f7 	udiv	r0, r1, r7
 80004e4:	fb07 1110 	mls	r1, r7, r0, r1
 80004e8:	ea44 4401 	orr.w	r4, r4, r1, lsl #16
 80004ec:	fb0e fe00 	mul.w	lr, lr, r0
 80004f0:	45a6      	cmp	lr, r4
 80004f2:	d908      	bls.n	8000506 <__udivmoddi4+0x156>
 80004f4:	eb1c 0404 	adds.w	r4, ip, r4
 80004f8:	f100 31ff 	add.w	r1, r0, #4294967295
 80004fc:	d202      	bcs.n	8000504 <__udivmoddi4+0x154>
 80004fe:	45a6      	cmp	lr, r4
 8000500:	f200 80bb 	bhi.w	800067a <__udivmoddi4+0x2ca>
 8000504:	4608      	mov	r0, r1
 8000506:	eba4 040e 	sub.w	r4, r4, lr
 800050a:	ea40 4003 	orr.w	r0, r0, r3, lsl #16
 800050e:	e79c      	b.n	800044a <__udivmoddi4+0x9a>
 8000510:	f1c6 0720 	rsb	r7, r6, #32
 8000514:	40b3      	lsls	r3, r6
 8000516:	fa22 fc07 	lsr.w	ip, r2, r7
 800051a:	ea4c 0c03 	orr.w	ip, ip, r3
 800051e:	fa20 f407 	lsr.w	r4, r0, r7
 8000522:	fa01 f306 	lsl.w	r3, r1, r6
 8000526:	431c      	orrs	r4, r3
 8000528:	40f9      	lsrs	r1, r7
 800052a:	ea4f 491c 	mov.w	r9, ip, lsr #16
 800052e:	fa00 f306 	lsl.w	r3, r0, r6
 8000532:	fbb1 f8f9 	udiv	r8, r1, r9
 8000536:	0c20      	lsrs	r0, r4, #16
 8000538:	fa1f fe8c 	uxth.w	lr, ip
 800053c:	fb09 1118 	mls	r1, r9, r8, r1
 8000540:	ea40 4101 	orr.w	r1, r0, r1, lsl #16
 8000544:	fb08 f00e 	mul.w	r0, r8, lr
 8000548:	4288      	cmp	r0, r1
 800054a:	fa02 f206 	lsl.w	r2, r2, r6
 800054e:	d90b      	bls.n	8000568 <__udivmoddi4+0x1b8>
 8000550:	eb1c 0101 	adds.w	r1, ip, r1
 8000554:	f108 3aff 	add.w	sl, r8, #4294967295
 8000558:	f080 8088 	bcs.w	800066c <__udivmoddi4+0x2bc>
 800055c:	4288      	cmp	r0, r1
 800055e:	f240 8085 	bls.w	800066c <__udivmoddi4+0x2bc>
 8000562:	f1a8 0802 	sub.w	r8, r8, #2
 8000566:	4461      	add	r1, ip
 8000568:	1a09      	subs	r1, r1, r0
 800056a:	b2a4      	uxth	r4, r4
 800056c:	fbb1 f0f9 	udiv	r0, r1, r9
 8000570:	fb09 1110 	mls	r1, r9, r0, r1
 8000574:	ea44 4101 	orr.w	r1, r4, r1, lsl #16
 8000578:	fb00 fe0e 	mul.w	lr, r0, lr
 800057c:	458e      	cmp	lr, r1
 800057e:	d908      	bls.n	8000592 <__udivmoddi4+0x1e2>
 8000580:	eb1c 0101 	adds.w	r1, ip, r1
 8000584:	f100 34ff 	add.w	r4, r0, #4294967295
 8000588:	d26c      	bcs.n	8000664 <__udivmoddi4+0x2b4>
 800058a:	458e      	cmp	lr, r1
 800058c:	d96a      	bls.n	8000664 <__udivmoddi4+0x2b4>
 800058e:	3802      	subs	r0, #2
 8000590:	4461      	add	r1, ip
 8000592:	ea40 4008 	orr.w	r0, r0, r8, lsl #16
 8000596:	fba0 9402 	umull	r9, r4, r0, r2
 800059a:	eba1 010e 	sub.w	r1, r1, lr
 800059e:	42a1      	cmp	r1, r4
 80005a0:	46c8      	mov	r8, r9
 80005a2:	46a6      	mov	lr, r4
 80005a4:	d356      	bcc.n	8000654 <__udivmoddi4+0x2a4>
 80005a6:	d053      	beq.n	8000650 <__udivmoddi4+0x2a0>
 80005a8:	b15d      	cbz	r5, 80005c2 <__udivmoddi4+0x212>
 80005aa:	ebb3 0208 	subs.w	r2, r3, r8
 80005ae:	eb61 010e 	sbc.w	r1, r1, lr
 80005b2:	fa01 f707 	lsl.w	r7, r1, r7
 80005b6:	fa22 f306 	lsr.w	r3, r2, r6
 80005ba:	40f1      	lsrs	r1, r6
 80005bc:	431f      	orrs	r7, r3
 80005be:	e9c5 7100 	strd	r7, r1, [r5]
 80005c2:	2600      	movs	r6, #0
 80005c4:	4631      	mov	r1, r6
 80005c6:	e8bd 87f0 	ldmia.w	sp!, {r4, r5, r6, r7, r8, r9, sl, pc}
 80005ca:	f1c2 0320 	rsb	r3, r2, #32
 80005ce:	40d8      	lsrs	r0, r3
 80005d0:	fa0c fc02 	lsl.w	ip, ip, r2
 80005d4:	fa21 f303 	lsr.w	r3, r1, r3
 80005d8:	4091      	lsls	r1, r2
 80005da:	4301      	orrs	r1, r0
 80005dc:	ea4f 471c 	mov.w	r7, ip, lsr #16
 80005e0:	fa1f fe8c 	uxth.w	lr, ip
 80005e4:	fbb3 f0f7 	udiv	r0, r3, r7
 80005e8:	fb07 3610 	mls	r6, r7, r0, r3
 80005ec:	0c0b      	lsrs	r3, r1, #16
 80005ee:	ea43 4306 	orr.w	r3, r3, r6, lsl #16
 80005f2:	fb00 f60e 	mul.w	r6, r0, lr
 80005f6:	429e      	cmp	r6, r3
 80005f8:	fa04 f402 	lsl.w	r4, r4, r2
 80005fc:	d908      	bls.n	8000610 <__udivmoddi4+0x260>
 80005fe:	eb1c 0303 	adds.w	r3, ip, r3
 8000602:	f100 38ff 	add.w	r8, r0, #4294967295
 8000606:	d22f      	bcs.n	8000668 <__udivmoddi4+0x2b8>
 8000608:	429e      	cmp	r6, r3
 800060a:	d92d      	bls.n	8000668 <__udivmoddi4+0x2b8>
 800060c:	3802      	subs	r0, #2
 800060e:	4463      	add	r3, ip
 8000610:	1b9b      	subs	r3, r3, r6
 8000612:	b289      	uxth	r1, r1
 8000614:	fbb3 f6f7 	udiv	r6, r3, r7
 8000618:	fb07 3316 	mls	r3, r7, r6, r3
 800061c:	ea41 4103 	orr.w	r1, r1, r3, lsl #16
 8000620:	fb06 f30e 	mul.w	r3, r6, lr
 8000624:	428b      	cmp	r3, r1
 8000626:	d908      	bls.n	800063a <__udivmoddi4+0x28a>
 8000628:	eb1c 0101 	adds.w	r1, ip, r1
 800062c:	f106 38ff 	add.w	r8, r6, #4294967295
 8000630:	d216      	bcs.n	8000660 <__udivmoddi4+0x2b0>
 8000632:	428b      	cmp	r3, r1
 8000634:	d914      	bls.n	8000660 <__udivmoddi4+0x2b0>
 8000636:	3e02      	subs	r6, #2
 8000638:	4461      	add	r1, ip
 800063a:	1ac9      	subs	r1, r1, r3
 800063c:	ea46 4600 	orr.w	r6, r6, r0, lsl #16
 8000640:	e738      	b.n	80004b4 <__udivmoddi4+0x104>
 8000642:	462e      	mov	r6, r5
 8000644:	4628      	mov	r0, r5
 8000646:	e705      	b.n	8000454 <__udivmoddi4+0xa4>
 8000648:	4606      	mov	r6, r0
 800064a:	e6e3      	b.n	8000414 <__udivmoddi4+0x64>
 800064c:	4618      	mov	r0, r3
 800064e:	e6f8      	b.n	8000442 <__udivmoddi4+0x92>
 8000650:	454b      	cmp	r3, r9
 8000652:	d2a9      	bcs.n	80005a8 <__udivmoddi4+0x1f8>
 8000654:	ebb9 0802 	subs.w	r8, r9, r2
 8000658:	eb64 0e0c 	sbc.w	lr, r4, ip
 800065c:	3801      	subs	r0, #1
 800065e:	e7a3      	b.n	80005a8 <__udivmoddi4+0x1f8>
 8000660:	4646      	mov	r6, r8
 8000662:	e7ea      	b.n	800063a <__udivmoddi4+0x28a>
 8000664:	4620      	mov	r0, r4
 8000666:	e794      	b.n	8000592 <__udivmoddi4+0x1e2>
 8000668:	4640      	mov	r0, r8
 800066a:	e7d1      	b.n	8000610 <__udivmoddi4+0x260>
 800066c:	46d0      	mov	r8, sl
 800066e:	e77b      	b.n	8000568 <__udivmoddi4+0x1b8>
 8000670:	3b02      	subs	r3, #2
 8000672:	4461      	add	r1, ip
 8000674:	e732      	b.n	80004dc <__udivmoddi4+0x12c>
 8000676:	4630      	mov	r0, r6
 8000678:	e709      	b.n	800048e <__udivmoddi4+0xde>
 800067a:	4464      	add	r4, ip
 800067c:	3802      	subs	r0, #2
 800067e:	e742      	b.n	8000506 <__udivmoddi4+0x156>

08000680 <__aeabi_idiv0>:
 8000680:	4770      	bx	lr
 8000682:	bf00      	nop

08000684 <SystemInit>:
  *         configuration.
  * @param  None
  * @retval None
  */
void SystemInit (void)
{
 8000684:	b480      	push	{r7}
 8000686:	af00      	add	r7, sp, #0
  /* FPU settings ------------------------------------------------------------*/
  #if (__FPU_PRESENT == 1) && (__FPU_USED == 1)
    SCB->CPACR |= ((3UL << (10*2))|(3UL << (11*2)));  /* set CP10 and CP11 Full Access */
 8000688:	4b3d      	ldr	r3, [pc, #244]	; (8000780 <SystemInit+0xfc>)
 800068a:	f8d3 3088 	ldr.w	r3, [r3, #136]	; 0x88
 800068e:	4a3c      	ldr	r2, [pc, #240]	; (8000780 <SystemInit+0xfc>)
 8000690:	f443 0370 	orr.w	r3, r3, #15728640	; 0xf00000
 8000694:	f8c2 3088 	str.w	r3, [r2, #136]	; 0x88
  #endif

    /*SEVONPEND enabled so that an interrupt coming from the CPU(n) interrupt signal is
     detectable by the CPU after a WFI/WFE instruction.*/
 SCB->SCR |= SCB_SCR_SEVONPEND_Msk;
 8000698:	4b39      	ldr	r3, [pc, #228]	; (8000780 <SystemInit+0xfc>)
 800069a:	691b      	ldr	r3, [r3, #16]
 800069c:	4a38      	ldr	r2, [pc, #224]	; (8000780 <SystemInit+0xfc>)
 800069e:	f043 0310 	orr.w	r3, r3, #16
 80006a2:	6113      	str	r3, [r2, #16]

#if defined(CORE_CM7)
  /* Reset the RCC clock configuration to the default reset state ------------*/
   /* Increasing the CPU frequency */
  if(FLASH_LATENCY_DEFAULT  > (READ_BIT((FLASH->ACR), FLASH_ACR_LATENCY)))
 80006a4:	4b37      	ldr	r3, [pc, #220]	; (8000784 <SystemInit+0x100>)
 80006a6:	681b      	ldr	r3, [r3, #0]
 80006a8:	f003 030f 	and.w	r3, r3, #15
 80006ac:	2b06      	cmp	r3, #6
 80006ae:	d807      	bhi.n	80006c0 <SystemInit+0x3c>
  {
    /* Program the new number of wait states to the LATENCY bits in the FLASH_ACR register */
    MODIFY_REG(FLASH->ACR, FLASH_ACR_LATENCY, (uint32_t)(FLASH_LATENCY_DEFAULT));
 80006b0:	4b34      	ldr	r3, [pc, #208]	; (8000784 <SystemInit+0x100>)
 80006b2:	681b      	ldr	r3, [r3, #0]
 80006b4:	f023 030f 	bic.w	r3, r3, #15
 80006b8:	4a32      	ldr	r2, [pc, #200]	; (8000784 <SystemInit+0x100>)
 80006ba:	f043 0307 	orr.w	r3, r3, #7
 80006be:	6013      	str	r3, [r2, #0]
  }

  /* Set HSION bit */
  RCC->CR |= RCC_CR_HSION;
 80006c0:	4b31      	ldr	r3, [pc, #196]	; (8000788 <SystemInit+0x104>)
 80006c2:	681b      	ldr	r3, [r3, #0]
 80006c4:	4a30      	ldr	r2, [pc, #192]	; (8000788 <SystemInit+0x104>)
 80006c6:	f043 0301 	orr.w	r3, r3, #1
 80006ca:	6013      	str	r3, [r2, #0]

  /* Reset CFGR register */
  RCC->CFGR = 0x00000000;
 80006cc:	4b2e      	ldr	r3, [pc, #184]	; (8000788 <SystemInit+0x104>)
 80006ce:	2200      	movs	r2, #0
 80006d0:	611a      	str	r2, [r3, #16]

  /* Reset HSEON, HSECSSON, CSION, HSI48ON, CSIKERON, PLL1ON, PLL2ON and PLL3ON bits */
  RCC->CR &= 0xEAF6ED7FU;
 80006d2:	4b2d      	ldr	r3, [pc, #180]	; (8000788 <SystemInit+0x104>)
 80006d4:	681a      	ldr	r2, [r3, #0]
 80006d6:	492c      	ldr	r1, [pc, #176]	; (8000788 <SystemInit+0x104>)
 80006d8:	4b2c      	ldr	r3, [pc, #176]	; (800078c <SystemInit+0x108>)
 80006da:	4013      	ands	r3, r2
 80006dc:	600b      	str	r3, [r1, #0]

   /* Decreasing the number of wait states because of lower CPU frequency */
  if(FLASH_LATENCY_DEFAULT  < (READ_BIT((FLASH->ACR), FLASH_ACR_LATENCY)))
 80006de:	4b29      	ldr	r3, [pc, #164]	; (8000784 <SystemInit+0x100>)
 80006e0:	681b      	ldr	r3, [r3, #0]
 80006e2:	f003 0308 	and.w	r3, r3, #8
 80006e6:	2b00      	cmp	r3, #0
 80006e8:	d007      	beq.n	80006fa <SystemInit+0x76>
  {
    /* Program the new number of wait states to the LATENCY bits in the FLASH_ACR register */
    MODIFY_REG(FLASH->ACR, FLASH_ACR_LATENCY, (uint32_t)(FLASH_LATENCY_DEFAULT));
 80006ea:	4b26      	ldr	r3, [pc, #152]	; (8000784 <SystemInit+0x100>)
 80006ec:	681b      	ldr	r3, [r3, #0]
 80006ee:	f023 030f 	bic.w	r3, r3, #15
 80006f2:	4a24      	ldr	r2, [pc, #144]	; (8000784 <SystemInit+0x100>)
 80006f4:	f043 0307 	orr.w	r3, r3, #7
 80006f8:	6013      	str	r3, [r2, #0]
  }

  /* Reset D1CFGR register */
  RCC->D1CFGR = 0x00000000;
 80006fa:	4b23      	ldr	r3, [pc, #140]	; (8000788 <SystemInit+0x104>)
 80006fc:	2200      	movs	r2, #0
 80006fe:	619a      	str	r2, [r3, #24]

  /* Reset D2CFGR register */
  RCC->D2CFGR = 0x00000000;
 8000700:	4b21      	ldr	r3, [pc, #132]	; (8000788 <SystemInit+0x104>)
 8000702:	2200      	movs	r2, #0
 8000704:	61da      	str	r2, [r3, #28]

  /* Reset D3CFGR register */
  RCC->D3CFGR = 0x00000000;
 8000706:	4b20      	ldr	r3, [pc, #128]	; (8000788 <SystemInit+0x104>)
 8000708:	2200      	movs	r2, #0
 800070a:	621a      	str	r2, [r3, #32]

  /* Reset PLLCKSELR register */
  RCC->PLLCKSELR = 0x02020200;
 800070c:	4b1e      	ldr	r3, [pc, #120]	; (8000788 <SystemInit+0x104>)
 800070e:	4a20      	ldr	r2, [pc, #128]	; (8000790 <SystemInit+0x10c>)
 8000710:	629a      	str	r2, [r3, #40]	; 0x28

  /* Reset PLLCFGR register */
  RCC->PLLCFGR = 0x01FF0000;
 8000712:	4b1d      	ldr	r3, [pc, #116]	; (8000788 <SystemInit+0x104>)
 8000714:	4a1f      	ldr	r2, [pc, #124]	; (8000794 <SystemInit+0x110>)
 8000716:	62da      	str	r2, [r3, #44]	; 0x2c
  /* Reset PLL1DIVR register */
  RCC->PLL1DIVR = 0x01010280;
 8000718:	4b1b      	ldr	r3, [pc, #108]	; (8000788 <SystemInit+0x104>)
 800071a:	4a1f      	ldr	r2, [pc, #124]	; (8000798 <SystemInit+0x114>)
 800071c:	631a      	str	r2, [r3, #48]	; 0x30
  /* Reset PLL1FRACR register */
  RCC->PLL1FRACR = 0x00000000;
 800071e:	4b1a      	ldr	r3, [pc, #104]	; (8000788 <SystemInit+0x104>)
 8000720:	2200      	movs	r2, #0
 8000722:	635a      	str	r2, [r3, #52]	; 0x34

  /* Reset PLL2DIVR register */
  RCC->PLL2DIVR = 0x01010280;
 8000724:	4b18      	ldr	r3, [pc, #96]	; (8000788 <SystemInit+0x104>)
 8000726:	4a1c      	ldr	r2, [pc, #112]	; (8000798 <SystemInit+0x114>)
 8000728:	639a      	str	r2, [r3, #56]	; 0x38

  /* Reset PLL2FRACR register */

  RCC->PLL2FRACR = 0x00000000;
 800072a:	4b17      	ldr	r3, [pc, #92]	; (8000788 <SystemInit+0x104>)
 800072c:	2200      	movs	r2, #0
 800072e:	63da      	str	r2, [r3, #60]	; 0x3c
  /* Reset PLL3DIVR register */
  RCC->PLL3DIVR = 0x01010280;
 8000730:	4b15      	ldr	r3, [pc, #84]	; (8000788 <SystemInit+0x104>)
 8000732:	4a19      	ldr	r2, [pc, #100]	; (8000798 <SystemInit+0x114>)
 8000734:	641a      	str	r2, [r3, #64]	; 0x40

  /* Reset PLL3FRACR register */
  RCC->PLL3FRACR = 0x00000000;
 8000736:	4b14      	ldr	r3, [pc, #80]	; (8000788 <SystemInit+0x104>)
 8000738:	2200      	movs	r2, #0
 800073a:	645a      	str	r2, [r3, #68]	; 0x44

  /* Reset HSEBYP bit */
  RCC->CR &= 0xFFFBFFFFU;
 800073c:	4b12      	ldr	r3, [pc, #72]	; (8000788 <SystemInit+0x104>)
 800073e:	681b      	ldr	r3, [r3, #0]
 8000740:	4a11      	ldr	r2, [pc, #68]	; (8000788 <SystemInit+0x104>)
 8000742:	f423 2380 	bic.w	r3, r3, #262144	; 0x40000
 8000746:	6013      	str	r3, [r2, #0]

  /* Disable all interrupts */
  RCC->CIER = 0x00000000;
 8000748:	4b0f      	ldr	r3, [pc, #60]	; (8000788 <SystemInit+0x104>)
 800074a:	2200      	movs	r2, #0
 800074c:	661a      	str	r2, [r3, #96]	; 0x60

  /* Enable CortexM7 HSEM EXTI line (line 78)*/
  EXTI_D2->EMR3 |= 0x4000UL;
 800074e:	4b13      	ldr	r3, [pc, #76]	; (800079c <SystemInit+0x118>)
 8000750:	6a5b      	ldr	r3, [r3, #36]	; 0x24
 8000752:	4a12      	ldr	r2, [pc, #72]	; (800079c <SystemInit+0x118>)
 8000754:	f443 4380 	orr.w	r3, r3, #16384	; 0x4000
 8000758:	6253      	str	r3, [r2, #36]	; 0x24

  if((DBGMCU->IDCODE & 0xFFFF0000U) < 0x20000000U)
 800075a:	4b11      	ldr	r3, [pc, #68]	; (80007a0 <SystemInit+0x11c>)
 800075c:	681a      	ldr	r2, [r3, #0]
 800075e:	4b11      	ldr	r3, [pc, #68]	; (80007a4 <SystemInit+0x120>)
 8000760:	4013      	ands	r3, r2
 8000762:	f1b3 5f00 	cmp.w	r3, #536870912	; 0x20000000
 8000766:	d202      	bcs.n	800076e <SystemInit+0xea>
  {
    /* if stm32h7 revY*/
    /* Change  the switch matrix read issuing capability to 1 for the AXI SRAM target (Target 7) */
    *((__IO uint32_t*)0x51008108) = 0x000000001U;
 8000768:	4b0f      	ldr	r3, [pc, #60]	; (80007a8 <SystemInit+0x124>)
 800076a:	2201      	movs	r2, #1
 800076c:	601a      	str	r2, [r3, #0]
  /*
   * Disable the FMC bank1 (enabled after reset).
   * This, prevents CPU speculation access on this bank which blocks the use of FMC during
   * 24us. During this time the others FMC master (such as LTDC) cannot use it!
   */
  FMC_Bank1_R->BTCR[0] = 0x000030D2;
 800076e:	4b0f      	ldr	r3, [pc, #60]	; (80007ac <SystemInit+0x128>)
 8000770:	f243 02d2 	movw	r2, #12498	; 0x30d2
 8000774:	601a      	str	r2, [r3, #0]
#endif /* USER_VECT_TAB_ADDRESS */

#else
#error Please #define CORE_CM4 or CORE_CM7
#endif /* CORE_CM4 */
}
 8000776:	bf00      	nop
 8000778:	46bd      	mov	sp, r7
 800077a:	f85d 7b04 	ldr.w	r7, [sp], #4
 800077e:	4770      	bx	lr
 8000780:	e000ed00 	.word	0xe000ed00
 8000784:	52002000 	.word	0x52002000
 8000788:	58024400 	.word	0x58024400
 800078c:	eaf6ed7f 	.word	0xeaf6ed7f
 8000790:	02020200 	.word	0x02020200
 8000794:	01ff0000 	.word	0x01ff0000
 8000798:	01010280 	.word	0x01010280
 800079c:	580000c0 	.word	0x580000c0
 80007a0:	5c001000 	.word	0x5c001000
 80007a4:	ffff0000 	.word	0xffff0000
 80007a8:	51008108 	.word	0x51008108
 80007ac:	52004000 	.word	0x52004000

080007b0 <write>:
                    //1       2    3       4     5       6       7     8      9       10    11     12      13   14     15      16     17     18     19      20      21    22    23     24     25     26     27     28    29      30
//uint16_t SAW_ADD[]={0x0000,0x0003,0x0004,0x0005,0x0006,0x0007,0x0009,0x000A,0x000B,0x000C,0x001f,0x0020,0x0026,0x0027,0x0028,0x0029,0x002A,0x002B,0x002C,0x002E,0x0036,0x0037,0x0044,0x0060,0x001D,0x001E};
//uint16_t SAW_Val[]={0x2000,0x0000,0x4000,0x4000,0x4000,0x4000,0x8005,0x8005,0x8005,0x8005,0x0000,0x000E,0x0111,0x1111,0x0111,0xFFFF,0x0101,0x0101,0x0003,0x3FF8,0x0304,0x0404,0x0002,0x0000,0x0001,0x0001};
//uint16_t SAW_RDD[]={0x8000,0x8003,0x8004,0x8005,0x8006,0x8007,0x8009,0x800A,0x800B,0x800C,0x801f,0x8020,0x8026,0x8027,0x8028,0x8029,0x802A,0x802B,0x802C,0x802E,0x8036,0x8037,0x8044,0x8060,0x801D,0x801E};
void write( uint16_t add, uint16_t data,uint16_t Read_add)
{
 80007b0:	b580      	push	{r7, lr}
 80007b2:	b086      	sub	sp, #24
 80007b4:	af02      	add	r7, sp, #8
 80007b6:	4603      	mov	r3, r0
 80007b8:	80fb      	strh	r3, [r7, #6]
 80007ba:	460b      	mov	r3, r1
 80007bc:	80bb      	strh	r3, [r7, #4]
 80007be:	4613      	mov	r3, r2
 80007c0:	807b      	strh	r3, [r7, #2]
	uint16_t Read_value=0;
 80007c2:	2300      	movs	r3, #0
 80007c4:	817b      	strh	r3, [r7, #10]

	uint8_t status=0, status1=0,status2=0,status3=0;
 80007c6:	2300      	movs	r3, #0
 80007c8:	73fb      	strb	r3, [r7, #15]
 80007ca:	2300      	movs	r3, #0
 80007cc:	73bb      	strb	r3, [r7, #14]
 80007ce:	2300      	movs	r3, #0
 80007d0:	737b      	strb	r3, [r7, #13]
 80007d2:	2300      	movs	r3, #0
 80007d4:	733b      	strb	r3, [r7, #12]
	HAL_GPIO_WritePin(CS_GPIO_Port, CS_Pin, GPIO_PIN_RESET);
 80007d6:	2200      	movs	r2, #0
 80007d8:	f44f 6180 	mov.w	r1, #1024	; 0x400
 80007dc:	4829      	ldr	r0, [pc, #164]	; (8000884 <write+0xd4>)
 80007de:	f001 fadb 	bl	8001d98 <HAL_GPIO_WritePin>
	status=HAL_SPI_Transmit(&hspi4,(uint8_t*)&add, sizeof(add),100);
 80007e2:	1db9      	adds	r1, r7, #6
 80007e4:	2364      	movs	r3, #100	; 0x64
 80007e6:	2202      	movs	r2, #2
 80007e8:	4827      	ldr	r0, [pc, #156]	; (8000888 <write+0xd8>)
 80007ea:	f004 fd9b 	bl	8005324 <HAL_SPI_Transmit>
 80007ee:	4603      	mov	r3, r0
 80007f0:	73fb      	strb	r3, [r7, #15]
	status1=HAL_SPI_Transmit(&hspi4, (uint8_t*)&data,  sizeof(add),100);
 80007f2:	1d39      	adds	r1, r7, #4
 80007f4:	2364      	movs	r3, #100	; 0x64
 80007f6:	2202      	movs	r2, #2
 80007f8:	4823      	ldr	r0, [pc, #140]	; (8000888 <write+0xd8>)
 80007fa:	f004 fd93 	bl	8005324 <HAL_SPI_Transmit>
 80007fe:	4603      	mov	r3, r0
 8000800:	73bb      	strb	r3, [r7, #14]
	HAL_GPIO_WritePin(CS_GPIO_Port, CS_Pin, GPIO_PIN_SET);
 8000802:	2201      	movs	r2, #1
 8000804:	f44f 6180 	mov.w	r1, #1024	; 0x400
 8000808:	481e      	ldr	r0, [pc, #120]	; (8000884 <write+0xd4>)
 800080a:	f001 fac5 	bl	8001d98 <HAL_GPIO_WritePin>
	printf("s=%d s=%d Add=%x Value=%x\n\r",status,status1,add,data);
 800080e:	7bf9      	ldrb	r1, [r7, #15]
 8000810:	7bba      	ldrb	r2, [r7, #14]
 8000812:	88fb      	ldrh	r3, [r7, #6]
 8000814:	4618      	mov	r0, r3
 8000816:	88bb      	ldrh	r3, [r7, #4]
 8000818:	9300      	str	r3, [sp, #0]
 800081a:	4603      	mov	r3, r0
 800081c:	481b      	ldr	r0, [pc, #108]	; (800088c <write+0xdc>)
 800081e:	f006 fd59 	bl	80072d4 <iprintf>
	HAL_Delay(50);                                                   // Delay in millisecond
 8000822:	2032      	movs	r0, #50	; 0x32
 8000824:	f000 fff4 	bl	8001810 <HAL_Delay>
	HAL_GPIO_WritePin(CS_GPIO_Port, CS_Pin, GPIO_PIN_RESET);
 8000828:	2200      	movs	r2, #0
 800082a:	f44f 6180 	mov.w	r1, #1024	; 0x400
 800082e:	4815      	ldr	r0, [pc, #84]	; (8000884 <write+0xd4>)
 8000830:	f001 fab2 	bl	8001d98 <HAL_GPIO_WritePin>
	status2=HAL_SPI_Transmit(&hspi4, (uint8_t*)&Read_add,  sizeof(add),100);
 8000834:	1cb9      	adds	r1, r7, #2
 8000836:	2364      	movs	r3, #100	; 0x64
 8000838:	2202      	movs	r2, #2
 800083a:	4813      	ldr	r0, [pc, #76]	; (8000888 <write+0xd8>)
 800083c:	f004 fd72 	bl	8005324 <HAL_SPI_Transmit>
 8000840:	4603      	mov	r3, r0
 8000842:	737b      	strb	r3, [r7, #13]
	status3=HAL_SPI_Receive(&hspi4, (uint8_t*)&Read_value, sizeof(add),100);
 8000844:	f107 010a 	add.w	r1, r7, #10
 8000848:	2364      	movs	r3, #100	; 0x64
 800084a:	2202      	movs	r2, #2
 800084c:	480e      	ldr	r0, [pc, #56]	; (8000888 <write+0xd8>)
 800084e:	f004 ff5b 	bl	8005708 <HAL_SPI_Receive>
 8000852:	4603      	mov	r3, r0
 8000854:	733b      	strb	r3, [r7, #12]
	HAL_GPIO_WritePin(CS_GPIO_Port, CS_Pin, GPIO_PIN_SET);
 8000856:	2201      	movs	r2, #1
 8000858:	f44f 6180 	mov.w	r1, #1024	; 0x400
 800085c:	4809      	ldr	r0, [pc, #36]	; (8000884 <write+0xd4>)
 800085e:	f001 fa9b 	bl	8001d98 <HAL_GPIO_WritePin>
	printf("s=%d s=%d Add=%x Value=%x\n\n\r",status2,status3,Read_add,Read_value);
 8000862:	7b79      	ldrb	r1, [r7, #13]
 8000864:	7b3a      	ldrb	r2, [r7, #12]
 8000866:	887b      	ldrh	r3, [r7, #2]
 8000868:	4618      	mov	r0, r3
 800086a:	897b      	ldrh	r3, [r7, #10]
 800086c:	9300      	str	r3, [sp, #0]
 800086e:	4603      	mov	r3, r0
 8000870:	4807      	ldr	r0, [pc, #28]	; (8000890 <write+0xe0>)
 8000872:	f006 fd2f 	bl	80072d4 <iprintf>
	HAL_Delay(50);                                                  // Delay in millisecond
 8000876:	2032      	movs	r0, #50	; 0x32
 8000878:	f000 ffca 	bl	8001810 <HAL_Delay>
}
 800087c:	bf00      	nop
 800087e:	3710      	adds	r7, #16
 8000880:	46bd      	mov	sp, r7
 8000882:	bd80      	pop	{r7, pc}
 8000884:	58021000 	.word	0x58021000
 8000888:	24000190 	.word	0x24000190
 800088c:	08008208 	.word	0x08008208
 8000890:	08008224 	.word	0x08008224

08000894 <remotepinMode>:
#include "main.h"
#include "IO.h"
#include <stdio.h>

void remotepinMode(uint16_t pin, uint8_t mode)
{
 8000894:	b580      	push	{r7, lr}
 8000896:	b088      	sub	sp, #32
 8000898:	af04      	add	r7, sp, #16
 800089a:	4603      	mov	r3, r0
 800089c:	460a      	mov	r2, r1
 800089e:	80fb      	strh	r3, [r7, #6]
 80008a0:	4613      	mov	r3, r2
 80008a2:	717b      	strb	r3, [r7, #5]
	uint8_t  pullup_config_data;
	uint8_t pullup_value_data;
	uint8_t PCAL6524_CONFIGURATION;
	uint8_t PCAL6524_RESISTOR_PULL_ENABLE;
	uint8_t PCAL6524_RESISTOR_PULL_SELECTION;
	if (pin == P_EN_P15v || pin == P_EN_N15v || pin == P_EN_N5v || pin == GPIO1_FAN || pin ==DAC1_RST || pin == DAC2_RST || pin ==DS_PD2 ||pin == DS_PD1) //If pin is in the First bank
 80008a4:	88fb      	ldrh	r3, [r7, #6]
 80008a6:	2b01      	cmp	r3, #1
 80008a8:	d014      	beq.n	80008d4 <remotepinMode+0x40>
 80008aa:	88fb      	ldrh	r3, [r7, #6]
 80008ac:	2b02      	cmp	r3, #2
 80008ae:	d011      	beq.n	80008d4 <remotepinMode+0x40>
 80008b0:	88fb      	ldrh	r3, [r7, #6]
 80008b2:	2b04      	cmp	r3, #4
 80008b4:	d00e      	beq.n	80008d4 <remotepinMode+0x40>
 80008b6:	88fb      	ldrh	r3, [r7, #6]
 80008b8:	2b08      	cmp	r3, #8
 80008ba:	d00b      	beq.n	80008d4 <remotepinMode+0x40>
 80008bc:	88fb      	ldrh	r3, [r7, #6]
 80008be:	2b10      	cmp	r3, #16
 80008c0:	d008      	beq.n	80008d4 <remotepinMode+0x40>
 80008c2:	88fb      	ldrh	r3, [r7, #6]
 80008c4:	2b20      	cmp	r3, #32
 80008c6:	d005      	beq.n	80008d4 <remotepinMode+0x40>
 80008c8:	88fb      	ldrh	r3, [r7, #6]
 80008ca:	2b40      	cmp	r3, #64	; 0x40
 80008cc:	d002      	beq.n	80008d4 <remotepinMode+0x40>
 80008ce:	88fb      	ldrh	r3, [r7, #6]
 80008d0:	2b80      	cmp	r3, #128	; 0x80
 80008d2:	d106      	bne.n	80008e2 <remotepinMode+0x4e>
	{
		PCAL6524_CONFIGURATION = PCAL6524_CONFIGURATION_PORT_0;
 80008d4:	230c      	movs	r3, #12
 80008d6:	73fb      	strb	r3, [r7, #15]
		PCAL6524_RESISTOR_PULL_ENABLE = PCAL6524_RESISTOR_PULL_ENABLE_PORT_0;
 80008d8:	234c      	movs	r3, #76	; 0x4c
 80008da:	73bb      	strb	r3, [r7, #14]
		PCAL6524_RESISTOR_PULL_SELECTION = PCAL6524_RESISTOR_PULL_SELECTION_PORT_0;
 80008dc:	2350      	movs	r3, #80	; 0x50
 80008de:	737b      	strb	r3, [r7, #13]
 80008e0:	e04f      	b.n	8000982 <remotepinMode+0xee>
	}
	else if (pin == GPIOA0 || pin == GPIOA1 || pin == GPIOA2 || pin == GPIOA3 ||pin == CH1_PD1 || pin == CH2_PD1 || pin == CH3_PD1|| pin == CH4_PD1) //If pin is in the Second bank
 80008e2:	88fb      	ldrh	r3, [r7, #6]
 80008e4:	f240 1201 	movw	r2, #257	; 0x101
 80008e8:	4293      	cmp	r3, r2
 80008ea:	d01b      	beq.n	8000924 <remotepinMode+0x90>
 80008ec:	88fb      	ldrh	r3, [r7, #6]
 80008ee:	f5b3 7f81 	cmp.w	r3, #258	; 0x102
 80008f2:	d017      	beq.n	8000924 <remotepinMode+0x90>
 80008f4:	88fb      	ldrh	r3, [r7, #6]
 80008f6:	f5b3 7f82 	cmp.w	r3, #260	; 0x104
 80008fa:	d013      	beq.n	8000924 <remotepinMode+0x90>
 80008fc:	88fb      	ldrh	r3, [r7, #6]
 80008fe:	f5b3 7f84 	cmp.w	r3, #264	; 0x108
 8000902:	d00f      	beq.n	8000924 <remotepinMode+0x90>
 8000904:	88fb      	ldrh	r3, [r7, #6]
 8000906:	f5b3 7f88 	cmp.w	r3, #272	; 0x110
 800090a:	d00b      	beq.n	8000924 <remotepinMode+0x90>
 800090c:	88fb      	ldrh	r3, [r7, #6]
 800090e:	f5b3 7f90 	cmp.w	r3, #288	; 0x120
 8000912:	d007      	beq.n	8000924 <remotepinMode+0x90>
 8000914:	88fb      	ldrh	r3, [r7, #6]
 8000916:	f5b3 7fa0 	cmp.w	r3, #320	; 0x140
 800091a:	d003      	beq.n	8000924 <remotepinMode+0x90>
 800091c:	88fb      	ldrh	r3, [r7, #6]
 800091e:	f5b3 7fc0 	cmp.w	r3, #384	; 0x180
 8000922:	d106      	bne.n	8000932 <remotepinMode+0x9e>
	{
		PCAL6524_CONFIGURATION = PCAL6524_CONFIGURATION_PORT_1;
 8000924:	230d      	movs	r3, #13
 8000926:	73fb      	strb	r3, [r7, #15]
		PCAL6524_RESISTOR_PULL_ENABLE = PCAL6524_RESISTOR_PULL_ENABLE_PORT_1;
 8000928:	234d      	movs	r3, #77	; 0x4d
 800092a:	73bb      	strb	r3, [r7, #14]
		PCAL6524_RESISTOR_PULL_SELECTION = PCAL6524_RESISTOR_PULL_SELECTION_PORT_1;
 800092c:	2351      	movs	r3, #81	; 0x51
 800092e:	737b      	strb	r3, [r7, #13]
 8000930:	e027      	b.n	8000982 <remotepinMode+0xee>
	}
	else if (pin == GPIOB0 || pin == GPIOB1 || pin == GPIOB2 || pin == TL_PD1 || pin == TL_PD2 || pin == TL_PD3 || pin ==TL_PD4 || pin == TL_PD5) //If pin is in the Third bank
 8000932:	88fb      	ldrh	r3, [r7, #6]
 8000934:	f240 2201 	movw	r2, #513	; 0x201
 8000938:	4293      	cmp	r3, r2
 800093a:	d01c      	beq.n	8000976 <remotepinMode+0xe2>
 800093c:	88fb      	ldrh	r3, [r7, #6]
 800093e:	f240 2202 	movw	r2, #514	; 0x202
 8000942:	4293      	cmp	r3, r2
 8000944:	d017      	beq.n	8000976 <remotepinMode+0xe2>
 8000946:	88fb      	ldrh	r3, [r7, #6]
 8000948:	f5b3 7f01 	cmp.w	r3, #516	; 0x204
 800094c:	d013      	beq.n	8000976 <remotepinMode+0xe2>
 800094e:	88fb      	ldrh	r3, [r7, #6]
 8000950:	f5b3 7f02 	cmp.w	r3, #520	; 0x208
 8000954:	d00f      	beq.n	8000976 <remotepinMode+0xe2>
 8000956:	88fb      	ldrh	r3, [r7, #6]
 8000958:	f5b3 7f04 	cmp.w	r3, #528	; 0x210
 800095c:	d00b      	beq.n	8000976 <remotepinMode+0xe2>
 800095e:	88fb      	ldrh	r3, [r7, #6]
 8000960:	f5b3 7f08 	cmp.w	r3, #544	; 0x220
 8000964:	d007      	beq.n	8000976 <remotepinMode+0xe2>
 8000966:	88fb      	ldrh	r3, [r7, #6]
 8000968:	f5b3 7f10 	cmp.w	r3, #576	; 0x240
 800096c:	d003      	beq.n	8000976 <remotepinMode+0xe2>
 800096e:	88fb      	ldrh	r3, [r7, #6]
 8000970:	f5b3 7f20 	cmp.w	r3, #640	; 0x280
 8000974:	d105      	bne.n	8000982 <remotepinMode+0xee>
	{
		PCAL6524_CONFIGURATION = PCAL6524_CONFIGURATION_PORT_2;
 8000976:	230e      	movs	r3, #14
 8000978:	73fb      	strb	r3, [r7, #15]
		PCAL6524_RESISTOR_PULL_ENABLE = PCAL6524_RESISTOR_PULL_ENABLE_PORT_2;
 800097a:	234e      	movs	r3, #78	; 0x4e
 800097c:	73bb      	strb	r3, [r7, #14]
		PCAL6524_RESISTOR_PULL_SELECTION = PCAL6524_RESISTOR_PULL_SELECTION_PORT_2;
 800097e:	2352      	movs	r3, #82	; 0x52
 8000980:	737b      	strb	r3, [r7, #13]
	}

    HAL_I2C_Mem_Read(&IO_I2C, PCAL6524_ADDRESS_0, PCAL6524_CONFIGURATION, 1, &config_data, 1, 100);
 8000982:	7bfb      	ldrb	r3, [r7, #15]
 8000984:	b29a      	uxth	r2, r3
 8000986:	2364      	movs	r3, #100	; 0x64
 8000988:	9302      	str	r3, [sp, #8]
 800098a:	2301      	movs	r3, #1
 800098c:	9301      	str	r3, [sp, #4]
 800098e:	f107 030c 	add.w	r3, r7, #12
 8000992:	9300      	str	r3, [sp, #0]
 8000994:	2301      	movs	r3, #1
 8000996:	2145      	movs	r1, #69	; 0x45
 8000998:	4854      	ldr	r0, [pc, #336]	; (8000aec <remotepinMode+0x258>)
 800099a:	f001 fbe9 	bl	8002170 <HAL_I2C_Mem_Read>
  //  HAL_I2C_Mem_Read(&IO_I2C, PCAL6524_ADDRESS_0, PCAL6524_RESISTOR_PULL_ENABLE, 1, &pullup_config_data, 1, 100);
   //
  //  HAL_I2C_Mem_Read(&IO_I2C, PCAL6524_ADDRESS_0, PCAL6524_RESISTOR_PULL_SELECTION, 1, &pullup_value_data, 1, 100);


	if (mode == INPUT)
 800099e:	797b      	ldrb	r3, [r7, #5]
 80009a0:	2b01      	cmp	r3, #1
 80009a2:	d106      	bne.n	80009b2 <remotepinMode+0x11e>
	{
		config_data = config_data | (uint8_t)pin;
 80009a4:	88fb      	ldrh	r3, [r7, #6]
 80009a6:	b2da      	uxtb	r2, r3
 80009a8:	7b3b      	ldrb	r3, [r7, #12]
 80009aa:	4313      	orrs	r3, r2
 80009ac:	b2db      	uxtb	r3, r3
 80009ae:	733b      	strb	r3, [r7, #12]

	//	HAL_I2C_Mem_Write(&IO_I2C, PCAL6524_ADDRESS_0, PCAL6524_CONFIGURATION, 1, &config_data, 1, 100);
		return;
 80009b0:	e098      	b.n	8000ae4 <remotepinMode+0x250>
	}
	else if (mode == OUTPUT)
 80009b2:	797b      	ldrb	r3, [r7, #5]
 80009b4:	2b00      	cmp	r3, #0
 80009b6:	d114      	bne.n	80009e2 <remotepinMode+0x14e>
	{
		config_data = config_data ^ (uint8_t)pin;
 80009b8:	88fb      	ldrh	r3, [r7, #6]
 80009ba:	b2da      	uxtb	r2, r3
 80009bc:	7b3b      	ldrb	r3, [r7, #12]
 80009be:	4053      	eors	r3, r2
 80009c0:	b2db      	uxtb	r3, r3
 80009c2:	733b      	strb	r3, [r7, #12]
	//	printf("PCAL6524_CONFIGURATION  2 =%d\n\r",config_data);
	    HAL_I2C_Mem_Write(&IO_I2C, PCAL6524_ADDRESS_0, PCAL6524_CONFIGURATION, 1, &config_data, 1, 100);
 80009c4:	7bfb      	ldrb	r3, [r7, #15]
 80009c6:	b29a      	uxth	r2, r3
 80009c8:	2364      	movs	r3, #100	; 0x64
 80009ca:	9302      	str	r3, [sp, #8]
 80009cc:	2301      	movs	r3, #1
 80009ce:	9301      	str	r3, [sp, #4]
 80009d0:	f107 030c 	add.w	r3, r7, #12
 80009d4:	9300      	str	r3, [sp, #0]
 80009d6:	2301      	movs	r3, #1
 80009d8:	2145      	movs	r1, #69	; 0x45
 80009da:	4844      	ldr	r0, [pc, #272]	; (8000aec <remotepinMode+0x258>)
 80009dc:	f001 fab4 	bl	8001f48 <HAL_I2C_Mem_Write>
//	    printf("Memory write =%d\n\r",config_data);
		return;
 80009e0:	e080      	b.n	8000ae4 <remotepinMode+0x250>
	}
	else if (mode == INPUT_PULLUP)
 80009e2:	797b      	ldrb	r3, [r7, #5]
 80009e4:	2b03      	cmp	r3, #3
 80009e6:	d13c      	bne.n	8000a62 <remotepinMode+0x1ce>
	{
		//Combine the current configuration with the request pin to ensure that only that pin has chaned
		config_data = config_data | (uint8_t)pin;
 80009e8:	88fb      	ldrh	r3, [r7, #6]
 80009ea:	b2da      	uxtb	r2, r3
 80009ec:	7b3b      	ldrb	r3, [r7, #12]
 80009ee:	4313      	orrs	r3, r2
 80009f0:	b2db      	uxtb	r3, r3
 80009f2:	733b      	strb	r3, [r7, #12]
		//Write the new configuration back to the Resistor
		//writeRegister(m_i2cAddress,PCAL6524_CONFIGURATION,config_data);//Write the new configuration back to the Resistor
		HAL_I2C_Mem_Write(&IO_I2C, PCAL6524_ADDRESS_0, PCAL6524_CONFIGURATION, 1, &config_data, 1, 100);
 80009f4:	7bfb      	ldrb	r3, [r7, #15]
 80009f6:	b29a      	uxth	r2, r3
 80009f8:	2364      	movs	r3, #100	; 0x64
 80009fa:	9302      	str	r3, [sp, #8]
 80009fc:	2301      	movs	r3, #1
 80009fe:	9301      	str	r3, [sp, #4]
 8000a00:	f107 030c 	add.w	r3, r7, #12
 8000a04:	9300      	str	r3, [sp, #0]
 8000a06:	2301      	movs	r3, #1
 8000a08:	2145      	movs	r1, #69	; 0x45
 8000a0a:	4838      	ldr	r0, [pc, #224]	; (8000aec <remotepinMode+0x258>)
 8000a0c:	f001 fa9c 	bl	8001f48 <HAL_I2C_Mem_Write>
		//This is used to configure the pullup/down resistor are actived and configured correctly
		pullup_config_data = pullup_config_data | (uint8_t)pin;
 8000a10:	88fb      	ldrh	r3, [r7, #6]
 8000a12:	b2da      	uxtb	r2, r3
 8000a14:	7afb      	ldrb	r3, [r7, #11]
 8000a16:	4313      	orrs	r3, r2
 8000a18:	b2db      	uxtb	r3, r3
 8000a1a:	72fb      	strb	r3, [r7, #11]
	//	writeRegister(m_i2cAddress,PCAL6524_RESISTOR_PULL_ENABLE,pullup_config_data);
		HAL_I2C_Mem_Write(&IO_I2C, PCAL6524_ADDRESS_0, PCAL6524_RESISTOR_PULL_ENABLE, 1, &pullup_config_data, 1, 100);
 8000a1c:	7bbb      	ldrb	r3, [r7, #14]
 8000a1e:	b29a      	uxth	r2, r3
 8000a20:	2364      	movs	r3, #100	; 0x64
 8000a22:	9302      	str	r3, [sp, #8]
 8000a24:	2301      	movs	r3, #1
 8000a26:	9301      	str	r3, [sp, #4]
 8000a28:	f107 030b 	add.w	r3, r7, #11
 8000a2c:	9300      	str	r3, [sp, #0]
 8000a2e:	2301      	movs	r3, #1
 8000a30:	2145      	movs	r1, #69	; 0x45
 8000a32:	482e      	ldr	r0, [pc, #184]	; (8000aec <remotepinMode+0x258>)
 8000a34:	f001 fa88 	bl	8001f48 <HAL_I2C_Mem_Write>
		pullup_value_data = pullup_value_data | (uint8_t)pin;
 8000a38:	88fb      	ldrh	r3, [r7, #6]
 8000a3a:	b2da      	uxtb	r2, r3
 8000a3c:	7abb      	ldrb	r3, [r7, #10]
 8000a3e:	4313      	orrs	r3, r2
 8000a40:	b2db      	uxtb	r3, r3
 8000a42:	72bb      	strb	r3, [r7, #10]
		HAL_I2C_Mem_Write(&IO_I2C, PCAL6524_ADDRESS_0,PCAL6524_RESISTOR_PULL_SELECTION, 1,&pullup_value_data, 1, 100);
 8000a44:	7b7b      	ldrb	r3, [r7, #13]
 8000a46:	b29a      	uxth	r2, r3
 8000a48:	2364      	movs	r3, #100	; 0x64
 8000a4a:	9302      	str	r3, [sp, #8]
 8000a4c:	2301      	movs	r3, #1
 8000a4e:	9301      	str	r3, [sp, #4]
 8000a50:	f107 030a 	add.w	r3, r7, #10
 8000a54:	9300      	str	r3, [sp, #0]
 8000a56:	2301      	movs	r3, #1
 8000a58:	2145      	movs	r1, #69	; 0x45
 8000a5a:	4824      	ldr	r0, [pc, #144]	; (8000aec <remotepinMode+0x258>)
 8000a5c:	f001 fa74 	bl	8001f48 <HAL_I2C_Mem_Write>
	//	writeRegister(m_i2cAddress,PCAL6524_RESISTOR_PULL_SELECTION,pullup_value_data);
		return;
 8000a60:	e040      	b.n	8000ae4 <remotepinMode+0x250>
	}
	else if (mode == INPUT_PULLDOWN)
 8000a62:	797b      	ldrb	r3, [r7, #5]
 8000a64:	2b02      	cmp	r3, #2
 8000a66:	d13c      	bne.n	8000ae2 <remotepinMode+0x24e>
	{
		//Combine the current configuration with the request pin to ensure that only that pin has chaned
		config_data = config_data | pin;
 8000a68:	88fb      	ldrh	r3, [r7, #6]
 8000a6a:	b2da      	uxtb	r2, r3
 8000a6c:	7b3b      	ldrb	r3, [r7, #12]
 8000a6e:	4313      	orrs	r3, r2
 8000a70:	b2db      	uxtb	r3, r3
 8000a72:	733b      	strb	r3, [r7, #12]
		//Write the new configuration back to the Resistor
	//	writeRegister(m_i2cAddress,PCAL6524_CONFIGURATION,config_data);//Write the new configuration back to the Resistor
		HAL_I2C_Mem_Write(&IO_I2C, PCAL6524_ADDRESS_0, PCAL6524_CONFIGURATION, 1, &config_data, 1, 100);
 8000a74:	7bfb      	ldrb	r3, [r7, #15]
 8000a76:	b29a      	uxth	r2, r3
 8000a78:	2364      	movs	r3, #100	; 0x64
 8000a7a:	9302      	str	r3, [sp, #8]
 8000a7c:	2301      	movs	r3, #1
 8000a7e:	9301      	str	r3, [sp, #4]
 8000a80:	f107 030c 	add.w	r3, r7, #12
 8000a84:	9300      	str	r3, [sp, #0]
 8000a86:	2301      	movs	r3, #1
 8000a88:	2145      	movs	r1, #69	; 0x45
 8000a8a:	4818      	ldr	r0, [pc, #96]	; (8000aec <remotepinMode+0x258>)
 8000a8c:	f001 fa5c 	bl	8001f48 <HAL_I2C_Mem_Write>
		//This is used to configure the pullup/down resistor are actived and configured correctly
		pullup_config_data = pullup_config_data | (uint8_t)pin;
 8000a90:	88fb      	ldrh	r3, [r7, #6]
 8000a92:	b2da      	uxtb	r2, r3
 8000a94:	7afb      	ldrb	r3, [r7, #11]
 8000a96:	4313      	orrs	r3, r2
 8000a98:	b2db      	uxtb	r3, r3
 8000a9a:	72fb      	strb	r3, [r7, #11]
	//	writeRegister(m_i2cAddress,PCAL6524_RESISTOR_PULL_ENABLE,pullup_config_data);
		HAL_I2C_Mem_Write(&IO_I2C, PCAL6524_ADDRESS_0, PCAL6524_RESISTOR_PULL_ENABLE, 1, &pullup_config_data, 1, 100);
 8000a9c:	7bbb      	ldrb	r3, [r7, #14]
 8000a9e:	b29a      	uxth	r2, r3
 8000aa0:	2364      	movs	r3, #100	; 0x64
 8000aa2:	9302      	str	r3, [sp, #8]
 8000aa4:	2301      	movs	r3, #1
 8000aa6:	9301      	str	r3, [sp, #4]
 8000aa8:	f107 030b 	add.w	r3, r7, #11
 8000aac:	9300      	str	r3, [sp, #0]
 8000aae:	2301      	movs	r3, #1
 8000ab0:	2145      	movs	r1, #69	; 0x45
 8000ab2:	480e      	ldr	r0, [pc, #56]	; (8000aec <remotepinMode+0x258>)
 8000ab4:	f001 fa48 	bl	8001f48 <HAL_I2C_Mem_Write>
		pullup_value_data = pullup_value_data ^ (uint8_t)pin;
 8000ab8:	88fb      	ldrh	r3, [r7, #6]
 8000aba:	b2da      	uxtb	r2, r3
 8000abc:	7abb      	ldrb	r3, [r7, #10]
 8000abe:	4053      	eors	r3, r2
 8000ac0:	b2db      	uxtb	r3, r3
 8000ac2:	72bb      	strb	r3, [r7, #10]
	//	writeRegister(m_i2cAddress,PCAL6524_RESISTOR_PULL_SELECTION,pullup_config_data);
		HAL_I2C_Mem_Write(&IO_I2C, PCAL6524_ADDRESS_0, PCAL6524_RESISTOR_PULL_SELECTION, 1, &pullup_value_data, 1, 100);
 8000ac4:	7b7b      	ldrb	r3, [r7, #13]
 8000ac6:	b29a      	uxth	r2, r3
 8000ac8:	2364      	movs	r3, #100	; 0x64
 8000aca:	9302      	str	r3, [sp, #8]
 8000acc:	2301      	movs	r3, #1
 8000ace:	9301      	str	r3, [sp, #4]
 8000ad0:	f107 030a 	add.w	r3, r7, #10
 8000ad4:	9300      	str	r3, [sp, #0]
 8000ad6:	2301      	movs	r3, #1
 8000ad8:	2145      	movs	r1, #69	; 0x45
 8000ada:	4804      	ldr	r0, [pc, #16]	; (8000aec <remotepinMode+0x258>)
 8000adc:	f001 fa34 	bl	8001f48 <HAL_I2C_Mem_Write>
		return;
 8000ae0:	e000      	b.n	8000ae4 <remotepinMode+0x250>
	}
	return;
 8000ae2:	bf00      	nop
	}
 8000ae4:	3710      	adds	r7, #16
 8000ae6:	46bd      	mov	sp, r7
 8000ae8:	bd80      	pop	{r7, pc}
 8000aea:	bf00      	nop
 8000aec:	24000144 	.word	0x24000144

08000af0 <remotedigitalWrite>:
  * @param uint16_t pin-Select the pin,
  *        uint8_t mode-Set the port mode as HIGH/LOW
  * @retval None

**************************************************************************/
void remotedigitalWrite(uint16_t pin, uint8_t mode){
 8000af0:	b580      	push	{r7, lr}
 8000af2:	b088      	sub	sp, #32
 8000af4:	af04      	add	r7, sp, #16
 8000af6:	4603      	mov	r3, r0
 8000af8:	460a      	mov	r2, r1
 8000afa:	80fb      	strh	r3, [r7, #6]
 8000afc:	4613      	mov	r3, r2
 8000afe:	717b      	strb	r3, [r7, #5]
	uint8_t output_reg_value;
	uint8_t PCAL6524_OUTPUT;

	//Determine wich bank of pins the requested pin is in
	if (pin == P_EN_P15v || pin == P_EN_N15v || pin == P_EN_N5v || pin == GPIO1_FAN || pin ==DAC1_RST || pin == DAC2_RST || pin ==DS_PD2 ||pin == DS_PD1)
 8000b00:	88fb      	ldrh	r3, [r7, #6]
 8000b02:	2b01      	cmp	r3, #1
 8000b04:	d014      	beq.n	8000b30 <remotedigitalWrite+0x40>
 8000b06:	88fb      	ldrh	r3, [r7, #6]
 8000b08:	2b02      	cmp	r3, #2
 8000b0a:	d011      	beq.n	8000b30 <remotedigitalWrite+0x40>
 8000b0c:	88fb      	ldrh	r3, [r7, #6]
 8000b0e:	2b04      	cmp	r3, #4
 8000b10:	d00e      	beq.n	8000b30 <remotedigitalWrite+0x40>
 8000b12:	88fb      	ldrh	r3, [r7, #6]
 8000b14:	2b08      	cmp	r3, #8
 8000b16:	d00b      	beq.n	8000b30 <remotedigitalWrite+0x40>
 8000b18:	88fb      	ldrh	r3, [r7, #6]
 8000b1a:	2b10      	cmp	r3, #16
 8000b1c:	d008      	beq.n	8000b30 <remotedigitalWrite+0x40>
 8000b1e:	88fb      	ldrh	r3, [r7, #6]
 8000b20:	2b20      	cmp	r3, #32
 8000b22:	d005      	beq.n	8000b30 <remotedigitalWrite+0x40>
 8000b24:	88fb      	ldrh	r3, [r7, #6]
 8000b26:	2b40      	cmp	r3, #64	; 0x40
 8000b28:	d002      	beq.n	8000b30 <remotedigitalWrite+0x40>
 8000b2a:	88fb      	ldrh	r3, [r7, #6]
 8000b2c:	2b80      	cmp	r3, #128	; 0x80
 8000b2e:	d102      	bne.n	8000b36 <remotedigitalWrite+0x46>
	{
		PCAL6524_OUTPUT = PCAL6524_OUTPUT_PORT_0;
 8000b30:	2304      	movs	r3, #4
 8000b32:	73fb      	strb	r3, [r7, #15]
 8000b34:	e047      	b.n	8000bc6 <remotedigitalWrite+0xd6>
	}
	else if (pin == GPIOA0 || pin == GPIOA1 || pin == GPIOA2 || pin == GPIOA3 ||pin == CH1_PD1 || pin == CH2_PD1 || pin == CH3_PD1|| pin == CH4_PD1)
 8000b36:	88fb      	ldrh	r3, [r7, #6]
 8000b38:	f240 1201 	movw	r2, #257	; 0x101
 8000b3c:	4293      	cmp	r3, r2
 8000b3e:	d01b      	beq.n	8000b78 <remotedigitalWrite+0x88>
 8000b40:	88fb      	ldrh	r3, [r7, #6]
 8000b42:	f5b3 7f81 	cmp.w	r3, #258	; 0x102
 8000b46:	d017      	beq.n	8000b78 <remotedigitalWrite+0x88>
 8000b48:	88fb      	ldrh	r3, [r7, #6]
 8000b4a:	f5b3 7f82 	cmp.w	r3, #260	; 0x104
 8000b4e:	d013      	beq.n	8000b78 <remotedigitalWrite+0x88>
 8000b50:	88fb      	ldrh	r3, [r7, #6]
 8000b52:	f5b3 7f84 	cmp.w	r3, #264	; 0x108
 8000b56:	d00f      	beq.n	8000b78 <remotedigitalWrite+0x88>
 8000b58:	88fb      	ldrh	r3, [r7, #6]
 8000b5a:	f5b3 7f88 	cmp.w	r3, #272	; 0x110
 8000b5e:	d00b      	beq.n	8000b78 <remotedigitalWrite+0x88>
 8000b60:	88fb      	ldrh	r3, [r7, #6]
 8000b62:	f5b3 7f90 	cmp.w	r3, #288	; 0x120
 8000b66:	d007      	beq.n	8000b78 <remotedigitalWrite+0x88>
 8000b68:	88fb      	ldrh	r3, [r7, #6]
 8000b6a:	f5b3 7fa0 	cmp.w	r3, #320	; 0x140
 8000b6e:	d003      	beq.n	8000b78 <remotedigitalWrite+0x88>
 8000b70:	88fb      	ldrh	r3, [r7, #6]
 8000b72:	f5b3 7fc0 	cmp.w	r3, #384	; 0x180
 8000b76:	d102      	bne.n	8000b7e <remotedigitalWrite+0x8e>
	{
		PCAL6524_OUTPUT = PCAL6524_OUTPUT_PORT_1;
 8000b78:	2305      	movs	r3, #5
 8000b7a:	73fb      	strb	r3, [r7, #15]
 8000b7c:	e023      	b.n	8000bc6 <remotedigitalWrite+0xd6>
	}
	else if (pin == GPIOB0 || pin == GPIOB1 || pin == GPIOB2 || pin == TL_PD1 || pin == TL_PD2 || pin == TL_PD3 || pin ==TL_PD4 || pin == TL_PD5)
 8000b7e:	88fb      	ldrh	r3, [r7, #6]
 8000b80:	f240 2201 	movw	r2, #513	; 0x201
 8000b84:	4293      	cmp	r3, r2
 8000b86:	d01c      	beq.n	8000bc2 <remotedigitalWrite+0xd2>
 8000b88:	88fb      	ldrh	r3, [r7, #6]
 8000b8a:	f240 2202 	movw	r2, #514	; 0x202
 8000b8e:	4293      	cmp	r3, r2
 8000b90:	d017      	beq.n	8000bc2 <remotedigitalWrite+0xd2>
 8000b92:	88fb      	ldrh	r3, [r7, #6]
 8000b94:	f5b3 7f01 	cmp.w	r3, #516	; 0x204
 8000b98:	d013      	beq.n	8000bc2 <remotedigitalWrite+0xd2>
 8000b9a:	88fb      	ldrh	r3, [r7, #6]
 8000b9c:	f5b3 7f02 	cmp.w	r3, #520	; 0x208
 8000ba0:	d00f      	beq.n	8000bc2 <remotedigitalWrite+0xd2>
 8000ba2:	88fb      	ldrh	r3, [r7, #6]
 8000ba4:	f5b3 7f04 	cmp.w	r3, #528	; 0x210
 8000ba8:	d00b      	beq.n	8000bc2 <remotedigitalWrite+0xd2>
 8000baa:	88fb      	ldrh	r3, [r7, #6]
 8000bac:	f5b3 7f08 	cmp.w	r3, #544	; 0x220
 8000bb0:	d007      	beq.n	8000bc2 <remotedigitalWrite+0xd2>
 8000bb2:	88fb      	ldrh	r3, [r7, #6]
 8000bb4:	f5b3 7f10 	cmp.w	r3, #576	; 0x240
 8000bb8:	d003      	beq.n	8000bc2 <remotedigitalWrite+0xd2>
 8000bba:	88fb      	ldrh	r3, [r7, #6]
 8000bbc:	f5b3 7f20 	cmp.w	r3, #640	; 0x280
 8000bc0:	d101      	bne.n	8000bc6 <remotedigitalWrite+0xd6>
	{
		PCAL6524_OUTPUT = PCAL6524_OUTPUT_PORT_2;
 8000bc2:	2306      	movs	r3, #6
 8000bc4:	73fb      	strb	r3, [r7, #15]
	}

	// Read the currnt Value of out the ouput register
//	output_reg_value = readRegister(m_i2cAddress,PCAL6524_OUTPUT);
	HAL_I2C_Mem_Read(&IO_I2C, PCAL6524_ADDRESS_0, PCAL6524_OUTPUT, 1, &output_reg_value, 1, 100);
 8000bc6:	7bfb      	ldrb	r3, [r7, #15]
 8000bc8:	b29a      	uxth	r2, r3
 8000bca:	2364      	movs	r3, #100	; 0x64
 8000bcc:	9302      	str	r3, [sp, #8]
 8000bce:	2301      	movs	r3, #1
 8000bd0:	9301      	str	r3, [sp, #4]
 8000bd2:	f107 030e 	add.w	r3, r7, #14
 8000bd6:	9300      	str	r3, [sp, #0]
 8000bd8:	2301      	movs	r3, #1
 8000bda:	2145      	movs	r1, #69	; 0x45
 8000bdc:	481d      	ldr	r0, [pc, #116]	; (8000c54 <remotedigitalWrite+0x164>)
 8000bde:	f001 fac7 	bl	8002170 <HAL_I2C_Mem_Read>
//	printf("Read of pin =  %d\n\r",output_reg_value);
	//Deterime if Pin is being asked to go hi or to go low and set only that pins value;
	if (mode == HIGH)
 8000be2:	797b      	ldrb	r3, [r7, #5]
 8000be4:	2b01      	cmp	r3, #1
 8000be6:	d114      	bne.n	8000c12 <remotedigitalWrite+0x122>
	{
		output_reg_value = output_reg_value | (uint8_t)pin;
 8000be8:	88fb      	ldrh	r3, [r7, #6]
 8000bea:	b2da      	uxtb	r2, r3
 8000bec:	7bbb      	ldrb	r3, [r7, #14]
 8000bee:	4313      	orrs	r3, r2
 8000bf0:	b2db      	uxtb	r3, r3
 8000bf2:	73bb      	strb	r3, [r7, #14]
		//writeRegister(m_i2cAddress,PCAL6524_OUTPUT,output_reg_value);
		HAL_I2C_Mem_Write(&IO_I2C, PCAL6524_ADDRESS_0, PCAL6524_OUTPUT, 1, &output_reg_value, 1, 100);
 8000bf4:	7bfb      	ldrb	r3, [r7, #15]
 8000bf6:	b29a      	uxth	r2, r3
 8000bf8:	2364      	movs	r3, #100	; 0x64
 8000bfa:	9302      	str	r3, [sp, #8]
 8000bfc:	2301      	movs	r3, #1
 8000bfe:	9301      	str	r3, [sp, #4]
 8000c00:	f107 030e 	add.w	r3, r7, #14
 8000c04:	9300      	str	r3, [sp, #0]
 8000c06:	2301      	movs	r3, #1
 8000c08:	2145      	movs	r1, #69	; 0x45
 8000c0a:	4812      	ldr	r0, [pc, #72]	; (8000c54 <remotedigitalWrite+0x164>)
 8000c0c:	f001 f99c 	bl	8001f48 <HAL_I2C_Mem_Write>
	//	printf("HIGH pin =%d\n\r",output_reg_value);
		return;
 8000c10:	e01c      	b.n	8000c4c <remotedigitalWrite+0x15c>
	}
	else if (mode == LOW){
 8000c12:	797b      	ldrb	r3, [r7, #5]
 8000c14:	2b00      	cmp	r3, #0
 8000c16:	d118      	bne.n	8000c4a <remotedigitalWrite+0x15a>
		output_reg_value = output_reg_value & ~((uint8_t)pin);
 8000c18:	88fb      	ldrh	r3, [r7, #6]
 8000c1a:	b25b      	sxtb	r3, r3
 8000c1c:	43db      	mvns	r3, r3
 8000c1e:	b25a      	sxtb	r2, r3
 8000c20:	7bbb      	ldrb	r3, [r7, #14]
 8000c22:	b25b      	sxtb	r3, r3
 8000c24:	4013      	ands	r3, r2
 8000c26:	b25b      	sxtb	r3, r3
 8000c28:	b2db      	uxtb	r3, r3
 8000c2a:	73bb      	strb	r3, [r7, #14]
				//writeRegister(m_i2cAddress,PCAL6524_OUTPUT,output_reg_value);
		HAL_I2C_Mem_Write(&IO_I2C, PCAL6524_ADDRESS_0, PCAL6524_OUTPUT, 1, &output_reg_value, 1, 100);
 8000c2c:	7bfb      	ldrb	r3, [r7, #15]
 8000c2e:	b29a      	uxth	r2, r3
 8000c30:	2364      	movs	r3, #100	; 0x64
 8000c32:	9302      	str	r3, [sp, #8]
 8000c34:	2301      	movs	r3, #1
 8000c36:	9301      	str	r3, [sp, #4]
 8000c38:	f107 030e 	add.w	r3, r7, #14
 8000c3c:	9300      	str	r3, [sp, #0]
 8000c3e:	2301      	movs	r3, #1
 8000c40:	2145      	movs	r1, #69	; 0x45
 8000c42:	4804      	ldr	r0, [pc, #16]	; (8000c54 <remotedigitalWrite+0x164>)
 8000c44:	f001 f980 	bl	8001f48 <HAL_I2C_Mem_Write>
	//	printf("LOW pin =%d\n\r",output_reg_value);

		return;
 8000c48:	e000      	b.n	8000c4c <remotedigitalWrite+0x15c>
	}
	return;
 8000c4a:	bf00      	nop
}
 8000c4c:	3710      	adds	r7, #16
 8000c4e:	46bd      	mov	sp, r7
 8000c50:	bd80      	pop	{r7, pc}
 8000c52:	bf00      	nop
 8000c54:	24000144 	.word	0x24000144

08000c58 <main>:
/**
 * @brief  The application entry point.
 * @retval int
 */
int main(void)
{
 8000c58:	b580      	push	{r7, lr}
 8000c5a:	b088      	sub	sp, #32
 8000c5c:	af00      	add	r7, sp, #0
	int32_t timeout;
	/* USER CODE END Boot_Mode_Sequence_0 */

	/* USER CODE BEGIN Boot_Mode_Sequence_1 */
	/* Wait until CPU2 boots and enters in stop mode or timeout*/
	timeout = 0xFFFF;
 8000c5e:	f64f 73ff 	movw	r3, #65535	; 0xffff
 8000c62:	61fb      	str	r3, [r7, #28]
	while((__HAL_RCC_GET_FLAG(RCC_FLAG_D2CKRDY) != RESET) && (timeout-- > 0));
 8000c64:	bf00      	nop
 8000c66:	4b5d      	ldr	r3, [pc, #372]	; (8000ddc <main+0x184>)
 8000c68:	681b      	ldr	r3, [r3, #0]
 8000c6a:	f403 4300 	and.w	r3, r3, #32768	; 0x8000
 8000c6e:	2b00      	cmp	r3, #0
 8000c70:	d004      	beq.n	8000c7c <main+0x24>
 8000c72:	69fb      	ldr	r3, [r7, #28]
 8000c74:	1e5a      	subs	r2, r3, #1
 8000c76:	61fa      	str	r2, [r7, #28]
 8000c78:	2b00      	cmp	r3, #0
 8000c7a:	dcf4      	bgt.n	8000c66 <main+0xe>
	if ( timeout < 0 )
 8000c7c:	69fb      	ldr	r3, [r7, #28]
 8000c7e:	2b00      	cmp	r3, #0
 8000c80:	da01      	bge.n	8000c86 <main+0x2e>
	{
		Error_Handler();
 8000c82:	f000 fac5 	bl	8001210 <Error_Handler>
	}
	/* USER CODE END Boot_Mode_Sequence_1 */
	/* MCU Configuration--------------------------------------------------------*/

	/* Reset of all peripherals, Initializes the Flash interface and the Systick. */
	HAL_Init();
 8000c86:	f000 fd31 	bl	80016ec <HAL_Init>
	/* USER CODE BEGIN Init */

	/* USER CODE END Init */

	/* Configure the system clock */
	SystemClock_Config();
 8000c8a:	f000 f8b5 	bl	8000df8 <SystemClock_Config>
	/* USER CODE BEGIN Boot_Mode_Sequence_2 */
	/* When system initialization is finished, Cortex-M7 will release Cortex-M4 by means of
HSEM notification */
	/*HW semaphore Clock enable*/
	__HAL_RCC_HSEM_CLK_ENABLE();
 8000c8e:	4b53      	ldr	r3, [pc, #332]	; (8000ddc <main+0x184>)
 8000c90:	f8d3 30e0 	ldr.w	r3, [r3, #224]	; 0xe0
 8000c94:	4a51      	ldr	r2, [pc, #324]	; (8000ddc <main+0x184>)
 8000c96:	f043 7300 	orr.w	r3, r3, #33554432	; 0x2000000
 8000c9a:	f8c2 30e0 	str.w	r3, [r2, #224]	; 0xe0
 8000c9e:	4b4f      	ldr	r3, [pc, #316]	; (8000ddc <main+0x184>)
 8000ca0:	f8d3 30e0 	ldr.w	r3, [r3, #224]	; 0xe0
 8000ca4:	f003 7300 	and.w	r3, r3, #33554432	; 0x2000000
 8000ca8:	607b      	str	r3, [r7, #4]
 8000caa:	687b      	ldr	r3, [r7, #4]
	/*Take HSEM */
	HAL_HSEM_FastTake(HSEM_ID_0);
 8000cac:	2000      	movs	r0, #0
 8000cae:	f001 f88d 	bl	8001dcc <HAL_HSEM_FastTake>
	/*Release HSEM in order to notify the CPU2(CM4)*/
	HAL_HSEM_Release(HSEM_ID_0,0);
 8000cb2:	2100      	movs	r1, #0
 8000cb4:	2000      	movs	r0, #0
 8000cb6:	f001 f8a3 	bl	8001e00 <HAL_HSEM_Release>
	/* wait until CPU2 wakes up from stop mode */
	timeout = 0xFFFF;
 8000cba:	f64f 73ff 	movw	r3, #65535	; 0xffff
 8000cbe:	61fb      	str	r3, [r7, #28]
	while((__HAL_RCC_GET_FLAG(RCC_FLAG_D2CKRDY) == RESET) && (timeout-- > 0));
 8000cc0:	bf00      	nop
 8000cc2:	4b46      	ldr	r3, [pc, #280]	; (8000ddc <main+0x184>)
 8000cc4:	681b      	ldr	r3, [r3, #0]
 8000cc6:	f403 4300 	and.w	r3, r3, #32768	; 0x8000
 8000cca:	2b00      	cmp	r3, #0
 8000ccc:	d104      	bne.n	8000cd8 <main+0x80>
 8000cce:	69fb      	ldr	r3, [r7, #28]
 8000cd0:	1e5a      	subs	r2, r3, #1
 8000cd2:	61fa      	str	r2, [r7, #28]
 8000cd4:	2b00      	cmp	r3, #0
 8000cd6:	dcf4      	bgt.n	8000cc2 <main+0x6a>
	if ( timeout < 0 )
 8000cd8:	69fb      	ldr	r3, [r7, #28]
 8000cda:	2b00      	cmp	r3, #0
 8000cdc:	da01      	bge.n	8000ce2 <main+0x8a>
	{
		Error_Handler();
 8000cde:	f000 fa97 	bl	8001210 <Error_Handler>
	/* USER CODE BEGIN SysInit */

	/* USER CODE END SysInit */

	/* Initialize all configured peripherals */
	MX_GPIO_Init();
 8000ce2:	f000 f9d5 	bl	8001090 <MX_GPIO_Init>
	MX_I2C3_Init();
 8000ce6:	f000 f8f1 	bl	8000ecc <MX_I2C3_Init>
	MX_SPI4_Init();
 8000cea:	f000 f92f 	bl	8000f4c <MX_SPI4_Init>
	MX_USART2_UART_Init();
 8000cee:	f000 f983 	bl	8000ff8 <MX_USART2_UART_Init>
	/* USER CODE BEGIN 2 */
	int i=0,j=0,k=0;
 8000cf2:	2300      	movs	r3, #0
 8000cf4:	61bb      	str	r3, [r7, #24]
 8000cf6:	2300      	movs	r3, #0
 8000cf8:	617b      	str	r3, [r7, #20]
 8000cfa:	2300      	movs	r3, #0
 8000cfc:	613b      	str	r3, [r7, #16]

	uint16_t Read_value=0;
 8000cfe:	2300      	movs	r3, #0
 8000d00:	81fb      	strh	r3, [r7, #14]

	uint8_t status=0, status1=0,status2=0,status3=0;;
 8000d02:	2300      	movs	r3, #0
 8000d04:	737b      	strb	r3, [r7, #13]
 8000d06:	2300      	movs	r3, #0
 8000d08:	733b      	strb	r3, [r7, #12]
 8000d0a:	2300      	movs	r3, #0
 8000d0c:	72fb      	strb	r3, [r7, #11]
 8000d0e:	2300      	movs	r3, #0
 8000d10:	72bb      	strb	r3, [r7, #10]
	remotepinMode(DAC1_RST,OUTPUT);
 8000d12:	2100      	movs	r1, #0
 8000d14:	2010      	movs	r0, #16
 8000d16:	f7ff fdbd 	bl	8000894 <remotepinMode>

	remotedigitalWrite(DAC1_RST, HIGH);
 8000d1a:	2101      	movs	r1, #1
 8000d1c:	2010      	movs	r0, #16
 8000d1e:	f7ff fee7 	bl	8000af0 <remotedigitalWrite>

	HAL_GPIO_WritePin(GPIOH, Trigger_Pin, GPIO_PIN_SET);
 8000d22:	2201      	movs	r2, #1
 8000d24:	f44f 6180 	mov.w	r1, #1024	; 0x400
 8000d28:	482d      	ldr	r0, [pc, #180]	; (8000de0 <main+0x188>)
 8000d2a:	f001 f835 	bl	8001d98 <HAL_GPIO_WritePin>
	HAL_GPIO_WritePin(CS_GPIO_Port, CS_Pin, GPIO_PIN_SET);
 8000d2e:	2201      	movs	r2, #1
 8000d30:	f44f 6180 	mov.w	r1, #1024	; 0x400
 8000d34:	482b      	ldr	r0, [pc, #172]	; (8000de4 <main+0x18c>)
 8000d36:	f001 f82f 	bl	8001d98 <HAL_GPIO_WritePin>
	HAL_GPIO_WritePin(CS2_GPIO_Port, CS2_Pin, GPIO_PIN_SET);
 8000d3a:	2201      	movs	r2, #1
 8000d3c:	2101      	movs	r1, #1
 8000d3e:	482a      	ldr	r0, [pc, #168]	; (8000de8 <main+0x190>)
 8000d40:	f001 f82a 	bl	8001d98 <HAL_GPIO_WritePin>
	HAL_Delay(10);
 8000d44:	200a      	movs	r0, #10
 8000d46:	f000 fd63 	bl	8001810 <HAL_Delay>



	remotedigitalWrite(DAC1_RST, LOW);
 8000d4a:	2100      	movs	r1, #0
 8000d4c:	2010      	movs	r0, #16
 8000d4e:	f7ff fecf 	bl	8000af0 <remotedigitalWrite>
	HAL_Delay(5);                            //5msec delay for reset
 8000d52:	2005      	movs	r0, #5
 8000d54:	f000 fd5c 	bl	8001810 <HAL_Delay>
	remotedigitalWrite(DAC1_RST, HIGH);
 8000d58:	2101      	movs	r1, #1
 8000d5a:	2010      	movs	r0, #16
 8000d5c:	f7ff fec8 	bl	8000af0 <remotedigitalWrite>

	HAL_Delay(100);
 8000d60:	2064      	movs	r0, #100	; 0x64
 8000d62:	f000 fd55 	bl	8001810 <HAL_Delay>

	for(i=0,j=0,k=0;i<30;i++,j++,k++)
 8000d66:	2300      	movs	r3, #0
 8000d68:	61bb      	str	r3, [r7, #24]
 8000d6a:	2300      	movs	r3, #0
 8000d6c:	617b      	str	r3, [r7, #20]
 8000d6e:	2300      	movs	r3, #0
 8000d70:	613b      	str	r3, [r7, #16]
 8000d72:	e01a      	b.n	8000daa <main+0x152>
	{
		write( SAW_ADD[i],SAW_Val[j],SAW_RDD[k]);
 8000d74:	4a1d      	ldr	r2, [pc, #116]	; (8000dec <main+0x194>)
 8000d76:	69bb      	ldr	r3, [r7, #24]
 8000d78:	f832 0013 	ldrh.w	r0, [r2, r3, lsl #1]
 8000d7c:	4a1c      	ldr	r2, [pc, #112]	; (8000df0 <main+0x198>)
 8000d7e:	697b      	ldr	r3, [r7, #20]
 8000d80:	f832 1013 	ldrh.w	r1, [r2, r3, lsl #1]
 8000d84:	4a1b      	ldr	r2, [pc, #108]	; (8000df4 <main+0x19c>)
 8000d86:	693b      	ldr	r3, [r7, #16]
 8000d88:	f832 3013 	ldrh.w	r3, [r2, r3, lsl #1]
 8000d8c:	461a      	mov	r2, r3
 8000d8e:	f7ff fd0f 	bl	80007b0 <write>
		HAL_Delay(10);                           // Delay in millisecond
 8000d92:	200a      	movs	r0, #10
 8000d94:	f000 fd3c 	bl	8001810 <HAL_Delay>
	for(i=0,j=0,k=0;i<30;i++,j++,k++)
 8000d98:	69bb      	ldr	r3, [r7, #24]
 8000d9a:	3301      	adds	r3, #1
 8000d9c:	61bb      	str	r3, [r7, #24]
 8000d9e:	697b      	ldr	r3, [r7, #20]
 8000da0:	3301      	adds	r3, #1
 8000da2:	617b      	str	r3, [r7, #20]
 8000da4:	693b      	ldr	r3, [r7, #16]
 8000da6:	3301      	adds	r3, #1
 8000da8:	613b      	str	r3, [r7, #16]
 8000daa:	69bb      	ldr	r3, [r7, #24]
 8000dac:	2b1d      	cmp	r3, #29
 8000dae:	dde1      	ble.n	8000d74 <main+0x11c>
	}
	HAL_Delay(1000);
 8000db0:	f44f 707a 	mov.w	r0, #1000	; 0x3e8
 8000db4:	f000 fd2c 	bl	8001810 <HAL_Delay>


	HAL_GPIO_WritePin(Trigger_GPIO_Port, Trigger_Pin, GPIO_PIN_RESET);
 8000db8:	2200      	movs	r2, #0
 8000dba:	f44f 6180 	mov.w	r1, #1024	; 0x400
 8000dbe:	4808      	ldr	r0, [pc, #32]	; (8000de0 <main+0x188>)
 8000dc0:	f000 ffea 	bl	8001d98 <HAL_GPIO_WritePin>
	HAL_Delay(5000);                                // 5 second Delay
 8000dc4:	f241 3088 	movw	r0, #5000	; 0x1388
 8000dc8:	f000 fd22 	bl	8001810 <HAL_Delay>
	HAL_GPIO_WritePin(Trigger_GPIO_Port, Trigger_Pin, GPIO_PIN_SET);
 8000dcc:	2201      	movs	r2, #1
 8000dce:	f44f 6180 	mov.w	r1, #1024	; 0x400
 8000dd2:	4803      	ldr	r0, [pc, #12]	; (8000de0 <main+0x188>)
 8000dd4:	f000 ffe0 	bl	8001d98 <HAL_GPIO_WritePin>
	/* USER CODE END 2 */

	/* Infinite loop */
	/* USER CODE BEGIN WHILE */
	while (1)
 8000dd8:	e7fe      	b.n	8000dd8 <main+0x180>
 8000dda:	bf00      	nop
 8000ddc:	58024400 	.word	0x58024400
 8000de0:	58021c00 	.word	0x58021c00
 8000de4:	58021000 	.word	0x58021000
 8000de8:	58021400 	.word	0x58021400
 8000dec:	24000008 	.word	0x24000008
 8000df0:	24000044 	.word	0x24000044
 8000df4:	24000080 	.word	0x24000080

08000df8 <SystemClock_Config>:
/**
 * @brief System Clock Configuration
 * @retval None
 */
void SystemClock_Config(void)
{
 8000df8:	b580      	push	{r7, lr}
 8000dfa:	b09c      	sub	sp, #112	; 0x70
 8000dfc:	af00      	add	r7, sp, #0
	RCC_OscInitTypeDef RCC_OscInitStruct = {0};
 8000dfe:	f107 0324 	add.w	r3, r7, #36	; 0x24
 8000e02:	224c      	movs	r2, #76	; 0x4c
 8000e04:	2100      	movs	r1, #0
 8000e06:	4618      	mov	r0, r3
 8000e08:	f006 fa5c 	bl	80072c4 <memset>
	RCC_ClkInitTypeDef RCC_ClkInitStruct = {0};
 8000e0c:	1d3b      	adds	r3, r7, #4
 8000e0e:	2220      	movs	r2, #32
 8000e10:	2100      	movs	r1, #0
 8000e12:	4618      	mov	r0, r3
 8000e14:	f006 fa56 	bl	80072c4 <memset>

	/** Supply configuration update enable
	 */
	HAL_PWREx_ConfigSupply(PWR_DIRECT_SMPS_SUPPLY);
 8000e18:	2004      	movs	r0, #4
 8000e1a:	f001 fe01 	bl	8002a20 <HAL_PWREx_ConfigSupply>

	/** Configure the main internal regulator output voltage
	 */
	__HAL_PWR_VOLTAGESCALING_CONFIG(PWR_REGULATOR_VOLTAGE_SCALE3);
 8000e1e:	2300      	movs	r3, #0
 8000e20:	603b      	str	r3, [r7, #0]
 8000e22:	4b28      	ldr	r3, [pc, #160]	; (8000ec4 <SystemClock_Config+0xcc>)
 8000e24:	6adb      	ldr	r3, [r3, #44]	; 0x2c
 8000e26:	4a27      	ldr	r2, [pc, #156]	; (8000ec4 <SystemClock_Config+0xcc>)
 8000e28:	f023 0301 	bic.w	r3, r3, #1
 8000e2c:	62d3      	str	r3, [r2, #44]	; 0x2c
 8000e2e:	4b25      	ldr	r3, [pc, #148]	; (8000ec4 <SystemClock_Config+0xcc>)
 8000e30:	6adb      	ldr	r3, [r3, #44]	; 0x2c
 8000e32:	f003 0301 	and.w	r3, r3, #1
 8000e36:	603b      	str	r3, [r7, #0]
 8000e38:	4b23      	ldr	r3, [pc, #140]	; (8000ec8 <SystemClock_Config+0xd0>)
 8000e3a:	699b      	ldr	r3, [r3, #24]
 8000e3c:	f423 4340 	bic.w	r3, r3, #49152	; 0xc000
 8000e40:	4a21      	ldr	r2, [pc, #132]	; (8000ec8 <SystemClock_Config+0xd0>)
 8000e42:	f443 4380 	orr.w	r3, r3, #16384	; 0x4000
 8000e46:	6193      	str	r3, [r2, #24]
 8000e48:	4b1f      	ldr	r3, [pc, #124]	; (8000ec8 <SystemClock_Config+0xd0>)
 8000e4a:	699b      	ldr	r3, [r3, #24]
 8000e4c:	f403 4340 	and.w	r3, r3, #49152	; 0xc000
 8000e50:	603b      	str	r3, [r7, #0]
 8000e52:	683b      	ldr	r3, [r7, #0]

	while(!__HAL_PWR_GET_FLAG(PWR_FLAG_VOSRDY)) {}
 8000e54:	bf00      	nop
 8000e56:	4b1c      	ldr	r3, [pc, #112]	; (8000ec8 <SystemClock_Config+0xd0>)
 8000e58:	699b      	ldr	r3, [r3, #24]
 8000e5a:	f403 5300 	and.w	r3, r3, #8192	; 0x2000
 8000e5e:	f5b3 5f00 	cmp.w	r3, #8192	; 0x2000
 8000e62:	d1f8      	bne.n	8000e56 <SystemClock_Config+0x5e>

	/** Initializes the RCC Oscillators according to the specified parameters
	 * in the RCC_OscInitTypeDef structure.
	 */
	RCC_OscInitStruct.OscillatorType = RCC_OSCILLATORTYPE_HSI;
 8000e64:	2302      	movs	r3, #2
 8000e66:	627b      	str	r3, [r7, #36]	; 0x24
	RCC_OscInitStruct.HSIState = RCC_HSI_DIV1;
 8000e68:	2301      	movs	r3, #1
 8000e6a:	633b      	str	r3, [r7, #48]	; 0x30
	RCC_OscInitStruct.HSICalibrationValue = RCC_HSICALIBRATION_DEFAULT;
 8000e6c:	2340      	movs	r3, #64	; 0x40
 8000e6e:	637b      	str	r3, [r7, #52]	; 0x34
	RCC_OscInitStruct.PLL.PLLState = RCC_PLL_NONE;
 8000e70:	2300      	movs	r3, #0
 8000e72:	64bb      	str	r3, [r7, #72]	; 0x48
	if (HAL_RCC_OscConfig(&RCC_OscInitStruct) != HAL_OK)
 8000e74:	f107 0324 	add.w	r3, r7, #36	; 0x24
 8000e78:	4618      	mov	r0, r3
 8000e7a:	f001 fe2b 	bl	8002ad4 <HAL_RCC_OscConfig>
 8000e7e:	4603      	mov	r3, r0
 8000e80:	2b00      	cmp	r3, #0
 8000e82:	d001      	beq.n	8000e88 <SystemClock_Config+0x90>
	{
		Error_Handler();
 8000e84:	f000 f9c4 	bl	8001210 <Error_Handler>
	}

	/** Initializes the CPU, AHB and APB buses clocks
	 */
	RCC_ClkInitStruct.ClockType = RCC_CLOCKTYPE_HCLK|RCC_CLOCKTYPE_SYSCLK
 8000e88:	233f      	movs	r3, #63	; 0x3f
 8000e8a:	607b      	str	r3, [r7, #4]
			|RCC_CLOCKTYPE_PCLK1|RCC_CLOCKTYPE_PCLK2
			|RCC_CLOCKTYPE_D3PCLK1|RCC_CLOCKTYPE_D1PCLK1;
	RCC_ClkInitStruct.SYSCLKSource = RCC_SYSCLKSOURCE_HSI;
 8000e8c:	2300      	movs	r3, #0
 8000e8e:	60bb      	str	r3, [r7, #8]
	RCC_ClkInitStruct.SYSCLKDivider = RCC_SYSCLK_DIV1;
 8000e90:	2300      	movs	r3, #0
 8000e92:	60fb      	str	r3, [r7, #12]
	RCC_ClkInitStruct.AHBCLKDivider = RCC_HCLK_DIV2;
 8000e94:	2308      	movs	r3, #8
 8000e96:	613b      	str	r3, [r7, #16]
	RCC_ClkInitStruct.APB3CLKDivider = RCC_APB3_DIV1;
 8000e98:	2300      	movs	r3, #0
 8000e9a:	617b      	str	r3, [r7, #20]
	RCC_ClkInitStruct.APB1CLKDivider = RCC_APB1_DIV1;
 8000e9c:	2300      	movs	r3, #0
 8000e9e:	61bb      	str	r3, [r7, #24]
	RCC_ClkInitStruct.APB2CLKDivider = RCC_APB2_DIV1;
 8000ea0:	2300      	movs	r3, #0
 8000ea2:	61fb      	str	r3, [r7, #28]
	RCC_ClkInitStruct.APB4CLKDivider = RCC_APB4_DIV1;
 8000ea4:	2300      	movs	r3, #0
 8000ea6:	623b      	str	r3, [r7, #32]

	if (HAL_RCC_ClockConfig(&RCC_ClkInitStruct, FLASH_LATENCY_0) != HAL_OK)
 8000ea8:	1d3b      	adds	r3, r7, #4
 8000eaa:	2100      	movs	r1, #0
 8000eac:	4618      	mov	r0, r3
 8000eae:	f002 fa3f 	bl	8003330 <HAL_RCC_ClockConfig>
 8000eb2:	4603      	mov	r3, r0
 8000eb4:	2b00      	cmp	r3, #0
 8000eb6:	d001      	beq.n	8000ebc <SystemClock_Config+0xc4>
	{
		Error_Handler();
 8000eb8:	f000 f9aa 	bl	8001210 <Error_Handler>
	}
}
 8000ebc:	bf00      	nop
 8000ebe:	3770      	adds	r7, #112	; 0x70
 8000ec0:	46bd      	mov	sp, r7
 8000ec2:	bd80      	pop	{r7, pc}
 8000ec4:	58000400 	.word	0x58000400
 8000ec8:	58024800 	.word	0x58024800

08000ecc <MX_I2C3_Init>:
 * @brief I2C3 Initialization Function
 * @param None
 * @retval None
 */
static void MX_I2C3_Init(void)
{
 8000ecc:	b580      	push	{r7, lr}
 8000ece:	af00      	add	r7, sp, #0
	/* USER CODE END I2C3_Init 0 */

	/* USER CODE BEGIN I2C3_Init 1 */

	/* USER CODE END I2C3_Init 1 */
	hi2c3.Instance = I2C3;
 8000ed0:	4b1b      	ldr	r3, [pc, #108]	; (8000f40 <MX_I2C3_Init+0x74>)
 8000ed2:	4a1c      	ldr	r2, [pc, #112]	; (8000f44 <MX_I2C3_Init+0x78>)
 8000ed4:	601a      	str	r2, [r3, #0]
	hi2c3.Init.Timing = 0x00707CBB;
 8000ed6:	4b1a      	ldr	r3, [pc, #104]	; (8000f40 <MX_I2C3_Init+0x74>)
 8000ed8:	4a1b      	ldr	r2, [pc, #108]	; (8000f48 <MX_I2C3_Init+0x7c>)
 8000eda:	605a      	str	r2, [r3, #4]
	hi2c3.Init.OwnAddress1 = 0;
 8000edc:	4b18      	ldr	r3, [pc, #96]	; (8000f40 <MX_I2C3_Init+0x74>)
 8000ede:	2200      	movs	r2, #0
 8000ee0:	609a      	str	r2, [r3, #8]
	hi2c3.Init.AddressingMode = I2C_ADDRESSINGMODE_7BIT;
 8000ee2:	4b17      	ldr	r3, [pc, #92]	; (8000f40 <MX_I2C3_Init+0x74>)
 8000ee4:	2201      	movs	r2, #1
 8000ee6:	60da      	str	r2, [r3, #12]
	hi2c3.Init.DualAddressMode = I2C_DUALADDRESS_DISABLE;
 8000ee8:	4b15      	ldr	r3, [pc, #84]	; (8000f40 <MX_I2C3_Init+0x74>)
 8000eea:	2200      	movs	r2, #0
 8000eec:	611a      	str	r2, [r3, #16]
	hi2c3.Init.OwnAddress2 = 0;
 8000eee:	4b14      	ldr	r3, [pc, #80]	; (8000f40 <MX_I2C3_Init+0x74>)
 8000ef0:	2200      	movs	r2, #0
 8000ef2:	615a      	str	r2, [r3, #20]
	hi2c3.Init.OwnAddress2Masks = I2C_OA2_NOMASK;
 8000ef4:	4b12      	ldr	r3, [pc, #72]	; (8000f40 <MX_I2C3_Init+0x74>)
 8000ef6:	2200      	movs	r2, #0
 8000ef8:	619a      	str	r2, [r3, #24]
	hi2c3.Init.GeneralCallMode = I2C_GENERALCALL_DISABLE;
 8000efa:	4b11      	ldr	r3, [pc, #68]	; (8000f40 <MX_I2C3_Init+0x74>)
 8000efc:	2200      	movs	r2, #0
 8000efe:	61da      	str	r2, [r3, #28]
	hi2c3.Init.NoStretchMode = I2C_NOSTRETCH_DISABLE;
 8000f00:	4b0f      	ldr	r3, [pc, #60]	; (8000f40 <MX_I2C3_Init+0x74>)
 8000f02:	2200      	movs	r2, #0
 8000f04:	621a      	str	r2, [r3, #32]
	if (HAL_I2C_Init(&hi2c3) != HAL_OK)
 8000f06:	480e      	ldr	r0, [pc, #56]	; (8000f40 <MX_I2C3_Init+0x74>)
 8000f08:	f000 ff8e 	bl	8001e28 <HAL_I2C_Init>
 8000f0c:	4603      	mov	r3, r0
 8000f0e:	2b00      	cmp	r3, #0
 8000f10:	d001      	beq.n	8000f16 <MX_I2C3_Init+0x4a>
	{
		Error_Handler();
 8000f12:	f000 f97d 	bl	8001210 <Error_Handler>
	}

	/** Configure Analogue filter
	 */
	if (HAL_I2CEx_ConfigAnalogFilter(&hi2c3, I2C_ANALOGFILTER_ENABLE) != HAL_OK)
 8000f16:	2100      	movs	r1, #0
 8000f18:	4809      	ldr	r0, [pc, #36]	; (8000f40 <MX_I2C3_Init+0x74>)
 8000f1a:	f001 fce9 	bl	80028f0 <HAL_I2CEx_ConfigAnalogFilter>
 8000f1e:	4603      	mov	r3, r0
 8000f20:	2b00      	cmp	r3, #0
 8000f22:	d001      	beq.n	8000f28 <MX_I2C3_Init+0x5c>
	{
		Error_Handler();
 8000f24:	f000 f974 	bl	8001210 <Error_Handler>
	}

	/** Configure Digital filter
	 */
	if (HAL_I2CEx_ConfigDigitalFilter(&hi2c3, 0) != HAL_OK)
 8000f28:	2100      	movs	r1, #0
 8000f2a:	4805      	ldr	r0, [pc, #20]	; (8000f40 <MX_I2C3_Init+0x74>)
 8000f2c:	f001 fd2b 	bl	8002986 <HAL_I2CEx_ConfigDigitalFilter>
 8000f30:	4603      	mov	r3, r0
 8000f32:	2b00      	cmp	r3, #0
 8000f34:	d001      	beq.n	8000f3a <MX_I2C3_Init+0x6e>
	{
		Error_Handler();
 8000f36:	f000 f96b 	bl	8001210 <Error_Handler>
	}
	/* USER CODE BEGIN I2C3_Init 2 */

	/* USER CODE END I2C3_Init 2 */

}
 8000f3a:	bf00      	nop
 8000f3c:	bd80      	pop	{r7, pc}
 8000f3e:	bf00      	nop
 8000f40:	24000144 	.word	0x24000144
 8000f44:	40005c00 	.word	0x40005c00
 8000f48:	00707cbb 	.word	0x00707cbb

08000f4c <MX_SPI4_Init>:
 * @brief SPI4 Initialization Function
 * @param None
 * @retval None
 */
static void MX_SPI4_Init(void)
{
 8000f4c:	b580      	push	{r7, lr}
 8000f4e:	af00      	add	r7, sp, #0

	/* USER CODE BEGIN SPI4_Init 1 */

	/* USER CODE END SPI4_Init 1 */
	/* SPI4 parameter configuration*/
	hspi4.Instance = SPI4;
 8000f50:	4b27      	ldr	r3, [pc, #156]	; (8000ff0 <MX_SPI4_Init+0xa4>)
 8000f52:	4a28      	ldr	r2, [pc, #160]	; (8000ff4 <MX_SPI4_Init+0xa8>)
 8000f54:	601a      	str	r2, [r3, #0]
	hspi4.Init.Mode = SPI_MODE_MASTER;
 8000f56:	4b26      	ldr	r3, [pc, #152]	; (8000ff0 <MX_SPI4_Init+0xa4>)
 8000f58:	f44f 0280 	mov.w	r2, #4194304	; 0x400000
 8000f5c:	605a      	str	r2, [r3, #4]
	hspi4.Init.Direction = SPI_DIRECTION_2LINES;
 8000f5e:	4b24      	ldr	r3, [pc, #144]	; (8000ff0 <MX_SPI4_Init+0xa4>)
 8000f60:	2200      	movs	r2, #0
 8000f62:	609a      	str	r2, [r3, #8]
	hspi4.Init.DataSize = SPI_DATASIZE_16BIT;
 8000f64:	4b22      	ldr	r3, [pc, #136]	; (8000ff0 <MX_SPI4_Init+0xa4>)
 8000f66:	220f      	movs	r2, #15
 8000f68:	60da      	str	r2, [r3, #12]
	hspi4.Init.CLKPolarity = SPI_POLARITY_LOW;
 8000f6a:	4b21      	ldr	r3, [pc, #132]	; (8000ff0 <MX_SPI4_Init+0xa4>)
 8000f6c:	2200      	movs	r2, #0
 8000f6e:	611a      	str	r2, [r3, #16]
	hspi4.Init.CLKPhase = SPI_PHASE_1EDGE;
 8000f70:	4b1f      	ldr	r3, [pc, #124]	; (8000ff0 <MX_SPI4_Init+0xa4>)
 8000f72:	2200      	movs	r2, #0
 8000f74:	615a      	str	r2, [r3, #20]
	hspi4.Init.NSS = SPI_NSS_SOFT;
 8000f76:	4b1e      	ldr	r3, [pc, #120]	; (8000ff0 <MX_SPI4_Init+0xa4>)
 8000f78:	f04f 6280 	mov.w	r2, #67108864	; 0x4000000
 8000f7c:	619a      	str	r2, [r3, #24]
	hspi4.Init.BaudRatePrescaler = SPI_BAUDRATEPRESCALER_32;
 8000f7e:	4b1c      	ldr	r3, [pc, #112]	; (8000ff0 <MX_SPI4_Init+0xa4>)
 8000f80:	f04f 4280 	mov.w	r2, #1073741824	; 0x40000000
 8000f84:	61da      	str	r2, [r3, #28]
	hspi4.Init.FirstBit = SPI_FIRSTBIT_MSB;
 8000f86:	4b1a      	ldr	r3, [pc, #104]	; (8000ff0 <MX_SPI4_Init+0xa4>)
 8000f88:	2200      	movs	r2, #0
 8000f8a:	621a      	str	r2, [r3, #32]
	hspi4.Init.TIMode = SPI_TIMODE_DISABLE;
 8000f8c:	4b18      	ldr	r3, [pc, #96]	; (8000ff0 <MX_SPI4_Init+0xa4>)
 8000f8e:	2200      	movs	r2, #0
 8000f90:	625a      	str	r2, [r3, #36]	; 0x24
	hspi4.Init.CRCCalculation = SPI_CRCCALCULATION_DISABLE;
 8000f92:	4b17      	ldr	r3, [pc, #92]	; (8000ff0 <MX_SPI4_Init+0xa4>)
 8000f94:	2200      	movs	r2, #0
 8000f96:	629a      	str	r2, [r3, #40]	; 0x28
	hspi4.Init.CRCPolynomial = 0x0;
 8000f98:	4b15      	ldr	r3, [pc, #84]	; (8000ff0 <MX_SPI4_Init+0xa4>)
 8000f9a:	2200      	movs	r2, #0
 8000f9c:	62da      	str	r2, [r3, #44]	; 0x2c
	hspi4.Init.NSSPMode = SPI_NSS_PULSE_ENABLE;
 8000f9e:	4b14      	ldr	r3, [pc, #80]	; (8000ff0 <MX_SPI4_Init+0xa4>)
 8000fa0:	f04f 4280 	mov.w	r2, #1073741824	; 0x40000000
 8000fa4:	635a      	str	r2, [r3, #52]	; 0x34
	hspi4.Init.NSSPolarity = SPI_NSS_POLARITY_LOW;
 8000fa6:	4b12      	ldr	r3, [pc, #72]	; (8000ff0 <MX_SPI4_Init+0xa4>)
 8000fa8:	2200      	movs	r2, #0
 8000faa:	639a      	str	r2, [r3, #56]	; 0x38
	hspi4.Init.FifoThreshold = SPI_FIFO_THRESHOLD_01DATA;
 8000fac:	4b10      	ldr	r3, [pc, #64]	; (8000ff0 <MX_SPI4_Init+0xa4>)
 8000fae:	2200      	movs	r2, #0
 8000fb0:	63da      	str	r2, [r3, #60]	; 0x3c
	hspi4.Init.TxCRCInitializationPattern = SPI_CRC_INITIALIZATION_ALL_ZERO_PATTERN;
 8000fb2:	4b0f      	ldr	r3, [pc, #60]	; (8000ff0 <MX_SPI4_Init+0xa4>)
 8000fb4:	2200      	movs	r2, #0
 8000fb6:	641a      	str	r2, [r3, #64]	; 0x40
	hspi4.Init.RxCRCInitializationPattern = SPI_CRC_INITIALIZATION_ALL_ZERO_PATTERN;
 8000fb8:	4b0d      	ldr	r3, [pc, #52]	; (8000ff0 <MX_SPI4_Init+0xa4>)
 8000fba:	2200      	movs	r2, #0
 8000fbc:	645a      	str	r2, [r3, #68]	; 0x44
	hspi4.Init.MasterSSIdleness = SPI_MASTER_SS_IDLENESS_00CYCLE;
 8000fbe:	4b0c      	ldr	r3, [pc, #48]	; (8000ff0 <MX_SPI4_Init+0xa4>)
 8000fc0:	2200      	movs	r2, #0
 8000fc2:	649a      	str	r2, [r3, #72]	; 0x48
	hspi4.Init.MasterInterDataIdleness = SPI_MASTER_INTERDATA_IDLENESS_00CYCLE;
 8000fc4:	4b0a      	ldr	r3, [pc, #40]	; (8000ff0 <MX_SPI4_Init+0xa4>)
 8000fc6:	2200      	movs	r2, #0
 8000fc8:	64da      	str	r2, [r3, #76]	; 0x4c
	hspi4.Init.MasterReceiverAutoSusp = SPI_MASTER_RX_AUTOSUSP_DISABLE;
 8000fca:	4b09      	ldr	r3, [pc, #36]	; (8000ff0 <MX_SPI4_Init+0xa4>)
 8000fcc:	2200      	movs	r2, #0
 8000fce:	651a      	str	r2, [r3, #80]	; 0x50
	hspi4.Init.MasterKeepIOState = SPI_MASTER_KEEP_IO_STATE_DISABLE;
 8000fd0:	4b07      	ldr	r3, [pc, #28]	; (8000ff0 <MX_SPI4_Init+0xa4>)
 8000fd2:	2200      	movs	r2, #0
 8000fd4:	655a      	str	r2, [r3, #84]	; 0x54
	hspi4.Init.IOSwap = SPI_IO_SWAP_DISABLE;
 8000fd6:	4b06      	ldr	r3, [pc, #24]	; (8000ff0 <MX_SPI4_Init+0xa4>)
 8000fd8:	2200      	movs	r2, #0
 8000fda:	659a      	str	r2, [r3, #88]	; 0x58
	if (HAL_SPI_Init(&hspi4) != HAL_OK)
 8000fdc:	4804      	ldr	r0, [pc, #16]	; (8000ff0 <MX_SPI4_Init+0xa4>)
 8000fde:	f004 f89b 	bl	8005118 <HAL_SPI_Init>
 8000fe2:	4603      	mov	r3, r0
 8000fe4:	2b00      	cmp	r3, #0
 8000fe6:	d001      	beq.n	8000fec <MX_SPI4_Init+0xa0>
	{
		Error_Handler();
 8000fe8:	f000 f912 	bl	8001210 <Error_Handler>
	}
	/* USER CODE BEGIN SPI4_Init 2 */

	/* USER CODE END SPI4_Init 2 */

}
 8000fec:	bf00      	nop
 8000fee:	bd80      	pop	{r7, pc}
 8000ff0:	24000190 	.word	0x24000190
 8000ff4:	40013400 	.word	0x40013400

08000ff8 <MX_USART2_UART_Init>:
 * @brief USART2 Initialization Function
 * @param None
 * @retval None
 */
static void MX_USART2_UART_Init(void)
{
 8000ff8:	b580      	push	{r7, lr}
 8000ffa:	af00      	add	r7, sp, #0
	/* USER CODE END USART2_Init 0 */

	/* USER CODE BEGIN USART2_Init 1 */

	/* USER CODE END USART2_Init 1 */
	huart2.Instance = USART2;
 8000ffc:	4b22      	ldr	r3, [pc, #136]	; (8001088 <MX_USART2_UART_Init+0x90>)
 8000ffe:	4a23      	ldr	r2, [pc, #140]	; (800108c <MX_USART2_UART_Init+0x94>)
 8001000:	601a      	str	r2, [r3, #0]
	huart2.Init.BaudRate = 115200;
 8001002:	4b21      	ldr	r3, [pc, #132]	; (8001088 <MX_USART2_UART_Init+0x90>)
 8001004:	f44f 32e1 	mov.w	r2, #115200	; 0x1c200
 8001008:	605a      	str	r2, [r3, #4]
	huart2.Init.WordLength = UART_WORDLENGTH_8B;
 800100a:	4b1f      	ldr	r3, [pc, #124]	; (8001088 <MX_USART2_UART_Init+0x90>)
 800100c:	2200      	movs	r2, #0
 800100e:	609a      	str	r2, [r3, #8]
	huart2.Init.StopBits = UART_STOPBITS_1;
 8001010:	4b1d      	ldr	r3, [pc, #116]	; (8001088 <MX_USART2_UART_Init+0x90>)
 8001012:	2200      	movs	r2, #0
 8001014:	60da      	str	r2, [r3, #12]
	huart2.Init.Parity = UART_PARITY_NONE;
 8001016:	4b1c      	ldr	r3, [pc, #112]	; (8001088 <MX_USART2_UART_Init+0x90>)
 8001018:	2200      	movs	r2, #0
 800101a:	611a      	str	r2, [r3, #16]
	huart2.Init.Mode = UART_MODE_TX_RX;
 800101c:	4b1a      	ldr	r3, [pc, #104]	; (8001088 <MX_USART2_UART_Init+0x90>)
 800101e:	220c      	movs	r2, #12
 8001020:	615a      	str	r2, [r3, #20]
	huart2.Init.HwFlowCtl = UART_HWCONTROL_NONE;
 8001022:	4b19      	ldr	r3, [pc, #100]	; (8001088 <MX_USART2_UART_Init+0x90>)
 8001024:	2200      	movs	r2, #0
 8001026:	619a      	str	r2, [r3, #24]
	huart2.Init.OverSampling = UART_OVERSAMPLING_16;
 8001028:	4b17      	ldr	r3, [pc, #92]	; (8001088 <MX_USART2_UART_Init+0x90>)
 800102a:	2200      	movs	r2, #0
 800102c:	61da      	str	r2, [r3, #28]
	huart2.Init.OneBitSampling = UART_ONE_BIT_SAMPLE_DISABLE;
 800102e:	4b16      	ldr	r3, [pc, #88]	; (8001088 <MX_USART2_UART_Init+0x90>)
 8001030:	2200      	movs	r2, #0
 8001032:	621a      	str	r2, [r3, #32]
	huart2.Init.ClockPrescaler = UART_PRESCALER_DIV1;
 8001034:	4b14      	ldr	r3, [pc, #80]	; (8001088 <MX_USART2_UART_Init+0x90>)
 8001036:	2200      	movs	r2, #0
 8001038:	625a      	str	r2, [r3, #36]	; 0x24
	huart2.AdvancedInit.AdvFeatureInit = UART_ADVFEATURE_NO_INIT;
 800103a:	4b13      	ldr	r3, [pc, #76]	; (8001088 <MX_USART2_UART_Init+0x90>)
 800103c:	2200      	movs	r2, #0
 800103e:	629a      	str	r2, [r3, #40]	; 0x28
	if (HAL_UART_Init(&huart2) != HAL_OK)
 8001040:	4811      	ldr	r0, [pc, #68]	; (8001088 <MX_USART2_UART_Init+0x90>)
 8001042:	f005 f80e 	bl	8006062 <HAL_UART_Init>
 8001046:	4603      	mov	r3, r0
 8001048:	2b00      	cmp	r3, #0
 800104a:	d001      	beq.n	8001050 <MX_USART2_UART_Init+0x58>
	{
		Error_Handler();
 800104c:	f000 f8e0 	bl	8001210 <Error_Handler>
	}
	if (HAL_UARTEx_SetTxFifoThreshold(&huart2, UART_TXFIFO_THRESHOLD_1_8) != HAL_OK)
 8001050:	2100      	movs	r1, #0
 8001052:	480d      	ldr	r0, [pc, #52]	; (8001088 <MX_USART2_UART_Init+0x90>)
 8001054:	f006 f842 	bl	80070dc <HAL_UARTEx_SetTxFifoThreshold>
 8001058:	4603      	mov	r3, r0
 800105a:	2b00      	cmp	r3, #0
 800105c:	d001      	beq.n	8001062 <MX_USART2_UART_Init+0x6a>
	{
		Error_Handler();
 800105e:	f000 f8d7 	bl	8001210 <Error_Handler>
	}
	if (HAL_UARTEx_SetRxFifoThreshold(&huart2, UART_RXFIFO_THRESHOLD_1_8) != HAL_OK)
 8001062:	2100      	movs	r1, #0
 8001064:	4808      	ldr	r0, [pc, #32]	; (8001088 <MX_USART2_UART_Init+0x90>)
 8001066:	f006 f877 	bl	8007158 <HAL_UARTEx_SetRxFifoThreshold>
 800106a:	4603      	mov	r3, r0
 800106c:	2b00      	cmp	r3, #0
 800106e:	d001      	beq.n	8001074 <MX_USART2_UART_Init+0x7c>
	{
		Error_Handler();
 8001070:	f000 f8ce 	bl	8001210 <Error_Handler>
	}
	if (HAL_UARTEx_DisableFifoMode(&huart2) != HAL_OK)
 8001074:	4804      	ldr	r0, [pc, #16]	; (8001088 <MX_USART2_UART_Init+0x90>)
 8001076:	f005 fff8 	bl	800706a <HAL_UARTEx_DisableFifoMode>
 800107a:	4603      	mov	r3, r0
 800107c:	2b00      	cmp	r3, #0
 800107e:	d001      	beq.n	8001084 <MX_USART2_UART_Init+0x8c>
	{
		Error_Handler();
 8001080:	f000 f8c6 	bl	8001210 <Error_Handler>
	}
	/* USER CODE BEGIN USART2_Init 2 */

	/* USER CODE END USART2_Init 2 */

}
 8001084:	bf00      	nop
 8001086:	bd80      	pop	{r7, pc}
 8001088:	24000218 	.word	0x24000218
 800108c:	40004400 	.word	0x40004400

08001090 <MX_GPIO_Init>:
 * @brief GPIO Initialization Function
 * @param None
 * @retval None
 */
static void MX_GPIO_Init(void)
{
 8001090:	b580      	push	{r7, lr}
 8001092:	b08c      	sub	sp, #48	; 0x30
 8001094:	af00      	add	r7, sp, #0
	GPIO_InitTypeDef GPIO_InitStruct = {0};
 8001096:	f107 031c 	add.w	r3, r7, #28
 800109a:	2200      	movs	r2, #0
 800109c:	601a      	str	r2, [r3, #0]
 800109e:	605a      	str	r2, [r3, #4]
 80010a0:	609a      	str	r2, [r3, #8]
 80010a2:	60da      	str	r2, [r3, #12]
 80010a4:	611a      	str	r2, [r3, #16]

	/* GPIO Ports Clock Enable */
	__HAL_RCC_GPIOD_CLK_ENABLE();
 80010a6:	4b4d      	ldr	r3, [pc, #308]	; (80011dc <MX_GPIO_Init+0x14c>)
 80010a8:	f8d3 30e0 	ldr.w	r3, [r3, #224]	; 0xe0
 80010ac:	4a4b      	ldr	r2, [pc, #300]	; (80011dc <MX_GPIO_Init+0x14c>)
 80010ae:	f043 0308 	orr.w	r3, r3, #8
 80010b2:	f8c2 30e0 	str.w	r3, [r2, #224]	; 0xe0
 80010b6:	4b49      	ldr	r3, [pc, #292]	; (80011dc <MX_GPIO_Init+0x14c>)
 80010b8:	f8d3 30e0 	ldr.w	r3, [r3, #224]	; 0xe0
 80010bc:	f003 0308 	and.w	r3, r3, #8
 80010c0:	61bb      	str	r3, [r7, #24]
 80010c2:	69bb      	ldr	r3, [r7, #24]
	__HAL_RCC_GPIOA_CLK_ENABLE();
 80010c4:	4b45      	ldr	r3, [pc, #276]	; (80011dc <MX_GPIO_Init+0x14c>)
 80010c6:	f8d3 30e0 	ldr.w	r3, [r3, #224]	; 0xe0
 80010ca:	4a44      	ldr	r2, [pc, #272]	; (80011dc <MX_GPIO_Init+0x14c>)
 80010cc:	f043 0301 	orr.w	r3, r3, #1
 80010d0:	f8c2 30e0 	str.w	r3, [r2, #224]	; 0xe0
 80010d4:	4b41      	ldr	r3, [pc, #260]	; (80011dc <MX_GPIO_Init+0x14c>)
 80010d6:	f8d3 30e0 	ldr.w	r3, [r3, #224]	; 0xe0
 80010da:	f003 0301 	and.w	r3, r3, #1
 80010de:	617b      	str	r3, [r7, #20]
 80010e0:	697b      	ldr	r3, [r7, #20]
	__HAL_RCC_GPIOE_CLK_ENABLE();
 80010e2:	4b3e      	ldr	r3, [pc, #248]	; (80011dc <MX_GPIO_Init+0x14c>)
 80010e4:	f8d3 30e0 	ldr.w	r3, [r3, #224]	; 0xe0
 80010e8:	4a3c      	ldr	r2, [pc, #240]	; (80011dc <MX_GPIO_Init+0x14c>)
 80010ea:	f043 0310 	orr.w	r3, r3, #16
 80010ee:	f8c2 30e0 	str.w	r3, [r2, #224]	; 0xe0
 80010f2:	4b3a      	ldr	r3, [pc, #232]	; (80011dc <MX_GPIO_Init+0x14c>)
 80010f4:	f8d3 30e0 	ldr.w	r3, [r3, #224]	; 0xe0
 80010f8:	f003 0310 	and.w	r3, r3, #16
 80010fc:	613b      	str	r3, [r7, #16]
 80010fe:	693b      	ldr	r3, [r7, #16]
	__HAL_RCC_GPIOC_CLK_ENABLE();
 8001100:	4b36      	ldr	r3, [pc, #216]	; (80011dc <MX_GPIO_Init+0x14c>)
 8001102:	f8d3 30e0 	ldr.w	r3, [r3, #224]	; 0xe0
 8001106:	4a35      	ldr	r2, [pc, #212]	; (80011dc <MX_GPIO_Init+0x14c>)
 8001108:	f043 0304 	orr.w	r3, r3, #4
 800110c:	f8c2 30e0 	str.w	r3, [r2, #224]	; 0xe0
 8001110:	4b32      	ldr	r3, [pc, #200]	; (80011dc <MX_GPIO_Init+0x14c>)
 8001112:	f8d3 30e0 	ldr.w	r3, [r3, #224]	; 0xe0
 8001116:	f003 0304 	and.w	r3, r3, #4
 800111a:	60fb      	str	r3, [r7, #12]
 800111c:	68fb      	ldr	r3, [r7, #12]
	__HAL_RCC_GPIOF_CLK_ENABLE();
 800111e:	4b2f      	ldr	r3, [pc, #188]	; (80011dc <MX_GPIO_Init+0x14c>)
 8001120:	f8d3 30e0 	ldr.w	r3, [r3, #224]	; 0xe0
 8001124:	4a2d      	ldr	r2, [pc, #180]	; (80011dc <MX_GPIO_Init+0x14c>)
 8001126:	f043 0320 	orr.w	r3, r3, #32
 800112a:	f8c2 30e0 	str.w	r3, [r2, #224]	; 0xe0
 800112e:	4b2b      	ldr	r3, [pc, #172]	; (80011dc <MX_GPIO_Init+0x14c>)
 8001130:	f8d3 30e0 	ldr.w	r3, [r3, #224]	; 0xe0
 8001134:	f003 0320 	and.w	r3, r3, #32
 8001138:	60bb      	str	r3, [r7, #8]
 800113a:	68bb      	ldr	r3, [r7, #8]
	__HAL_RCC_GPIOH_CLK_ENABLE();
 800113c:	4b27      	ldr	r3, [pc, #156]	; (80011dc <MX_GPIO_Init+0x14c>)
 800113e:	f8d3 30e0 	ldr.w	r3, [r3, #224]	; 0xe0
 8001142:	4a26      	ldr	r2, [pc, #152]	; (80011dc <MX_GPIO_Init+0x14c>)
 8001144:	f043 0380 	orr.w	r3, r3, #128	; 0x80
 8001148:	f8c2 30e0 	str.w	r3, [r2, #224]	; 0xe0
 800114c:	4b23      	ldr	r3, [pc, #140]	; (80011dc <MX_GPIO_Init+0x14c>)
 800114e:	f8d3 30e0 	ldr.w	r3, [r3, #224]	; 0xe0
 8001152:	f003 0380 	and.w	r3, r3, #128	; 0x80
 8001156:	607b      	str	r3, [r7, #4]
 8001158:	687b      	ldr	r3, [r7, #4]

	/*Configure GPIO pin Output Level */
	HAL_GPIO_WritePin(CS2_GPIO_Port, CS2_Pin, GPIO_PIN_RESET);
 800115a:	2200      	movs	r2, #0
 800115c:	2101      	movs	r1, #1
 800115e:	4820      	ldr	r0, [pc, #128]	; (80011e0 <MX_GPIO_Init+0x150>)
 8001160:	f000 fe1a 	bl	8001d98 <HAL_GPIO_WritePin>

	/*Configure GPIO pin Output Level */
	HAL_GPIO_WritePin(Trigger_GPIO_Port, Trigger_Pin, GPIO_PIN_RESET);
 8001164:	2200      	movs	r2, #0
 8001166:	f44f 6180 	mov.w	r1, #1024	; 0x400
 800116a:	481e      	ldr	r0, [pc, #120]	; (80011e4 <MX_GPIO_Init+0x154>)
 800116c:	f000 fe14 	bl	8001d98 <HAL_GPIO_WritePin>

	/*Configure GPIO pin Output Level */
	HAL_GPIO_WritePin(CS_GPIO_Port, CS_Pin, GPIO_PIN_RESET);
 8001170:	2200      	movs	r2, #0
 8001172:	f44f 6180 	mov.w	r1, #1024	; 0x400
 8001176:	481c      	ldr	r0, [pc, #112]	; (80011e8 <MX_GPIO_Init+0x158>)
 8001178:	f000 fe0e 	bl	8001d98 <HAL_GPIO_WritePin>

	/*Configure GPIO pin : CS2_Pin */
	GPIO_InitStruct.Pin = CS2_Pin;
 800117c:	2301      	movs	r3, #1
 800117e:	61fb      	str	r3, [r7, #28]
	GPIO_InitStruct.Mode = GPIO_MODE_OUTPUT_PP;
 8001180:	2301      	movs	r3, #1
 8001182:	623b      	str	r3, [r7, #32]
	GPIO_InitStruct.Pull = GPIO_NOPULL;
 8001184:	2300      	movs	r3, #0
 8001186:	627b      	str	r3, [r7, #36]	; 0x24
	GPIO_InitStruct.Speed = GPIO_SPEED_FREQ_LOW;
 8001188:	2300      	movs	r3, #0
 800118a:	62bb      	str	r3, [r7, #40]	; 0x28
	HAL_GPIO_Init(CS2_GPIO_Port, &GPIO_InitStruct);
 800118c:	f107 031c 	add.w	r3, r7, #28
 8001190:	4619      	mov	r1, r3
 8001192:	4813      	ldr	r0, [pc, #76]	; (80011e0 <MX_GPIO_Init+0x150>)
 8001194:	f000 fc50 	bl	8001a38 <HAL_GPIO_Init>

	/*Configure GPIO pin : Trigger_Pin */
	GPIO_InitStruct.Pin = Trigger_Pin;
 8001198:	f44f 6380 	mov.w	r3, #1024	; 0x400
 800119c:	61fb      	str	r3, [r7, #28]
	GPIO_InitStruct.Mode = GPIO_MODE_OUTPUT_PP;
 800119e:	2301      	movs	r3, #1
 80011a0:	623b      	str	r3, [r7, #32]
	GPIO_InitStruct.Pull = GPIO_NOPULL;
 80011a2:	2300      	movs	r3, #0
 80011a4:	627b      	str	r3, [r7, #36]	; 0x24
	GPIO_InitStruct.Speed = GPIO_SPEED_FREQ_LOW;
 80011a6:	2300      	movs	r3, #0
 80011a8:	62bb      	str	r3, [r7, #40]	; 0x28
	HAL_GPIO_Init(Trigger_GPIO_Port, &GPIO_InitStruct);
 80011aa:	f107 031c 	add.w	r3, r7, #28
 80011ae:	4619      	mov	r1, r3
 80011b0:	480c      	ldr	r0, [pc, #48]	; (80011e4 <MX_GPIO_Init+0x154>)
 80011b2:	f000 fc41 	bl	8001a38 <HAL_GPIO_Init>

	/*Configure GPIO pin : CS_Pin */
	GPIO_InitStruct.Pin = CS_Pin;
 80011b6:	f44f 6380 	mov.w	r3, #1024	; 0x400
 80011ba:	61fb      	str	r3, [r7, #28]
	GPIO_InitStruct.Mode = GPIO_MODE_OUTPUT_PP;
 80011bc:	2301      	movs	r3, #1
 80011be:	623b      	str	r3, [r7, #32]
	GPIO_InitStruct.Pull = GPIO_NOPULL;
 80011c0:	2300      	movs	r3, #0
 80011c2:	627b      	str	r3, [r7, #36]	; 0x24
	GPIO_InitStruct.Speed = GPIO_SPEED_FREQ_LOW;
 80011c4:	2300      	movs	r3, #0
 80011c6:	62bb      	str	r3, [r7, #40]	; 0x28
	HAL_GPIO_Init(CS_GPIO_Port, &GPIO_InitStruct);
 80011c8:	f107 031c 	add.w	r3, r7, #28
 80011cc:	4619      	mov	r1, r3
 80011ce:	4806      	ldr	r0, [pc, #24]	; (80011e8 <MX_GPIO_Init+0x158>)
 80011d0:	f000 fc32 	bl	8001a38 <HAL_GPIO_Init>

}
 80011d4:	bf00      	nop
 80011d6:	3730      	adds	r7, #48	; 0x30
 80011d8:	46bd      	mov	sp, r7
 80011da:	bd80      	pop	{r7, pc}
 80011dc:	58024400 	.word	0x58024400
 80011e0:	58021400 	.word	0x58021400
 80011e4:	58021c00 	.word	0x58021c00
 80011e8:	58021000 	.word	0x58021000

080011ec <__io_putchar>:

/* USER CODE BEGIN 4 */
PUTCHAR_PROTOTYPE
{
 80011ec:	b580      	push	{r7, lr}
 80011ee:	b082      	sub	sp, #8
 80011f0:	af00      	add	r7, sp, #0
 80011f2:	6078      	str	r0, [r7, #4]
	/* Place your implementation of fputc here */
	/* e.g. write a character to the EVAL_COM1 and Loop until the end of transmission */
	HAL_UART_Transmit(&huart2, (uint8_t *)&ch, 1, 0xFFFF);
 80011f4:	1d39      	adds	r1, r7, #4
 80011f6:	f64f 73ff 	movw	r3, #65535	; 0xffff
 80011fa:	2201      	movs	r2, #1
 80011fc:	4803      	ldr	r0, [pc, #12]	; (800120c <__io_putchar+0x20>)
 80011fe:	f004 ff80 	bl	8006102 <HAL_UART_Transmit>

	return ch;
 8001202:	687b      	ldr	r3, [r7, #4]
}
 8001204:	4618      	mov	r0, r3
 8001206:	3708      	adds	r7, #8
 8001208:	46bd      	mov	sp, r7
 800120a:	bd80      	pop	{r7, pc}
 800120c:	24000218 	.word	0x24000218

08001210 <Error_Handler>:
/**
 * @brief  This function is executed in case of error occurrence.
 * @retval None
 */
void Error_Handler(void)
{
 8001210:	b480      	push	{r7}
 8001212:	af00      	add	r7, sp, #0
  \details Disables IRQ interrupts by setting the I-bit in the CPSR.
           Can only be executed in Privileged modes.
 */
__STATIC_FORCEINLINE void __disable_irq(void)
{
  __ASM volatile ("cpsid i" : : : "memory");
 8001214:	b672      	cpsid	i
}
 8001216:	bf00      	nop
	/* USER CODE BEGIN Error_Handler_Debug */
	/* User can add his own implementation to report the HAL error return state */
	__disable_irq();
	while (1)
 8001218:	e7fe      	b.n	8001218 <Error_Handler+0x8>
	...

0800121c <HAL_MspInit>:
/* USER CODE END 0 */
/**
  * Initializes the Global MSP.
  */
void HAL_MspInit(void)
{
 800121c:	b480      	push	{r7}
 800121e:	b083      	sub	sp, #12
 8001220:	af00      	add	r7, sp, #0
  /* USER CODE BEGIN MspInit 0 */

  /* USER CODE END MspInit 0 */

  __HAL_RCC_SYSCFG_CLK_ENABLE();
 8001222:	4b0a      	ldr	r3, [pc, #40]	; (800124c <HAL_MspInit+0x30>)
 8001224:	f8d3 30f4 	ldr.w	r3, [r3, #244]	; 0xf4
 8001228:	4a08      	ldr	r2, [pc, #32]	; (800124c <HAL_MspInit+0x30>)
 800122a:	f043 0302 	orr.w	r3, r3, #2
 800122e:	f8c2 30f4 	str.w	r3, [r2, #244]	; 0xf4
 8001232:	4b06      	ldr	r3, [pc, #24]	; (800124c <HAL_MspInit+0x30>)
 8001234:	f8d3 30f4 	ldr.w	r3, [r3, #244]	; 0xf4
 8001238:	f003 0302 	and.w	r3, r3, #2
 800123c:	607b      	str	r3, [r7, #4]
 800123e:	687b      	ldr	r3, [r7, #4]
  /* System interrupt init*/

  /* USER CODE BEGIN MspInit 1 */

  /* USER CODE END MspInit 1 */
}
 8001240:	bf00      	nop
 8001242:	370c      	adds	r7, #12
 8001244:	46bd      	mov	sp, r7
 8001246:	f85d 7b04 	ldr.w	r7, [sp], #4
 800124a:	4770      	bx	lr
 800124c:	58024400 	.word	0x58024400

08001250 <HAL_I2C_MspInit>:
* This function configures the hardware resources used in this example
* @param hi2c: I2C handle pointer
* @retval None
*/
void HAL_I2C_MspInit(I2C_HandleTypeDef* hi2c)
{
 8001250:	b580      	push	{r7, lr}
 8001252:	b0ba      	sub	sp, #232	; 0xe8
 8001254:	af00      	add	r7, sp, #0
 8001256:	6078      	str	r0, [r7, #4]
  GPIO_InitTypeDef GPIO_InitStruct = {0};
 8001258:	f107 03d4 	add.w	r3, r7, #212	; 0xd4
 800125c:	2200      	movs	r2, #0
 800125e:	601a      	str	r2, [r3, #0]
 8001260:	605a      	str	r2, [r3, #4]
 8001262:	609a      	str	r2, [r3, #8]
 8001264:	60da      	str	r2, [r3, #12]
 8001266:	611a      	str	r2, [r3, #16]
  RCC_PeriphCLKInitTypeDef PeriphClkInitStruct = {0};
 8001268:	f107 0318 	add.w	r3, r7, #24
 800126c:	22bc      	movs	r2, #188	; 0xbc
 800126e:	2100      	movs	r1, #0
 8001270:	4618      	mov	r0, r3
 8001272:	f006 f827 	bl	80072c4 <memset>
  if(hi2c->Instance==I2C3)
 8001276:	687b      	ldr	r3, [r7, #4]
 8001278:	681b      	ldr	r3, [r3, #0]
 800127a:	4a37      	ldr	r2, [pc, #220]	; (8001358 <HAL_I2C_MspInit+0x108>)
 800127c:	4293      	cmp	r3, r2
 800127e:	d167      	bne.n	8001350 <HAL_I2C_MspInit+0x100>

  /* USER CODE END I2C3_MspInit 0 */

  /** Initializes the peripherals clock
  */
    PeriphClkInitStruct.PeriphClockSelection = RCC_PERIPHCLK_I2C3;
 8001280:	2308      	movs	r3, #8
 8001282:	61bb      	str	r3, [r7, #24]
    PeriphClkInitStruct.I2c123ClockSelection = RCC_I2C123CLKSOURCE_D2PCLK1;
 8001284:	2300      	movs	r3, #0
 8001286:	f8c7 3098 	str.w	r3, [r7, #152]	; 0x98
    if (HAL_RCCEx_PeriphCLKConfig(&PeriphClkInitStruct) != HAL_OK)
 800128a:	f107 0318 	add.w	r3, r7, #24
 800128e:	4618      	mov	r0, r3
 8001290:	f002 fbda 	bl	8003a48 <HAL_RCCEx_PeriphCLKConfig>
 8001294:	4603      	mov	r3, r0
 8001296:	2b00      	cmp	r3, #0
 8001298:	d001      	beq.n	800129e <HAL_I2C_MspInit+0x4e>
    {
      Error_Handler();
 800129a:	f7ff ffb9 	bl	8001210 <Error_Handler>
    }

    __HAL_RCC_GPIOA_CLK_ENABLE();
 800129e:	4b2f      	ldr	r3, [pc, #188]	; (800135c <HAL_I2C_MspInit+0x10c>)
 80012a0:	f8d3 30e0 	ldr.w	r3, [r3, #224]	; 0xe0
 80012a4:	4a2d      	ldr	r2, [pc, #180]	; (800135c <HAL_I2C_MspInit+0x10c>)
 80012a6:	f043 0301 	orr.w	r3, r3, #1
 80012aa:	f8c2 30e0 	str.w	r3, [r2, #224]	; 0xe0
 80012ae:	4b2b      	ldr	r3, [pc, #172]	; (800135c <HAL_I2C_MspInit+0x10c>)
 80012b0:	f8d3 30e0 	ldr.w	r3, [r3, #224]	; 0xe0
 80012b4:	f003 0301 	and.w	r3, r3, #1
 80012b8:	617b      	str	r3, [r7, #20]
 80012ba:	697b      	ldr	r3, [r7, #20]
    __HAL_RCC_GPIOC_CLK_ENABLE();
 80012bc:	4b27      	ldr	r3, [pc, #156]	; (800135c <HAL_I2C_MspInit+0x10c>)
 80012be:	f8d3 30e0 	ldr.w	r3, [r3, #224]	; 0xe0
 80012c2:	4a26      	ldr	r2, [pc, #152]	; (800135c <HAL_I2C_MspInit+0x10c>)
 80012c4:	f043 0304 	orr.w	r3, r3, #4
 80012c8:	f8c2 30e0 	str.w	r3, [r2, #224]	; 0xe0
 80012cc:	4b23      	ldr	r3, [pc, #140]	; (800135c <HAL_I2C_MspInit+0x10c>)
 80012ce:	f8d3 30e0 	ldr.w	r3, [r3, #224]	; 0xe0
 80012d2:	f003 0304 	and.w	r3, r3, #4
 80012d6:	613b      	str	r3, [r7, #16]
 80012d8:	693b      	ldr	r3, [r7, #16]
    /**I2C3 GPIO Configuration
    PA8     ------> I2C3_SCL
    PC9     ------> I2C3_SDA
    */
    GPIO_InitStruct.Pin = GPIO_PIN_8;
 80012da:	f44f 7380 	mov.w	r3, #256	; 0x100
 80012de:	f8c7 30d4 	str.w	r3, [r7, #212]	; 0xd4
    GPIO_InitStruct.Mode = GPIO_MODE_AF_OD;
 80012e2:	2312      	movs	r3, #18
 80012e4:	f8c7 30d8 	str.w	r3, [r7, #216]	; 0xd8
    GPIO_InitStruct.Pull = GPIO_NOPULL;
 80012e8:	2300      	movs	r3, #0
 80012ea:	f8c7 30dc 	str.w	r3, [r7, #220]	; 0xdc
    GPIO_InitStruct.Speed = GPIO_SPEED_FREQ_LOW;
 80012ee:	2300      	movs	r3, #0
 80012f0:	f8c7 30e0 	str.w	r3, [r7, #224]	; 0xe0
    GPIO_InitStruct.Alternate = GPIO_AF4_I2C3;
 80012f4:	2304      	movs	r3, #4
 80012f6:	f8c7 30e4 	str.w	r3, [r7, #228]	; 0xe4
    HAL_GPIO_Init(GPIOA, &GPIO_InitStruct);
 80012fa:	f107 03d4 	add.w	r3, r7, #212	; 0xd4
 80012fe:	4619      	mov	r1, r3
 8001300:	4817      	ldr	r0, [pc, #92]	; (8001360 <HAL_I2C_MspInit+0x110>)
 8001302:	f000 fb99 	bl	8001a38 <HAL_GPIO_Init>

    GPIO_InitStruct.Pin = GPIO_PIN_9;
 8001306:	f44f 7300 	mov.w	r3, #512	; 0x200
 800130a:	f8c7 30d4 	str.w	r3, [r7, #212]	; 0xd4
    GPIO_InitStruct.Mode = GPIO_MODE_AF_OD;
 800130e:	2312      	movs	r3, #18
 8001310:	f8c7 30d8 	str.w	r3, [r7, #216]	; 0xd8
    GPIO_InitStruct.Pull = GPIO_NOPULL;
 8001314:	2300      	movs	r3, #0
 8001316:	f8c7 30dc 	str.w	r3, [r7, #220]	; 0xdc
    GPIO_InitStruct.Speed = GPIO_SPEED_FREQ_LOW;
 800131a:	2300      	movs	r3, #0
 800131c:	f8c7 30e0 	str.w	r3, [r7, #224]	; 0xe0
    GPIO_InitStruct.Alternate = GPIO_AF4_I2C3;
 8001320:	2304      	movs	r3, #4
 8001322:	f8c7 30e4 	str.w	r3, [r7, #228]	; 0xe4
    HAL_GPIO_Init(GPIOC, &GPIO_InitStruct);
 8001326:	f107 03d4 	add.w	r3, r7, #212	; 0xd4
 800132a:	4619      	mov	r1, r3
 800132c:	480d      	ldr	r0, [pc, #52]	; (8001364 <HAL_I2C_MspInit+0x114>)
 800132e:	f000 fb83 	bl	8001a38 <HAL_GPIO_Init>

    /* Peripheral clock enable */
    __HAL_RCC_I2C3_CLK_ENABLE();
 8001332:	4b0a      	ldr	r3, [pc, #40]	; (800135c <HAL_I2C_MspInit+0x10c>)
 8001334:	f8d3 30e8 	ldr.w	r3, [r3, #232]	; 0xe8
 8001338:	4a08      	ldr	r2, [pc, #32]	; (800135c <HAL_I2C_MspInit+0x10c>)
 800133a:	f443 0300 	orr.w	r3, r3, #8388608	; 0x800000
 800133e:	f8c2 30e8 	str.w	r3, [r2, #232]	; 0xe8
 8001342:	4b06      	ldr	r3, [pc, #24]	; (800135c <HAL_I2C_MspInit+0x10c>)
 8001344:	f8d3 30e8 	ldr.w	r3, [r3, #232]	; 0xe8
 8001348:	f403 0300 	and.w	r3, r3, #8388608	; 0x800000
 800134c:	60fb      	str	r3, [r7, #12]
 800134e:	68fb      	ldr	r3, [r7, #12]
  /* USER CODE BEGIN I2C3_MspInit 1 */

  /* USER CODE END I2C3_MspInit 1 */
  }

}
 8001350:	bf00      	nop
 8001352:	37e8      	adds	r7, #232	; 0xe8
 8001354:	46bd      	mov	sp, r7
 8001356:	bd80      	pop	{r7, pc}
 8001358:	40005c00 	.word	0x40005c00
 800135c:	58024400 	.word	0x58024400
 8001360:	58020000 	.word	0x58020000
 8001364:	58020800 	.word	0x58020800

08001368 <HAL_SPI_MspInit>:
* This function configures the hardware resources used in this example
* @param hspi: SPI handle pointer
* @retval None
*/
void HAL_SPI_MspInit(SPI_HandleTypeDef* hspi)
{
 8001368:	b580      	push	{r7, lr}
 800136a:	b0b8      	sub	sp, #224	; 0xe0
 800136c:	af00      	add	r7, sp, #0
 800136e:	6078      	str	r0, [r7, #4]
  GPIO_InitTypeDef GPIO_InitStruct = {0};
 8001370:	f107 03cc 	add.w	r3, r7, #204	; 0xcc
 8001374:	2200      	movs	r2, #0
 8001376:	601a      	str	r2, [r3, #0]
 8001378:	605a      	str	r2, [r3, #4]
 800137a:	609a      	str	r2, [r3, #8]
 800137c:	60da      	str	r2, [r3, #12]
 800137e:	611a      	str	r2, [r3, #16]
  RCC_PeriphCLKInitTypeDef PeriphClkInitStruct = {0};
 8001380:	f107 0310 	add.w	r3, r7, #16
 8001384:	22bc      	movs	r2, #188	; 0xbc
 8001386:	2100      	movs	r1, #0
 8001388:	4618      	mov	r0, r3
 800138a:	f005 ff9b 	bl	80072c4 <memset>
  if(hspi->Instance==SPI4)
 800138e:	687b      	ldr	r3, [r7, #4]
 8001390:	681b      	ldr	r3, [r3, #0]
 8001392:	4a25      	ldr	r2, [pc, #148]	; (8001428 <HAL_SPI_MspInit+0xc0>)
 8001394:	4293      	cmp	r3, r2
 8001396:	d142      	bne.n	800141e <HAL_SPI_MspInit+0xb6>

  /* USER CODE END SPI4_MspInit 0 */

  /** Initializes the peripherals clock
  */
    PeriphClkInitStruct.PeriphClockSelection = RCC_PERIPHCLK_SPI4;
 8001398:	f44f 5300 	mov.w	r3, #8192	; 0x2000
 800139c:	613b      	str	r3, [r7, #16]
    PeriphClkInitStruct.Spi45ClockSelection = RCC_SPI45CLKSOURCE_D2PCLK1;
 800139e:	2300      	movs	r3, #0
 80013a0:	673b      	str	r3, [r7, #112]	; 0x70
    if (HAL_RCCEx_PeriphCLKConfig(&PeriphClkInitStruct) != HAL_OK)
 80013a2:	f107 0310 	add.w	r3, r7, #16
 80013a6:	4618      	mov	r0, r3
 80013a8:	f002 fb4e 	bl	8003a48 <HAL_RCCEx_PeriphCLKConfig>
 80013ac:	4603      	mov	r3, r0
 80013ae:	2b00      	cmp	r3, #0
 80013b0:	d001      	beq.n	80013b6 <HAL_SPI_MspInit+0x4e>
    {
      Error_Handler();
 80013b2:	f7ff ff2d 	bl	8001210 <Error_Handler>
    }

    /* Peripheral clock enable */
    __HAL_RCC_SPI4_CLK_ENABLE();
 80013b6:	4b1d      	ldr	r3, [pc, #116]	; (800142c <HAL_SPI_MspInit+0xc4>)
 80013b8:	f8d3 30f0 	ldr.w	r3, [r3, #240]	; 0xf0
 80013bc:	4a1b      	ldr	r2, [pc, #108]	; (800142c <HAL_SPI_MspInit+0xc4>)
 80013be:	f443 5300 	orr.w	r3, r3, #8192	; 0x2000
 80013c2:	f8c2 30f0 	str.w	r3, [r2, #240]	; 0xf0
 80013c6:	4b19      	ldr	r3, [pc, #100]	; (800142c <HAL_SPI_MspInit+0xc4>)
 80013c8:	f8d3 30f0 	ldr.w	r3, [r3, #240]	; 0xf0
 80013cc:	f403 5300 	and.w	r3, r3, #8192	; 0x2000
 80013d0:	60fb      	str	r3, [r7, #12]
 80013d2:	68fb      	ldr	r3, [r7, #12]

    __HAL_RCC_GPIOE_CLK_ENABLE();
 80013d4:	4b15      	ldr	r3, [pc, #84]	; (800142c <HAL_SPI_MspInit+0xc4>)
 80013d6:	f8d3 30e0 	ldr.w	r3, [r3, #224]	; 0xe0
 80013da:	4a14      	ldr	r2, [pc, #80]	; (800142c <HAL_SPI_MspInit+0xc4>)
 80013dc:	f043 0310 	orr.w	r3, r3, #16
 80013e0:	f8c2 30e0 	str.w	r3, [r2, #224]	; 0xe0
 80013e4:	4b11      	ldr	r3, [pc, #68]	; (800142c <HAL_SPI_MspInit+0xc4>)
 80013e6:	f8d3 30e0 	ldr.w	r3, [r3, #224]	; 0xe0
 80013ea:	f003 0310 	and.w	r3, r3, #16
 80013ee:	60bb      	str	r3, [r7, #8]
 80013f0:	68bb      	ldr	r3, [r7, #8]
    /**SPI4 GPIO Configuration
    PE5     ------> SPI4_MISO
    PE6     ------> SPI4_MOSI
    PE12     ------> SPI4_SCK
    */
    GPIO_InitStruct.Pin = GPIO_PIN_5|GPIO_PIN_6|GPIO_PIN_12;
 80013f2:	f44f 5383 	mov.w	r3, #4192	; 0x1060
 80013f6:	f8c7 30cc 	str.w	r3, [r7, #204]	; 0xcc
    GPIO_InitStruct.Mode = GPIO_MODE_AF_PP;
 80013fa:	2302      	movs	r3, #2
 80013fc:	f8c7 30d0 	str.w	r3, [r7, #208]	; 0xd0
    GPIO_InitStruct.Pull = GPIO_NOPULL;
 8001400:	2300      	movs	r3, #0
 8001402:	f8c7 30d4 	str.w	r3, [r7, #212]	; 0xd4
    GPIO_InitStruct.Speed = GPIO_SPEED_FREQ_LOW;
 8001406:	2300      	movs	r3, #0
 8001408:	f8c7 30d8 	str.w	r3, [r7, #216]	; 0xd8
    GPIO_InitStruct.Alternate = GPIO_AF5_SPI4;
 800140c:	2305      	movs	r3, #5
 800140e:	f8c7 30dc 	str.w	r3, [r7, #220]	; 0xdc
    HAL_GPIO_Init(GPIOE, &GPIO_InitStruct);
 8001412:	f107 03cc 	add.w	r3, r7, #204	; 0xcc
 8001416:	4619      	mov	r1, r3
 8001418:	4805      	ldr	r0, [pc, #20]	; (8001430 <HAL_SPI_MspInit+0xc8>)
 800141a:	f000 fb0d 	bl	8001a38 <HAL_GPIO_Init>
  /* USER CODE BEGIN SPI4_MspInit 1 */

  /* USER CODE END SPI4_MspInit 1 */
  }

}
 800141e:	bf00      	nop
 8001420:	37e0      	adds	r7, #224	; 0xe0
 8001422:	46bd      	mov	sp, r7
 8001424:	bd80      	pop	{r7, pc}
 8001426:	bf00      	nop
 8001428:	40013400 	.word	0x40013400
 800142c:	58024400 	.word	0x58024400
 8001430:	58021000 	.word	0x58021000

08001434 <HAL_UART_MspInit>:
* This function configures the hardware resources used in this example
* @param huart: UART handle pointer
* @retval None
*/
void HAL_UART_MspInit(UART_HandleTypeDef* huart)
{
 8001434:	b580      	push	{r7, lr}
 8001436:	b0b8      	sub	sp, #224	; 0xe0
 8001438:	af00      	add	r7, sp, #0
 800143a:	6078      	str	r0, [r7, #4]
  GPIO_InitTypeDef GPIO_InitStruct = {0};
 800143c:	f107 03cc 	add.w	r3, r7, #204	; 0xcc
 8001440:	2200      	movs	r2, #0
 8001442:	601a      	str	r2, [r3, #0]
 8001444:	605a      	str	r2, [r3, #4]
 8001446:	609a      	str	r2, [r3, #8]
 8001448:	60da      	str	r2, [r3, #12]
 800144a:	611a      	str	r2, [r3, #16]
  RCC_PeriphCLKInitTypeDef PeriphClkInitStruct = {0};
 800144c:	f107 0310 	add.w	r3, r7, #16
 8001450:	22bc      	movs	r2, #188	; 0xbc
 8001452:	2100      	movs	r1, #0
 8001454:	4618      	mov	r0, r3
 8001456:	f005 ff35 	bl	80072c4 <memset>
  if(huart->Instance==USART2)
 800145a:	687b      	ldr	r3, [r7, #4]
 800145c:	681b      	ldr	r3, [r3, #0]
 800145e:	4a24      	ldr	r2, [pc, #144]	; (80014f0 <HAL_UART_MspInit+0xbc>)
 8001460:	4293      	cmp	r3, r2
 8001462:	d141      	bne.n	80014e8 <HAL_UART_MspInit+0xb4>

  /* USER CODE END USART2_MspInit 0 */

  /** Initializes the peripherals clock
  */
    PeriphClkInitStruct.PeriphClockSelection = RCC_PERIPHCLK_USART2;
 8001464:	2302      	movs	r3, #2
 8001466:	613b      	str	r3, [r7, #16]
    PeriphClkInitStruct.Usart234578ClockSelection = RCC_USART234578CLKSOURCE_D2PCLK1;
 8001468:	2300      	movs	r3, #0
 800146a:	f8c7 3084 	str.w	r3, [r7, #132]	; 0x84
    if (HAL_RCCEx_PeriphCLKConfig(&PeriphClkInitStruct) != HAL_OK)
 800146e:	f107 0310 	add.w	r3, r7, #16
 8001472:	4618      	mov	r0, r3
 8001474:	f002 fae8 	bl	8003a48 <HAL_RCCEx_PeriphCLKConfig>
 8001478:	4603      	mov	r3, r0
 800147a:	2b00      	cmp	r3, #0
 800147c:	d001      	beq.n	8001482 <HAL_UART_MspInit+0x4e>
    {
      Error_Handler();
 800147e:	f7ff fec7 	bl	8001210 <Error_Handler>
    }

    /* Peripheral clock enable */
    __HAL_RCC_USART2_CLK_ENABLE();
 8001482:	4b1c      	ldr	r3, [pc, #112]	; (80014f4 <HAL_UART_MspInit+0xc0>)
 8001484:	f8d3 30e8 	ldr.w	r3, [r3, #232]	; 0xe8
 8001488:	4a1a      	ldr	r2, [pc, #104]	; (80014f4 <HAL_UART_MspInit+0xc0>)
 800148a:	f443 3300 	orr.w	r3, r3, #131072	; 0x20000
 800148e:	f8c2 30e8 	str.w	r3, [r2, #232]	; 0xe8
 8001492:	4b18      	ldr	r3, [pc, #96]	; (80014f4 <HAL_UART_MspInit+0xc0>)
 8001494:	f8d3 30e8 	ldr.w	r3, [r3, #232]	; 0xe8
 8001498:	f403 3300 	and.w	r3, r3, #131072	; 0x20000
 800149c:	60fb      	str	r3, [r7, #12]
 800149e:	68fb      	ldr	r3, [r7, #12]

    __HAL_RCC_GPIOD_CLK_ENABLE();
 80014a0:	4b14      	ldr	r3, [pc, #80]	; (80014f4 <HAL_UART_MspInit+0xc0>)
 80014a2:	f8d3 30e0 	ldr.w	r3, [r3, #224]	; 0xe0
 80014a6:	4a13      	ldr	r2, [pc, #76]	; (80014f4 <HAL_UART_MspInit+0xc0>)
 80014a8:	f043 0308 	orr.w	r3, r3, #8
 80014ac:	f8c2 30e0 	str.w	r3, [r2, #224]	; 0xe0
 80014b0:	4b10      	ldr	r3, [pc, #64]	; (80014f4 <HAL_UART_MspInit+0xc0>)
 80014b2:	f8d3 30e0 	ldr.w	r3, [r3, #224]	; 0xe0
 80014b6:	f003 0308 	and.w	r3, r3, #8
 80014ba:	60bb      	str	r3, [r7, #8]
 80014bc:	68bb      	ldr	r3, [r7, #8]
    /**USART2 GPIO Configuration
    PD5     ------> USART2_TX
    PD6     ------> USART2_RX
    */
    GPIO_InitStruct.Pin = GPIO_PIN_5|GPIO_PIN_6;
 80014be:	2360      	movs	r3, #96	; 0x60
 80014c0:	f8c7 30cc 	str.w	r3, [r7, #204]	; 0xcc
    GPIO_InitStruct.Mode = GPIO_MODE_AF_PP;
 80014c4:	2302      	movs	r3, #2
 80014c6:	f8c7 30d0 	str.w	r3, [r7, #208]	; 0xd0
    GPIO_InitStruct.Pull = GPIO_NOPULL;
 80014ca:	2300      	movs	r3, #0
 80014cc:	f8c7 30d4 	str.w	r3, [r7, #212]	; 0xd4
    GPIO_InitStruct.Speed = GPIO_SPEED_FREQ_LOW;
 80014d0:	2300      	movs	r3, #0
 80014d2:	f8c7 30d8 	str.w	r3, [r7, #216]	; 0xd8
    GPIO_InitStruct.Alternate = GPIO_AF7_USART2;
 80014d6:	2307      	movs	r3, #7
 80014d8:	f8c7 30dc 	str.w	r3, [r7, #220]	; 0xdc
    HAL_GPIO_Init(GPIOD, &GPIO_InitStruct);
 80014dc:	f107 03cc 	add.w	r3, r7, #204	; 0xcc
 80014e0:	4619      	mov	r1, r3
 80014e2:	4805      	ldr	r0, [pc, #20]	; (80014f8 <HAL_UART_MspInit+0xc4>)
 80014e4:	f000 faa8 	bl	8001a38 <HAL_GPIO_Init>
  /* USER CODE BEGIN USART2_MspInit 1 */

  /* USER CODE END USART2_MspInit 1 */
  }

}
 80014e8:	bf00      	nop
 80014ea:	37e0      	adds	r7, #224	; 0xe0
 80014ec:	46bd      	mov	sp, r7
 80014ee:	bd80      	pop	{r7, pc}
 80014f0:	40004400 	.word	0x40004400
 80014f4:	58024400 	.word	0x58024400
 80014f8:	58020c00 	.word	0x58020c00

080014fc <NMI_Handler>:
/******************************************************************************/
/**
  * @brief This function handles Non maskable interrupt.
  */
void NMI_Handler(void)
{
 80014fc:	b480      	push	{r7}
 80014fe:	af00      	add	r7, sp, #0
  /* USER CODE BEGIN NonMaskableInt_IRQn 0 */

  /* USER CODE END NonMaskableInt_IRQn 0 */
  /* USER CODE BEGIN NonMaskableInt_IRQn 1 */
  while (1)
 8001500:	e7fe      	b.n	8001500 <NMI_Handler+0x4>

08001502 <HardFault_Handler>:

/**
  * @brief This function handles Hard fault interrupt.
  */
void HardFault_Handler(void)
{
 8001502:	b480      	push	{r7}
 8001504:	af00      	add	r7, sp, #0
  /* USER CODE BEGIN HardFault_IRQn 0 */

  /* USER CODE END HardFault_IRQn 0 */
  while (1)
 8001506:	e7fe      	b.n	8001506 <HardFault_Handler+0x4>

08001508 <MemManage_Handler>:

/**
  * @brief This function handles Memory management fault.
  */
void MemManage_Handler(void)
{
 8001508:	b480      	push	{r7}
 800150a:	af00      	add	r7, sp, #0
  /* USER CODE BEGIN MemoryManagement_IRQn 0 */

  /* USER CODE END MemoryManagement_IRQn 0 */
  while (1)
 800150c:	e7fe      	b.n	800150c <MemManage_Handler+0x4>

0800150e <BusFault_Handler>:

/**
  * @brief This function handles Pre-fetch fault, memory access fault.
  */
void BusFault_Handler(void)
{
 800150e:	b480      	push	{r7}
 8001510:	af00      	add	r7, sp, #0
  /* USER CODE BEGIN BusFault_IRQn 0 */

  /* USER CODE END BusFault_IRQn 0 */
  while (1)
 8001512:	e7fe      	b.n	8001512 <BusFault_Handler+0x4>

08001514 <UsageFault_Handler>:

/**
  * @brief This function handles Undefined instruction or illegal state.
  */
void UsageFault_Handler(void)
{
 8001514:	b480      	push	{r7}
 8001516:	af00      	add	r7, sp, #0
  /* USER CODE BEGIN UsageFault_IRQn 0 */

  /* USER CODE END UsageFault_IRQn 0 */
  while (1)
 8001518:	e7fe      	b.n	8001518 <UsageFault_Handler+0x4>

0800151a <SVC_Handler>:

/**
  * @brief This function handles System service call via SWI instruction.
  */
void SVC_Handler(void)
{
 800151a:	b480      	push	{r7}
 800151c:	af00      	add	r7, sp, #0

  /* USER CODE END SVCall_IRQn 0 */
  /* USER CODE BEGIN SVCall_IRQn 1 */

  /* USER CODE END SVCall_IRQn 1 */
}
 800151e:	bf00      	nop
 8001520:	46bd      	mov	sp, r7
 8001522:	f85d 7b04 	ldr.w	r7, [sp], #4
 8001526:	4770      	bx	lr

08001528 <DebugMon_Handler>:

/**
  * @brief This function handles Debug monitor.
  */
void DebugMon_Handler(void)
{
 8001528:	b480      	push	{r7}
 800152a:	af00      	add	r7, sp, #0

  /* USER CODE END DebugMonitor_IRQn 0 */
  /* USER CODE BEGIN DebugMonitor_IRQn 1 */

  /* USER CODE END DebugMonitor_IRQn 1 */
}
 800152c:	bf00      	nop
 800152e:	46bd      	mov	sp, r7
 8001530:	f85d 7b04 	ldr.w	r7, [sp], #4
 8001534:	4770      	bx	lr

08001536 <PendSV_Handler>:

/**
  * @brief This function handles Pendable request for system service.
  */
void PendSV_Handler(void)
{
 8001536:	b480      	push	{r7}
 8001538:	af00      	add	r7, sp, #0

  /* USER CODE END PendSV_IRQn 0 */
  /* USER CODE BEGIN PendSV_IRQn 1 */

  /* USER CODE END PendSV_IRQn 1 */
}
 800153a:	bf00      	nop
 800153c:	46bd      	mov	sp, r7
 800153e:	f85d 7b04 	ldr.w	r7, [sp], #4
 8001542:	4770      	bx	lr

08001544 <SysTick_Handler>:

/**
  * @brief This function handles System tick timer.
  */
void SysTick_Handler(void)
{
 8001544:	b580      	push	{r7, lr}
 8001546:	af00      	add	r7, sp, #0
  /* USER CODE BEGIN SysTick_IRQn 0 */

  /* USER CODE END SysTick_IRQn 0 */
  HAL_IncTick();
 8001548:	f000 f942 	bl	80017d0 <HAL_IncTick>
  /* USER CODE BEGIN SysTick_IRQn 1 */

  /* USER CODE END SysTick_IRQn 1 */
}
 800154c:	bf00      	nop
 800154e:	bd80      	pop	{r7, pc}

08001550 <_read>:
	_kill(status, -1);
	while (1) {}		/* Make sure we hang here */
}

__attribute__((weak)) int _read(int file, char *ptr, int len)
{
 8001550:	b580      	push	{r7, lr}
 8001552:	b086      	sub	sp, #24
 8001554:	af00      	add	r7, sp, #0
 8001556:	60f8      	str	r0, [r7, #12]
 8001558:	60b9      	str	r1, [r7, #8]
 800155a:	607a      	str	r2, [r7, #4]
	int DataIdx;

	for (DataIdx = 0; DataIdx < len; DataIdx++)
 800155c:	2300      	movs	r3, #0
 800155e:	617b      	str	r3, [r7, #20]
 8001560:	e00a      	b.n	8001578 <_read+0x28>
	{
		*ptr++ = __io_getchar();
 8001562:	f3af 8000 	nop.w
 8001566:	4601      	mov	r1, r0
 8001568:	68bb      	ldr	r3, [r7, #8]
 800156a:	1c5a      	adds	r2, r3, #1
 800156c:	60ba      	str	r2, [r7, #8]
 800156e:	b2ca      	uxtb	r2, r1
 8001570:	701a      	strb	r2, [r3, #0]
	for (DataIdx = 0; DataIdx < len; DataIdx++)
 8001572:	697b      	ldr	r3, [r7, #20]
 8001574:	3301      	adds	r3, #1
 8001576:	617b      	str	r3, [r7, #20]
 8001578:	697a      	ldr	r2, [r7, #20]
 800157a:	687b      	ldr	r3, [r7, #4]
 800157c:	429a      	cmp	r2, r3
 800157e:	dbf0      	blt.n	8001562 <_read+0x12>
	}

return len;
 8001580:	687b      	ldr	r3, [r7, #4]
}
 8001582:	4618      	mov	r0, r3
 8001584:	3718      	adds	r7, #24
 8001586:	46bd      	mov	sp, r7
 8001588:	bd80      	pop	{r7, pc}

0800158a <_write>:

__attribute__((weak)) int _write(int file, char *ptr, int len)
{
 800158a:	b580      	push	{r7, lr}
 800158c:	b086      	sub	sp, #24
 800158e:	af00      	add	r7, sp, #0
 8001590:	60f8      	str	r0, [r7, #12]
 8001592:	60b9      	str	r1, [r7, #8]
 8001594:	607a      	str	r2, [r7, #4]
	int DataIdx;

	for (DataIdx = 0; DataIdx < len; DataIdx++)
 8001596:	2300      	movs	r3, #0
 8001598:	617b      	str	r3, [r7, #20]
 800159a:	e009      	b.n	80015b0 <_write+0x26>
	{
		__io_putchar(*ptr++);
 800159c:	68bb      	ldr	r3, [r7, #8]
 800159e:	1c5a      	adds	r2, r3, #1
 80015a0:	60ba      	str	r2, [r7, #8]
 80015a2:	781b      	ldrb	r3, [r3, #0]
 80015a4:	4618      	mov	r0, r3
 80015a6:	f7ff fe21 	bl	80011ec <__io_putchar>
	for (DataIdx = 0; DataIdx < len; DataIdx++)
 80015aa:	697b      	ldr	r3, [r7, #20]
 80015ac:	3301      	adds	r3, #1
 80015ae:	617b      	str	r3, [r7, #20]
 80015b0:	697a      	ldr	r2, [r7, #20]
 80015b2:	687b      	ldr	r3, [r7, #4]
 80015b4:	429a      	cmp	r2, r3
 80015b6:	dbf1      	blt.n	800159c <_write+0x12>
	}
	return len;
 80015b8:	687b      	ldr	r3, [r7, #4]
}
 80015ba:	4618      	mov	r0, r3
 80015bc:	3718      	adds	r7, #24
 80015be:	46bd      	mov	sp, r7
 80015c0:	bd80      	pop	{r7, pc}

080015c2 <_close>:

int _close(int file)
{
 80015c2:	b480      	push	{r7}
 80015c4:	b083      	sub	sp, #12
 80015c6:	af00      	add	r7, sp, #0
 80015c8:	6078      	str	r0, [r7, #4]
	return -1;
 80015ca:	f04f 33ff 	mov.w	r3, #4294967295
}
 80015ce:	4618      	mov	r0, r3
 80015d0:	370c      	adds	r7, #12
 80015d2:	46bd      	mov	sp, r7
 80015d4:	f85d 7b04 	ldr.w	r7, [sp], #4
 80015d8:	4770      	bx	lr

080015da <_fstat>:


int _fstat(int file, struct stat *st)
{
 80015da:	b480      	push	{r7}
 80015dc:	b083      	sub	sp, #12
 80015de:	af00      	add	r7, sp, #0
 80015e0:	6078      	str	r0, [r7, #4]
 80015e2:	6039      	str	r1, [r7, #0]
	st->st_mode = S_IFCHR;
 80015e4:	683b      	ldr	r3, [r7, #0]
 80015e6:	f44f 5200 	mov.w	r2, #8192	; 0x2000
 80015ea:	605a      	str	r2, [r3, #4]
	return 0;
 80015ec:	2300      	movs	r3, #0
}
 80015ee:	4618      	mov	r0, r3
 80015f0:	370c      	adds	r7, #12
 80015f2:	46bd      	mov	sp, r7
 80015f4:	f85d 7b04 	ldr.w	r7, [sp], #4
 80015f8:	4770      	bx	lr

080015fa <_isatty>:

int _isatty(int file)
{
 80015fa:	b480      	push	{r7}
 80015fc:	b083      	sub	sp, #12
 80015fe:	af00      	add	r7, sp, #0
 8001600:	6078      	str	r0, [r7, #4]
	return 1;
 8001602:	2301      	movs	r3, #1
}
 8001604:	4618      	mov	r0, r3
 8001606:	370c      	adds	r7, #12
 8001608:	46bd      	mov	sp, r7
 800160a:	f85d 7b04 	ldr.w	r7, [sp], #4
 800160e:	4770      	bx	lr

08001610 <_lseek>:

int _lseek(int file, int ptr, int dir)
{
 8001610:	b480      	push	{r7}
 8001612:	b085      	sub	sp, #20
 8001614:	af00      	add	r7, sp, #0
 8001616:	60f8      	str	r0, [r7, #12]
 8001618:	60b9      	str	r1, [r7, #8]
 800161a:	607a      	str	r2, [r7, #4]
	return 0;
 800161c:	2300      	movs	r3, #0
}
 800161e:	4618      	mov	r0, r3
 8001620:	3714      	adds	r7, #20
 8001622:	46bd      	mov	sp, r7
 8001624:	f85d 7b04 	ldr.w	r7, [sp], #4
 8001628:	4770      	bx	lr
	...

0800162c <_sbrk>:
 *
 * @param incr Memory size
 * @return Pointer to allocated memory
 */
void *_sbrk(ptrdiff_t incr)
{
 800162c:	b580      	push	{r7, lr}
 800162e:	b086      	sub	sp, #24
 8001630:	af00      	add	r7, sp, #0
 8001632:	6078      	str	r0, [r7, #4]
  extern uint8_t _end; /* Symbol defined in the linker script */
  extern uint8_t _estack; /* Symbol defined in the linker script */
  extern uint32_t _Min_Stack_Size; /* Symbol defined in the linker script */
  const uint32_t stack_limit = (uint32_t)&_estack - (uint32_t)&_Min_Stack_Size;
 8001634:	4a14      	ldr	r2, [pc, #80]	; (8001688 <_sbrk+0x5c>)
 8001636:	4b15      	ldr	r3, [pc, #84]	; (800168c <_sbrk+0x60>)
 8001638:	1ad3      	subs	r3, r2, r3
 800163a:	617b      	str	r3, [r7, #20]
  const uint8_t *max_heap = (uint8_t *)stack_limit;
 800163c:	697b      	ldr	r3, [r7, #20]
 800163e:	613b      	str	r3, [r7, #16]
  uint8_t *prev_heap_end;

  /* Initialize heap end at first call */
  if (NULL == __sbrk_heap_end)
 8001640:	4b13      	ldr	r3, [pc, #76]	; (8001690 <_sbrk+0x64>)
 8001642:	681b      	ldr	r3, [r3, #0]
 8001644:	2b00      	cmp	r3, #0
 8001646:	d102      	bne.n	800164e <_sbrk+0x22>
  {
    __sbrk_heap_end = &_end;
 8001648:	4b11      	ldr	r3, [pc, #68]	; (8001690 <_sbrk+0x64>)
 800164a:	4a12      	ldr	r2, [pc, #72]	; (8001694 <_sbrk+0x68>)
 800164c:	601a      	str	r2, [r3, #0]
  }

  /* Protect heap from growing into the reserved MSP stack */
  if (__sbrk_heap_end + incr > max_heap)
 800164e:	4b10      	ldr	r3, [pc, #64]	; (8001690 <_sbrk+0x64>)
 8001650:	681a      	ldr	r2, [r3, #0]
 8001652:	687b      	ldr	r3, [r7, #4]
 8001654:	4413      	add	r3, r2
 8001656:	693a      	ldr	r2, [r7, #16]
 8001658:	429a      	cmp	r2, r3
 800165a:	d207      	bcs.n	800166c <_sbrk+0x40>
  {
    errno = ENOMEM;
 800165c:	f005 fe08 	bl	8007270 <__errno>
 8001660:	4603      	mov	r3, r0
 8001662:	220c      	movs	r2, #12
 8001664:	601a      	str	r2, [r3, #0]
    return (void *)-1;
 8001666:	f04f 33ff 	mov.w	r3, #4294967295
 800166a:	e009      	b.n	8001680 <_sbrk+0x54>
  }

  prev_heap_end = __sbrk_heap_end;
 800166c:	4b08      	ldr	r3, [pc, #32]	; (8001690 <_sbrk+0x64>)
 800166e:	681b      	ldr	r3, [r3, #0]
 8001670:	60fb      	str	r3, [r7, #12]
  __sbrk_heap_end += incr;
 8001672:	4b07      	ldr	r3, [pc, #28]	; (8001690 <_sbrk+0x64>)
 8001674:	681a      	ldr	r2, [r3, #0]
 8001676:	687b      	ldr	r3, [r7, #4]
 8001678:	4413      	add	r3, r2
 800167a:	4a05      	ldr	r2, [pc, #20]	; (8001690 <_sbrk+0x64>)
 800167c:	6013      	str	r3, [r2, #0]

  return (void *)prev_heap_end;
 800167e:	68fb      	ldr	r3, [r7, #12]
}
 8001680:	4618      	mov	r0, r3
 8001682:	3718      	adds	r7, #24
 8001684:	46bd      	mov	sp, r7
 8001686:	bd80      	pop	{r7, pc}
 8001688:	24080000 	.word	0x24080000
 800168c:	00000400 	.word	0x00000400
 8001690:	240002a8 	.word	0x240002a8
 8001694:	240002c0 	.word	0x240002c0

08001698 <Reset_Handler>:

    .section  .text.Reset_Handler
  .weak  Reset_Handler
  .type  Reset_Handler, %function
Reset_Handler:
  ldr   sp, =_estack      /* set stack pointer */
 8001698:	f8df d034 	ldr.w	sp, [pc, #52]	; 80016d0 <LoopFillZerobss+0xe>

/* Call the clock system initialization function.*/
  bl  SystemInit
 800169c:	f7fe fff2 	bl	8000684 <SystemInit>

/* Copy the data segment initializers from flash to SRAM */
  ldr r0, =_sdata
 80016a0:	480c      	ldr	r0, [pc, #48]	; (80016d4 <LoopFillZerobss+0x12>)
  ldr r1, =_edata
 80016a2:	490d      	ldr	r1, [pc, #52]	; (80016d8 <LoopFillZerobss+0x16>)
  ldr r2, =_sidata
 80016a4:	4a0d      	ldr	r2, [pc, #52]	; (80016dc <LoopFillZerobss+0x1a>)
  movs r3, #0
 80016a6:	2300      	movs	r3, #0
  b LoopCopyDataInit
 80016a8:	e002      	b.n	80016b0 <LoopCopyDataInit>

080016aa <CopyDataInit>:

CopyDataInit:
  ldr r4, [r2, r3]
 80016aa:	58d4      	ldr	r4, [r2, r3]
  str r4, [r0, r3]
 80016ac:	50c4      	str	r4, [r0, r3]
  adds r3, r3, #4
 80016ae:	3304      	adds	r3, #4

080016b0 <LoopCopyDataInit>:

LoopCopyDataInit:
  adds r4, r0, r3
 80016b0:	18c4      	adds	r4, r0, r3
  cmp r4, r1
 80016b2:	428c      	cmp	r4, r1
  bcc CopyDataInit
 80016b4:	d3f9      	bcc.n	80016aa <CopyDataInit>
/* Zero fill the bss segment. */
  ldr r2, =_sbss
 80016b6:	4a0a      	ldr	r2, [pc, #40]	; (80016e0 <LoopFillZerobss+0x1e>)
  ldr r4, =_ebss
 80016b8:	4c0a      	ldr	r4, [pc, #40]	; (80016e4 <LoopFillZerobss+0x22>)
  movs r3, #0
 80016ba:	2300      	movs	r3, #0
  b LoopFillZerobss
 80016bc:	e001      	b.n	80016c2 <LoopFillZerobss>

080016be <FillZerobss>:

FillZerobss:
  str  r3, [r2]
 80016be:	6013      	str	r3, [r2, #0]
  adds r2, r2, #4
 80016c0:	3204      	adds	r2, #4

080016c2 <LoopFillZerobss>:

LoopFillZerobss:
  cmp r2, r4
 80016c2:	42a2      	cmp	r2, r4
  bcc FillZerobss
 80016c4:	d3fb      	bcc.n	80016be <FillZerobss>

/* Call static constructors */
    bl __libc_init_array
 80016c6:	f005 fdd9 	bl	800727c <__libc_init_array>
/* Call the application's entry point.*/
  bl  main
 80016ca:	f7ff fac5 	bl	8000c58 <main>
  bx  lr
 80016ce:	4770      	bx	lr
  ldr   sp, =_estack      /* set stack pointer */
 80016d0:	24080000 	.word	0x24080000
  ldr r0, =_sdata
 80016d4:	24000000 	.word	0x24000000
  ldr r1, =_edata
 80016d8:	24000128 	.word	0x24000128
  ldr r2, =_sidata
 80016dc:	08008324 	.word	0x08008324
  ldr r2, =_sbss
 80016e0:	24000128 	.word	0x24000128
  ldr r4, =_ebss
 80016e4:	240002c0 	.word	0x240002c0

080016e8 <ADC3_IRQHandler>:
 * @retval None
*/
    .section  .text.Default_Handler,"ax",%progbits
Default_Handler:
Infinite_Loop:
  b  Infinite_Loop
 80016e8:	e7fe      	b.n	80016e8 <ADC3_IRQHandler>
	...

080016ec <HAL_Init>:
  *         need to ensure that the SysTick time base is always set to 1 millisecond
  *         to have correct HAL operation.
  * @retval HAL status
  */
HAL_StatusTypeDef HAL_Init(void)
{
 80016ec:	b580      	push	{r7, lr}
 80016ee:	b082      	sub	sp, #8
 80016f0:	af00      	add	r7, sp, #0
   __HAL_ART_CONFIG_BASE_ADDRESS(0x08100000UL);  /* Configure the Cortex-M4 ART Base address to the Flash Bank 2 : */
   __HAL_ART_ENABLE();                           /* Enable the Cortex-M4 ART */
#endif /* DUAL_CORE &&  CORE_CM4 */

  /* Set Interrupt Group Priority */
  HAL_NVIC_SetPriorityGrouping(NVIC_PRIORITYGROUP_4);
 80016f2:	2003      	movs	r0, #3
 80016f4:	f000 f96e 	bl	80019d4 <HAL_NVIC_SetPriorityGrouping>

  /* Update the SystemCoreClock global variable */
#if defined(RCC_D1CFGR_D1CPRE)
  common_system_clock = HAL_RCC_GetSysClockFreq() >> ((D1CorePrescTable[(RCC->D1CFGR & RCC_D1CFGR_D1CPRE)>> RCC_D1CFGR_D1CPRE_Pos]) & 0x1FU);
 80016f8:	f001 ffd0 	bl	800369c <HAL_RCC_GetSysClockFreq>
 80016fc:	4602      	mov	r2, r0
 80016fe:	4b15      	ldr	r3, [pc, #84]	; (8001754 <HAL_Init+0x68>)
 8001700:	699b      	ldr	r3, [r3, #24]
 8001702:	0a1b      	lsrs	r3, r3, #8
 8001704:	f003 030f 	and.w	r3, r3, #15
 8001708:	4913      	ldr	r1, [pc, #76]	; (8001758 <HAL_Init+0x6c>)
 800170a:	5ccb      	ldrb	r3, [r1, r3]
 800170c:	f003 031f 	and.w	r3, r3, #31
 8001710:	fa22 f303 	lsr.w	r3, r2, r3
 8001714:	607b      	str	r3, [r7, #4]
  common_system_clock = HAL_RCC_GetSysClockFreq() >> ((D1CorePrescTable[(RCC->CDCFGR1 & RCC_CDCFGR1_CDCPRE)>> RCC_CDCFGR1_CDCPRE_Pos]) & 0x1FU);
#endif

  /* Update the SystemD2Clock global variable */
#if defined(RCC_D1CFGR_HPRE)
  SystemD2Clock = (common_system_clock >> ((D1CorePrescTable[(RCC->D1CFGR & RCC_D1CFGR_HPRE)>> RCC_D1CFGR_HPRE_Pos]) & 0x1FU));
 8001716:	4b0f      	ldr	r3, [pc, #60]	; (8001754 <HAL_Init+0x68>)
 8001718:	699b      	ldr	r3, [r3, #24]
 800171a:	f003 030f 	and.w	r3, r3, #15
 800171e:	4a0e      	ldr	r2, [pc, #56]	; (8001758 <HAL_Init+0x6c>)
 8001720:	5cd3      	ldrb	r3, [r2, r3]
 8001722:	f003 031f 	and.w	r3, r3, #31
 8001726:	687a      	ldr	r2, [r7, #4]
 8001728:	fa22 f303 	lsr.w	r3, r2, r3
 800172c:	4a0b      	ldr	r2, [pc, #44]	; (800175c <HAL_Init+0x70>)
 800172e:	6013      	str	r3, [r2, #0]
#endif

#if defined(DUAL_CORE) && defined(CORE_CM4)
  SystemCoreClock = SystemD2Clock;
#else
  SystemCoreClock = common_system_clock;
 8001730:	4a0b      	ldr	r2, [pc, #44]	; (8001760 <HAL_Init+0x74>)
 8001732:	687b      	ldr	r3, [r7, #4]
 8001734:	6013      	str	r3, [r2, #0]
#endif /* DUAL_CORE && CORE_CM4 */

  /* Use systick as time base source and configure 1ms tick (default clock after Reset is HSI) */
  if(HAL_InitTick(TICK_INT_PRIORITY) != HAL_OK)
 8001736:	200f      	movs	r0, #15
 8001738:	f000 f814 	bl	8001764 <HAL_InitTick>
 800173c:	4603      	mov	r3, r0
 800173e:	2b00      	cmp	r3, #0
 8001740:	d001      	beq.n	8001746 <HAL_Init+0x5a>
  {
    return HAL_ERROR;
 8001742:	2301      	movs	r3, #1
 8001744:	e002      	b.n	800174c <HAL_Init+0x60>
  }

  /* Init the low level hardware */
  HAL_MspInit();
 8001746:	f7ff fd69 	bl	800121c <HAL_MspInit>

  /* Return function status */
  return HAL_OK;
 800174a:	2300      	movs	r3, #0
}
 800174c:	4618      	mov	r0, r3
 800174e:	3708      	adds	r7, #8
 8001750:	46bd      	mov	sp, r7
 8001752:	bd80      	pop	{r7, pc}
 8001754:	58024400 	.word	0x58024400
 8001758:	08008244 	.word	0x08008244
 800175c:	24000004 	.word	0x24000004
 8001760:	24000000 	.word	0x24000000

08001764 <HAL_InitTick>:
  *       implementation  in user file.
  * @param TickPriority: Tick interrupt priority.
  * @retval HAL status
  */
__weak HAL_StatusTypeDef HAL_InitTick(uint32_t TickPriority)
{
 8001764:	b580      	push	{r7, lr}
 8001766:	b082      	sub	sp, #8
 8001768:	af00      	add	r7, sp, #0
 800176a:	6078      	str	r0, [r7, #4]
  /* Check uwTickFreq for MisraC 2012 (even if uwTickFreq is a enum type that don't take the value zero)*/
  if((uint32_t)uwTickFreq == 0UL)
 800176c:	4b15      	ldr	r3, [pc, #84]	; (80017c4 <HAL_InitTick+0x60>)
 800176e:	781b      	ldrb	r3, [r3, #0]
 8001770:	2b00      	cmp	r3, #0
 8001772:	d101      	bne.n	8001778 <HAL_InitTick+0x14>
  {
    return HAL_ERROR;
 8001774:	2301      	movs	r3, #1
 8001776:	e021      	b.n	80017bc <HAL_InitTick+0x58>
  }

    /* Configure the SysTick to have interrupt in 1ms time basis*/
    if (HAL_SYSTICK_Config(SystemCoreClock / (1000UL / (uint32_t)uwTickFreq)) > 0U)
 8001778:	4b13      	ldr	r3, [pc, #76]	; (80017c8 <HAL_InitTick+0x64>)
 800177a:	681a      	ldr	r2, [r3, #0]
 800177c:	4b11      	ldr	r3, [pc, #68]	; (80017c4 <HAL_InitTick+0x60>)
 800177e:	781b      	ldrb	r3, [r3, #0]
 8001780:	4619      	mov	r1, r3
 8001782:	f44f 737a 	mov.w	r3, #1000	; 0x3e8
 8001786:	fbb3 f3f1 	udiv	r3, r3, r1
 800178a:	fbb2 f3f3 	udiv	r3, r2, r3
 800178e:	4618      	mov	r0, r3
 8001790:	f000 f945 	bl	8001a1e <HAL_SYSTICK_Config>
 8001794:	4603      	mov	r3, r0
 8001796:	2b00      	cmp	r3, #0
 8001798:	d001      	beq.n	800179e <HAL_InitTick+0x3a>
    {
      return HAL_ERROR;
 800179a:	2301      	movs	r3, #1
 800179c:	e00e      	b.n	80017bc <HAL_InitTick+0x58>
    }

  /* Configure the SysTick IRQ priority */
  if (TickPriority < (1UL << __NVIC_PRIO_BITS))
 800179e:	687b      	ldr	r3, [r7, #4]
 80017a0:	2b0f      	cmp	r3, #15
 80017a2:	d80a      	bhi.n	80017ba <HAL_InitTick+0x56>
  {
    HAL_NVIC_SetPriority(SysTick_IRQn, TickPriority, 0U);
 80017a4:	2200      	movs	r2, #0
 80017a6:	6879      	ldr	r1, [r7, #4]
 80017a8:	f04f 30ff 	mov.w	r0, #4294967295
 80017ac:	f000 f91d 	bl	80019ea <HAL_NVIC_SetPriority>
    uwTickPrio = TickPriority;
 80017b0:	4a06      	ldr	r2, [pc, #24]	; (80017cc <HAL_InitTick+0x68>)
 80017b2:	687b      	ldr	r3, [r7, #4]
 80017b4:	6013      	str	r3, [r2, #0]
  {
    return HAL_ERROR;
  }

  /* Return function status */
  return HAL_OK;
 80017b6:	2300      	movs	r3, #0
 80017b8:	e000      	b.n	80017bc <HAL_InitTick+0x58>
    return HAL_ERROR;
 80017ba:	2301      	movs	r3, #1
}
 80017bc:	4618      	mov	r0, r3
 80017be:	3708      	adds	r7, #8
 80017c0:	46bd      	mov	sp, r7
 80017c2:	bd80      	pop	{r7, pc}
 80017c4:	240000c0 	.word	0x240000c0
 80017c8:	24000000 	.word	0x24000000
 80017cc:	240000bc 	.word	0x240000bc

080017d0 <HAL_IncTick>:
 * @note This function is declared as __weak to be overwritten in case of other
  *      implementations in user file.
  * @retval None
  */
__weak void HAL_IncTick(void)
{
 80017d0:	b480      	push	{r7}
 80017d2:	af00      	add	r7, sp, #0
  uwTick += (uint32_t)uwTickFreq;
 80017d4:	4b06      	ldr	r3, [pc, #24]	; (80017f0 <HAL_IncTick+0x20>)
 80017d6:	781b      	ldrb	r3, [r3, #0]
 80017d8:	461a      	mov	r2, r3
 80017da:	4b06      	ldr	r3, [pc, #24]	; (80017f4 <HAL_IncTick+0x24>)
 80017dc:	681b      	ldr	r3, [r3, #0]
 80017de:	4413      	add	r3, r2
 80017e0:	4a04      	ldr	r2, [pc, #16]	; (80017f4 <HAL_IncTick+0x24>)
 80017e2:	6013      	str	r3, [r2, #0]
}
 80017e4:	bf00      	nop
 80017e6:	46bd      	mov	sp, r7
 80017e8:	f85d 7b04 	ldr.w	r7, [sp], #4
 80017ec:	4770      	bx	lr
 80017ee:	bf00      	nop
 80017f0:	240000c0 	.word	0x240000c0
 80017f4:	240002ac 	.word	0x240002ac

080017f8 <HAL_GetTick>:
  * @note This function is declared as __weak to be overwritten in case of other
  *       implementations in user file.
  * @retval tick value
  */
__weak uint32_t HAL_GetTick(void)
{
 80017f8:	b480      	push	{r7}
 80017fa:	af00      	add	r7, sp, #0
  return uwTick;
 80017fc:	4b03      	ldr	r3, [pc, #12]	; (800180c <HAL_GetTick+0x14>)
 80017fe:	681b      	ldr	r3, [r3, #0]
}
 8001800:	4618      	mov	r0, r3
 8001802:	46bd      	mov	sp, r7
 8001804:	f85d 7b04 	ldr.w	r7, [sp], #4
 8001808:	4770      	bx	lr
 800180a:	bf00      	nop
 800180c:	240002ac 	.word	0x240002ac

08001810 <HAL_Delay>:
  *       implementations in user file.
  * @param Delay  specifies the delay time length, in milliseconds.
  * @retval None
  */
__weak void HAL_Delay(uint32_t Delay)
{
 8001810:	b580      	push	{r7, lr}
 8001812:	b084      	sub	sp, #16
 8001814:	af00      	add	r7, sp, #0
 8001816:	6078      	str	r0, [r7, #4]
  uint32_t tickstart = HAL_GetTick();
 8001818:	f7ff ffee 	bl	80017f8 <HAL_GetTick>
 800181c:	60b8      	str	r0, [r7, #8]
  uint32_t wait = Delay;
 800181e:	687b      	ldr	r3, [r7, #4]
 8001820:	60fb      	str	r3, [r7, #12]

  /* Add a freq to guarantee minimum wait */
  if (wait < HAL_MAX_DELAY)
 8001822:	68fb      	ldr	r3, [r7, #12]
 8001824:	f1b3 3fff 	cmp.w	r3, #4294967295
 8001828:	d005      	beq.n	8001836 <HAL_Delay+0x26>
  {
    wait += (uint32_t)(uwTickFreq);
 800182a:	4b0a      	ldr	r3, [pc, #40]	; (8001854 <HAL_Delay+0x44>)
 800182c:	781b      	ldrb	r3, [r3, #0]
 800182e:	461a      	mov	r2, r3
 8001830:	68fb      	ldr	r3, [r7, #12]
 8001832:	4413      	add	r3, r2
 8001834:	60fb      	str	r3, [r7, #12]
  }

  while ((HAL_GetTick() - tickstart) < wait)
 8001836:	bf00      	nop
 8001838:	f7ff ffde 	bl	80017f8 <HAL_GetTick>
 800183c:	4602      	mov	r2, r0
 800183e:	68bb      	ldr	r3, [r7, #8]
 8001840:	1ad3      	subs	r3, r2, r3
 8001842:	68fa      	ldr	r2, [r7, #12]
 8001844:	429a      	cmp	r2, r3
 8001846:	d8f7      	bhi.n	8001838 <HAL_Delay+0x28>
  {
  }
}
 8001848:	bf00      	nop
 800184a:	bf00      	nop
 800184c:	3710      	adds	r7, #16
 800184e:	46bd      	mov	sp, r7
 8001850:	bd80      	pop	{r7, pc}
 8001852:	bf00      	nop
 8001854:	240000c0 	.word	0x240000c0

08001858 <HAL_GetREVID>:
/**
  * @brief  Returns the device revision identifier.
  * @retval Device revision identifier
  */
uint32_t HAL_GetREVID(void)
{
 8001858:	b480      	push	{r7}
 800185a:	af00      	add	r7, sp, #0
   return((DBGMCU->IDCODE) >> 16);
 800185c:	4b03      	ldr	r3, [pc, #12]	; (800186c <HAL_GetREVID+0x14>)
 800185e:	681b      	ldr	r3, [r3, #0]
 8001860:	0c1b      	lsrs	r3, r3, #16
}
 8001862:	4618      	mov	r0, r3
 8001864:	46bd      	mov	sp, r7
 8001866:	f85d 7b04 	ldr.w	r7, [sp], #4
 800186a:	4770      	bx	lr
 800186c:	5c001000 	.word	0x5c001000

08001870 <__NVIC_SetPriorityGrouping>:
           In case of a conflict between priority grouping and available
           priority bits (__NVIC_PRIO_BITS), the smallest possible priority group is set.
  \param [in]      PriorityGroup  Priority grouping field.
 */
__STATIC_INLINE void __NVIC_SetPriorityGrouping(uint32_t PriorityGroup)
{
 8001870:	b480      	push	{r7}
 8001872:	b085      	sub	sp, #20
 8001874:	af00      	add	r7, sp, #0
 8001876:	6078      	str	r0, [r7, #4]
  uint32_t reg_value;
  uint32_t PriorityGroupTmp = (PriorityGroup & (uint32_t)0x07UL);             /* only values 0..7 are used          */
 8001878:	687b      	ldr	r3, [r7, #4]
 800187a:	f003 0307 	and.w	r3, r3, #7
 800187e:	60fb      	str	r3, [r7, #12]

  reg_value  =  SCB->AIRCR;                                                   /* read old register configuration    */
 8001880:	4b0b      	ldr	r3, [pc, #44]	; (80018b0 <__NVIC_SetPriorityGrouping+0x40>)
 8001882:	68db      	ldr	r3, [r3, #12]
 8001884:	60bb      	str	r3, [r7, #8]
  reg_value &= ~((uint32_t)(SCB_AIRCR_VECTKEY_Msk | SCB_AIRCR_PRIGROUP_Msk)); /* clear bits to change               */
 8001886:	68ba      	ldr	r2, [r7, #8]
 8001888:	f64f 03ff 	movw	r3, #63743	; 0xf8ff
 800188c:	4013      	ands	r3, r2
 800188e:	60bb      	str	r3, [r7, #8]
  reg_value  =  (reg_value                                   |
                ((uint32_t)0x5FAUL << SCB_AIRCR_VECTKEY_Pos) |
                (PriorityGroupTmp << SCB_AIRCR_PRIGROUP_Pos)  );              /* Insert write key and priority group */
 8001890:	68fb      	ldr	r3, [r7, #12]
 8001892:	021a      	lsls	r2, r3, #8
                ((uint32_t)0x5FAUL << SCB_AIRCR_VECTKEY_Pos) |
 8001894:	68bb      	ldr	r3, [r7, #8]
 8001896:	431a      	orrs	r2, r3
  reg_value  =  (reg_value                                   |
 8001898:	4b06      	ldr	r3, [pc, #24]	; (80018b4 <__NVIC_SetPriorityGrouping+0x44>)
 800189a:	4313      	orrs	r3, r2
 800189c:	60bb      	str	r3, [r7, #8]
  SCB->AIRCR =  reg_value;
 800189e:	4a04      	ldr	r2, [pc, #16]	; (80018b0 <__NVIC_SetPriorityGrouping+0x40>)
 80018a0:	68bb      	ldr	r3, [r7, #8]
 80018a2:	60d3      	str	r3, [r2, #12]
}
 80018a4:	bf00      	nop
 80018a6:	3714      	adds	r7, #20
 80018a8:	46bd      	mov	sp, r7
 80018aa:	f85d 7b04 	ldr.w	r7, [sp], #4
 80018ae:	4770      	bx	lr
 80018b0:	e000ed00 	.word	0xe000ed00
 80018b4:	05fa0000 	.word	0x05fa0000

080018b8 <__NVIC_GetPriorityGrouping>:
  \brief   Get Priority Grouping
  \details Reads the priority grouping field from the NVIC Interrupt Controller.
  \return                Priority grouping field (SCB->AIRCR [10:8] PRIGROUP field).
 */
__STATIC_INLINE uint32_t __NVIC_GetPriorityGrouping(void)
{
 80018b8:	b480      	push	{r7}
 80018ba:	af00      	add	r7, sp, #0
  return ((uint32_t)((SCB->AIRCR & SCB_AIRCR_PRIGROUP_Msk) >> SCB_AIRCR_PRIGROUP_Pos));
 80018bc:	4b04      	ldr	r3, [pc, #16]	; (80018d0 <__NVIC_GetPriorityGrouping+0x18>)
 80018be:	68db      	ldr	r3, [r3, #12]
 80018c0:	0a1b      	lsrs	r3, r3, #8
 80018c2:	f003 0307 	and.w	r3, r3, #7
}
 80018c6:	4618      	mov	r0, r3
 80018c8:	46bd      	mov	sp, r7
 80018ca:	f85d 7b04 	ldr.w	r7, [sp], #4
 80018ce:	4770      	bx	lr
 80018d0:	e000ed00 	.word	0xe000ed00

080018d4 <__NVIC_SetPriority>:
  \param [in]      IRQn  Interrupt number.
  \param [in]  priority  Priority to set.
  \note    The priority cannot be set for every processor exception.
 */
__STATIC_INLINE void __NVIC_SetPriority(IRQn_Type IRQn, uint32_t priority)
{
 80018d4:	b480      	push	{r7}
 80018d6:	b083      	sub	sp, #12
 80018d8:	af00      	add	r7, sp, #0
 80018da:	4603      	mov	r3, r0
 80018dc:	6039      	str	r1, [r7, #0]
 80018de:	80fb      	strh	r3, [r7, #6]
  if ((int32_t)(IRQn) >= 0)
 80018e0:	f9b7 3006 	ldrsh.w	r3, [r7, #6]
 80018e4:	2b00      	cmp	r3, #0
 80018e6:	db0a      	blt.n	80018fe <__NVIC_SetPriority+0x2a>
  {
    NVIC->IP[((uint32_t)IRQn)]                = (uint8_t)((priority << (8U - __NVIC_PRIO_BITS)) & (uint32_t)0xFFUL);
 80018e8:	683b      	ldr	r3, [r7, #0]
 80018ea:	b2da      	uxtb	r2, r3
 80018ec:	490c      	ldr	r1, [pc, #48]	; (8001920 <__NVIC_SetPriority+0x4c>)
 80018ee:	f9b7 3006 	ldrsh.w	r3, [r7, #6]
 80018f2:	0112      	lsls	r2, r2, #4
 80018f4:	b2d2      	uxtb	r2, r2
 80018f6:	440b      	add	r3, r1
 80018f8:	f883 2300 	strb.w	r2, [r3, #768]	; 0x300
  }
  else
  {
    SCB->SHPR[(((uint32_t)IRQn) & 0xFUL)-4UL] = (uint8_t)((priority << (8U - __NVIC_PRIO_BITS)) & (uint32_t)0xFFUL);
  }
}
 80018fc:	e00a      	b.n	8001914 <__NVIC_SetPriority+0x40>
    SCB->SHPR[(((uint32_t)IRQn) & 0xFUL)-4UL] = (uint8_t)((priority << (8U - __NVIC_PRIO_BITS)) & (uint32_t)0xFFUL);
 80018fe:	683b      	ldr	r3, [r7, #0]
 8001900:	b2da      	uxtb	r2, r3
 8001902:	4908      	ldr	r1, [pc, #32]	; (8001924 <__NVIC_SetPriority+0x50>)
 8001904:	88fb      	ldrh	r3, [r7, #6]
 8001906:	f003 030f 	and.w	r3, r3, #15
 800190a:	3b04      	subs	r3, #4
 800190c:	0112      	lsls	r2, r2, #4
 800190e:	b2d2      	uxtb	r2, r2
 8001910:	440b      	add	r3, r1
 8001912:	761a      	strb	r2, [r3, #24]
}
 8001914:	bf00      	nop
 8001916:	370c      	adds	r7, #12
 8001918:	46bd      	mov	sp, r7
 800191a:	f85d 7b04 	ldr.w	r7, [sp], #4
 800191e:	4770      	bx	lr
 8001920:	e000e100 	.word	0xe000e100
 8001924:	e000ed00 	.word	0xe000ed00

08001928 <NVIC_EncodePriority>:
  \param [in]   PreemptPriority  Preemptive priority value (starting from 0).
  \param [in]       SubPriority  Subpriority value (starting from 0).
  \return                        Encoded priority. Value can be used in the function \ref NVIC_SetPriority().
 */
__STATIC_INLINE uint32_t NVIC_EncodePriority (uint32_t PriorityGroup, uint32_t PreemptPriority, uint32_t SubPriority)
{
 8001928:	b480      	push	{r7}
 800192a:	b089      	sub	sp, #36	; 0x24
 800192c:	af00      	add	r7, sp, #0
 800192e:	60f8      	str	r0, [r7, #12]
 8001930:	60b9      	str	r1, [r7, #8]
 8001932:	607a      	str	r2, [r7, #4]
  uint32_t PriorityGroupTmp = (PriorityGroup & (uint32_t)0x07UL);   /* only values 0..7 are used          */
 8001934:	68fb      	ldr	r3, [r7, #12]
 8001936:	f003 0307 	and.w	r3, r3, #7
 800193a:	61fb      	str	r3, [r7, #28]
  uint32_t PreemptPriorityBits;
  uint32_t SubPriorityBits;

  PreemptPriorityBits = ((7UL - PriorityGroupTmp) > (uint32_t)(__NVIC_PRIO_BITS)) ? (uint32_t)(__NVIC_PRIO_BITS) : (uint32_t)(7UL - PriorityGroupTmp);
 800193c:	69fb      	ldr	r3, [r7, #28]
 800193e:	f1c3 0307 	rsb	r3, r3, #7
 8001942:	2b04      	cmp	r3, #4
 8001944:	bf28      	it	cs
 8001946:	2304      	movcs	r3, #4
 8001948:	61bb      	str	r3, [r7, #24]
  SubPriorityBits     = ((PriorityGroupTmp + (uint32_t)(__NVIC_PRIO_BITS)) < (uint32_t)7UL) ? (uint32_t)0UL : (uint32_t)((PriorityGroupTmp - 7UL) + (uint32_t)(__NVIC_PRIO_BITS));
 800194a:	69fb      	ldr	r3, [r7, #28]
 800194c:	3304      	adds	r3, #4
 800194e:	2b06      	cmp	r3, #6
 8001950:	d902      	bls.n	8001958 <NVIC_EncodePriority+0x30>
 8001952:	69fb      	ldr	r3, [r7, #28]
 8001954:	3b03      	subs	r3, #3
 8001956:	e000      	b.n	800195a <NVIC_EncodePriority+0x32>
 8001958:	2300      	movs	r3, #0
 800195a:	617b      	str	r3, [r7, #20]

  return (
           ((PreemptPriority & (uint32_t)((1UL << (PreemptPriorityBits)) - 1UL)) << SubPriorityBits) |
 800195c:	f04f 32ff 	mov.w	r2, #4294967295
 8001960:	69bb      	ldr	r3, [r7, #24]
 8001962:	fa02 f303 	lsl.w	r3, r2, r3
 8001966:	43da      	mvns	r2, r3
 8001968:	68bb      	ldr	r3, [r7, #8]
 800196a:	401a      	ands	r2, r3
 800196c:	697b      	ldr	r3, [r7, #20]
 800196e:	409a      	lsls	r2, r3
           ((SubPriority     & (uint32_t)((1UL << (SubPriorityBits    )) - 1UL)))
 8001970:	f04f 31ff 	mov.w	r1, #4294967295
 8001974:	697b      	ldr	r3, [r7, #20]
 8001976:	fa01 f303 	lsl.w	r3, r1, r3
 800197a:	43d9      	mvns	r1, r3
 800197c:	687b      	ldr	r3, [r7, #4]
 800197e:	400b      	ands	r3, r1
           ((PreemptPriority & (uint32_t)((1UL << (PreemptPriorityBits)) - 1UL)) << SubPriorityBits) |
 8001980:	4313      	orrs	r3, r2
         );
}
 8001982:	4618      	mov	r0, r3
 8001984:	3724      	adds	r7, #36	; 0x24
 8001986:	46bd      	mov	sp, r7
 8001988:	f85d 7b04 	ldr.w	r7, [sp], #4
 800198c:	4770      	bx	lr
	...

08001990 <SysTick_Config>:
  \note    When the variable <b>__Vendor_SysTickConfig</b> is set to 1, then the
           function <b>SysTick_Config</b> is not included. In this case, the file <b><i>device</i>.h</b>
           must contain a vendor-specific implementation of this function.
 */
__STATIC_INLINE uint32_t SysTick_Config(uint32_t ticks)
{
 8001990:	b580      	push	{r7, lr}
 8001992:	b082      	sub	sp, #8
 8001994:	af00      	add	r7, sp, #0
 8001996:	6078      	str	r0, [r7, #4]
  if ((ticks - 1UL) > SysTick_LOAD_RELOAD_Msk)
 8001998:	687b      	ldr	r3, [r7, #4]
 800199a:	3b01      	subs	r3, #1
 800199c:	f1b3 7f80 	cmp.w	r3, #16777216	; 0x1000000
 80019a0:	d301      	bcc.n	80019a6 <SysTick_Config+0x16>
  {
    return (1UL);                                                   /* Reload value impossible */
 80019a2:	2301      	movs	r3, #1
 80019a4:	e00f      	b.n	80019c6 <SysTick_Config+0x36>
  }

  SysTick->LOAD  = (uint32_t)(ticks - 1UL);                         /* set reload register */
 80019a6:	4a0a      	ldr	r2, [pc, #40]	; (80019d0 <SysTick_Config+0x40>)
 80019a8:	687b      	ldr	r3, [r7, #4]
 80019aa:	3b01      	subs	r3, #1
 80019ac:	6053      	str	r3, [r2, #4]
  NVIC_SetPriority (SysTick_IRQn, (1UL << __NVIC_PRIO_BITS) - 1UL); /* set Priority for Systick Interrupt */
 80019ae:	210f      	movs	r1, #15
 80019b0:	f04f 30ff 	mov.w	r0, #4294967295
 80019b4:	f7ff ff8e 	bl	80018d4 <__NVIC_SetPriority>
  SysTick->VAL   = 0UL;                                             /* Load the SysTick Counter Value */
 80019b8:	4b05      	ldr	r3, [pc, #20]	; (80019d0 <SysTick_Config+0x40>)
 80019ba:	2200      	movs	r2, #0
 80019bc:	609a      	str	r2, [r3, #8]
  SysTick->CTRL  = SysTick_CTRL_CLKSOURCE_Msk |
 80019be:	4b04      	ldr	r3, [pc, #16]	; (80019d0 <SysTick_Config+0x40>)
 80019c0:	2207      	movs	r2, #7
 80019c2:	601a      	str	r2, [r3, #0]
                   SysTick_CTRL_TICKINT_Msk   |
                   SysTick_CTRL_ENABLE_Msk;                         /* Enable SysTick IRQ and SysTick Timer */
  return (0UL);                                                     /* Function successful */
 80019c4:	2300      	movs	r3, #0
}
 80019c6:	4618      	mov	r0, r3
 80019c8:	3708      	adds	r7, #8
 80019ca:	46bd      	mov	sp, r7
 80019cc:	bd80      	pop	{r7, pc}
 80019ce:	bf00      	nop
 80019d0:	e000e010 	.word	0xe000e010

080019d4 <HAL_NVIC_SetPriorityGrouping>:
  * @note   When the NVIC_PriorityGroup_0 is selected, IRQ preemption is no more possible.
  *         The pending IRQ priority will be managed only by the subpriority.
  * @retval None
  */
void HAL_NVIC_SetPriorityGrouping(uint32_t PriorityGroup)
{
 80019d4:	b580      	push	{r7, lr}
 80019d6:	b082      	sub	sp, #8
 80019d8:	af00      	add	r7, sp, #0
 80019da:	6078      	str	r0, [r7, #4]
  /* Check the parameters */
  assert_param(IS_NVIC_PRIORITY_GROUP(PriorityGroup));

  /* Set the PRIGROUP[10:8] bits according to the PriorityGroup parameter value */
  NVIC_SetPriorityGrouping(PriorityGroup);
 80019dc:	6878      	ldr	r0, [r7, #4]
 80019de:	f7ff ff47 	bl	8001870 <__NVIC_SetPriorityGrouping>
}
 80019e2:	bf00      	nop
 80019e4:	3708      	adds	r7, #8
 80019e6:	46bd      	mov	sp, r7
 80019e8:	bd80      	pop	{r7, pc}

080019ea <HAL_NVIC_SetPriority>:
  *         This parameter can be a value between 0 and 15
  *         A lower priority value indicates a higher priority.
  * @retval None
  */
void HAL_NVIC_SetPriority(IRQn_Type IRQn, uint32_t PreemptPriority, uint32_t SubPriority)
{
 80019ea:	b580      	push	{r7, lr}
 80019ec:	b086      	sub	sp, #24
 80019ee:	af00      	add	r7, sp, #0
 80019f0:	4603      	mov	r3, r0
 80019f2:	60b9      	str	r1, [r7, #8]
 80019f4:	607a      	str	r2, [r7, #4]
 80019f6:	81fb      	strh	r3, [r7, #14]

  /* Check the parameters */
  assert_param(IS_NVIC_SUB_PRIORITY(SubPriority));
  assert_param(IS_NVIC_PREEMPTION_PRIORITY(PreemptPriority));

  prioritygroup = NVIC_GetPriorityGrouping();
 80019f8:	f7ff ff5e 	bl	80018b8 <__NVIC_GetPriorityGrouping>
 80019fc:	6178      	str	r0, [r7, #20]

  NVIC_SetPriority(IRQn, NVIC_EncodePriority(prioritygroup, PreemptPriority, SubPriority));
 80019fe:	687a      	ldr	r2, [r7, #4]
 8001a00:	68b9      	ldr	r1, [r7, #8]
 8001a02:	6978      	ldr	r0, [r7, #20]
 8001a04:	f7ff ff90 	bl	8001928 <NVIC_EncodePriority>
 8001a08:	4602      	mov	r2, r0
 8001a0a:	f9b7 300e 	ldrsh.w	r3, [r7, #14]
 8001a0e:	4611      	mov	r1, r2
 8001a10:	4618      	mov	r0, r3
 8001a12:	f7ff ff5f 	bl	80018d4 <__NVIC_SetPriority>
}
 8001a16:	bf00      	nop
 8001a18:	3718      	adds	r7, #24
 8001a1a:	46bd      	mov	sp, r7
 8001a1c:	bd80      	pop	{r7, pc}

08001a1e <HAL_SYSTICK_Config>:
  * @param  TicksNumb Specifies the ticks Number of ticks between two interrupts.
  * @retval status   - 0  Function succeeded.
  *                  - 1  Function failed.
  */
uint32_t HAL_SYSTICK_Config(uint32_t TicksNumb)
{
 8001a1e:	b580      	push	{r7, lr}
 8001a20:	b082      	sub	sp, #8
 8001a22:	af00      	add	r7, sp, #0
 8001a24:	6078      	str	r0, [r7, #4]
   return SysTick_Config(TicksNumb);
 8001a26:	6878      	ldr	r0, [r7, #4]
 8001a28:	f7ff ffb2 	bl	8001990 <SysTick_Config>
 8001a2c:	4603      	mov	r3, r0
}
 8001a2e:	4618      	mov	r0, r3
 8001a30:	3708      	adds	r7, #8
 8001a32:	46bd      	mov	sp, r7
 8001a34:	bd80      	pop	{r7, pc}
	...

08001a38 <HAL_GPIO_Init>:
  * @param  GPIO_Init: pointer to a GPIO_InitTypeDef structure that contains
  *         the configuration information for the specified GPIO peripheral.
  * @retval None
  */
void HAL_GPIO_Init(GPIO_TypeDef  *GPIOx, GPIO_InitTypeDef *GPIO_Init)
{
 8001a38:	b480      	push	{r7}
 8001a3a:	b089      	sub	sp, #36	; 0x24
 8001a3c:	af00      	add	r7, sp, #0
 8001a3e:	6078      	str	r0, [r7, #4]
 8001a40:	6039      	str	r1, [r7, #0]
  uint32_t position = 0x00U;
 8001a42:	2300      	movs	r3, #0
 8001a44:	61fb      	str	r3, [r7, #28]
  EXTI_Core_TypeDef *EXTI_CurrentCPU;

#if defined(DUAL_CORE) && defined(CORE_CM4)
  EXTI_CurrentCPU = EXTI_D2; /* EXTI for CM4 CPU */
#else
  EXTI_CurrentCPU = EXTI_D1; /* EXTI for CM7 CPU */
 8001a46:	4b89      	ldr	r3, [pc, #548]	; (8001c6c <HAL_GPIO_Init+0x234>)
 8001a48:	617b      	str	r3, [r7, #20]
  assert_param(IS_GPIO_ALL_INSTANCE(GPIOx));
  assert_param(IS_GPIO_PIN(GPIO_Init->Pin));
  assert_param(IS_GPIO_MODE(GPIO_Init->Mode));

  /* Configure the port pins */
  while (((GPIO_Init->Pin) >> position) != 0x00U)
 8001a4a:	e194      	b.n	8001d76 <HAL_GPIO_Init+0x33e>
  {
    /* Get current io position */
    iocurrent = (GPIO_Init->Pin) & (1UL << position);
 8001a4c:	683b      	ldr	r3, [r7, #0]
 8001a4e:	681a      	ldr	r2, [r3, #0]
 8001a50:	2101      	movs	r1, #1
 8001a52:	69fb      	ldr	r3, [r7, #28]
 8001a54:	fa01 f303 	lsl.w	r3, r1, r3
 8001a58:	4013      	ands	r3, r2
 8001a5a:	613b      	str	r3, [r7, #16]

    if (iocurrent != 0x00U)
 8001a5c:	693b      	ldr	r3, [r7, #16]
 8001a5e:	2b00      	cmp	r3, #0
 8001a60:	f000 8186 	beq.w	8001d70 <HAL_GPIO_Init+0x338>
    {
      /*--------------------- GPIO Mode Configuration ------------------------*/
      /* In case of Output or Alternate function mode selection */
      if (((GPIO_Init->Mode & GPIO_MODE) == MODE_OUTPUT) || ((GPIO_Init->Mode & GPIO_MODE) == MODE_AF))
 8001a64:	683b      	ldr	r3, [r7, #0]
 8001a66:	685b      	ldr	r3, [r3, #4]
 8001a68:	f003 0303 	and.w	r3, r3, #3
 8001a6c:	2b01      	cmp	r3, #1
 8001a6e:	d005      	beq.n	8001a7c <HAL_GPIO_Init+0x44>
 8001a70:	683b      	ldr	r3, [r7, #0]
 8001a72:	685b      	ldr	r3, [r3, #4]
 8001a74:	f003 0303 	and.w	r3, r3, #3
 8001a78:	2b02      	cmp	r3, #2
 8001a7a:	d130      	bne.n	8001ade <HAL_GPIO_Init+0xa6>
      {
        /* Check the Speed parameter */
        assert_param(IS_GPIO_SPEED(GPIO_Init->Speed));

        /* Configure the IO Speed */
        temp = GPIOx->OSPEEDR;
 8001a7c:	687b      	ldr	r3, [r7, #4]
 8001a7e:	689b      	ldr	r3, [r3, #8]
 8001a80:	61bb      	str	r3, [r7, #24]
        temp &= ~(GPIO_OSPEEDR_OSPEED0 << (position * 2U));
 8001a82:	69fb      	ldr	r3, [r7, #28]
 8001a84:	005b      	lsls	r3, r3, #1
 8001a86:	2203      	movs	r2, #3
 8001a88:	fa02 f303 	lsl.w	r3, r2, r3
 8001a8c:	43db      	mvns	r3, r3
 8001a8e:	69ba      	ldr	r2, [r7, #24]
 8001a90:	4013      	ands	r3, r2
 8001a92:	61bb      	str	r3, [r7, #24]
        temp |= (GPIO_Init->Speed << (position * 2U));
 8001a94:	683b      	ldr	r3, [r7, #0]
 8001a96:	68da      	ldr	r2, [r3, #12]
 8001a98:	69fb      	ldr	r3, [r7, #28]
 8001a9a:	005b      	lsls	r3, r3, #1
 8001a9c:	fa02 f303 	lsl.w	r3, r2, r3
 8001aa0:	69ba      	ldr	r2, [r7, #24]
 8001aa2:	4313      	orrs	r3, r2
 8001aa4:	61bb      	str	r3, [r7, #24]
        GPIOx->OSPEEDR = temp;
 8001aa6:	687b      	ldr	r3, [r7, #4]
 8001aa8:	69ba      	ldr	r2, [r7, #24]
 8001aaa:	609a      	str	r2, [r3, #8]

        /* Configure the IO Output Type */
        temp = GPIOx->OTYPER;
 8001aac:	687b      	ldr	r3, [r7, #4]
 8001aae:	685b      	ldr	r3, [r3, #4]
 8001ab0:	61bb      	str	r3, [r7, #24]
        temp &= ~(GPIO_OTYPER_OT0 << position) ;
 8001ab2:	2201      	movs	r2, #1
 8001ab4:	69fb      	ldr	r3, [r7, #28]
 8001ab6:	fa02 f303 	lsl.w	r3, r2, r3
 8001aba:	43db      	mvns	r3, r3
 8001abc:	69ba      	ldr	r2, [r7, #24]
 8001abe:	4013      	ands	r3, r2
 8001ac0:	61bb      	str	r3, [r7, #24]
        temp |= (((GPIO_Init->Mode & OUTPUT_TYPE) >> OUTPUT_TYPE_Pos) << position);
 8001ac2:	683b      	ldr	r3, [r7, #0]
 8001ac4:	685b      	ldr	r3, [r3, #4]
 8001ac6:	091b      	lsrs	r3, r3, #4
 8001ac8:	f003 0201 	and.w	r2, r3, #1
 8001acc:	69fb      	ldr	r3, [r7, #28]
 8001ace:	fa02 f303 	lsl.w	r3, r2, r3
 8001ad2:	69ba      	ldr	r2, [r7, #24]
 8001ad4:	4313      	orrs	r3, r2
 8001ad6:	61bb      	str	r3, [r7, #24]
        GPIOx->OTYPER = temp;
 8001ad8:	687b      	ldr	r3, [r7, #4]
 8001ada:	69ba      	ldr	r2, [r7, #24]
 8001adc:	605a      	str	r2, [r3, #4]
      }

      if ((GPIO_Init->Mode & GPIO_MODE) != MODE_ANALOG)
 8001ade:	683b      	ldr	r3, [r7, #0]
 8001ae0:	685b      	ldr	r3, [r3, #4]
 8001ae2:	f003 0303 	and.w	r3, r3, #3
 8001ae6:	2b03      	cmp	r3, #3
 8001ae8:	d017      	beq.n	8001b1a <HAL_GPIO_Init+0xe2>
      {
       /* Check the Pull parameter */
       assert_param(IS_GPIO_PULL(GPIO_Init->Pull));

      /* Activate the Pull-up or Pull down resistor for the current IO */
      temp = GPIOx->PUPDR;
 8001aea:	687b      	ldr	r3, [r7, #4]
 8001aec:	68db      	ldr	r3, [r3, #12]
 8001aee:	61bb      	str	r3, [r7, #24]
      temp &= ~(GPIO_PUPDR_PUPD0 << (position * 2U));
 8001af0:	69fb      	ldr	r3, [r7, #28]
 8001af2:	005b      	lsls	r3, r3, #1
 8001af4:	2203      	movs	r2, #3
 8001af6:	fa02 f303 	lsl.w	r3, r2, r3
 8001afa:	43db      	mvns	r3, r3
 8001afc:	69ba      	ldr	r2, [r7, #24]
 8001afe:	4013      	ands	r3, r2
 8001b00:	61bb      	str	r3, [r7, #24]
      temp |= ((GPIO_Init->Pull) << (position * 2U));
 8001b02:	683b      	ldr	r3, [r7, #0]
 8001b04:	689a      	ldr	r2, [r3, #8]
 8001b06:	69fb      	ldr	r3, [r7, #28]
 8001b08:	005b      	lsls	r3, r3, #1
 8001b0a:	fa02 f303 	lsl.w	r3, r2, r3
 8001b0e:	69ba      	ldr	r2, [r7, #24]
 8001b10:	4313      	orrs	r3, r2
 8001b12:	61bb      	str	r3, [r7, #24]
      GPIOx->PUPDR = temp;
 8001b14:	687b      	ldr	r3, [r7, #4]
 8001b16:	69ba      	ldr	r2, [r7, #24]
 8001b18:	60da      	str	r2, [r3, #12]
      }

      /* In case of Alternate function mode selection */
      if ((GPIO_Init->Mode & GPIO_MODE) == MODE_AF)
 8001b1a:	683b      	ldr	r3, [r7, #0]
 8001b1c:	685b      	ldr	r3, [r3, #4]
 8001b1e:	f003 0303 	and.w	r3, r3, #3
 8001b22:	2b02      	cmp	r3, #2
 8001b24:	d123      	bne.n	8001b6e <HAL_GPIO_Init+0x136>
        /* Check the Alternate function parameters */
        assert_param(IS_GPIO_AF_INSTANCE(GPIOx));
        assert_param(IS_GPIO_AF(GPIO_Init->Alternate));

        /* Configure Alternate function mapped with the current IO */
        temp = GPIOx->AFR[position >> 3U];
 8001b26:	69fb      	ldr	r3, [r7, #28]
 8001b28:	08da      	lsrs	r2, r3, #3
 8001b2a:	687b      	ldr	r3, [r7, #4]
 8001b2c:	3208      	adds	r2, #8
 8001b2e:	f853 3022 	ldr.w	r3, [r3, r2, lsl #2]
 8001b32:	61bb      	str	r3, [r7, #24]
        temp &= ~(0xFU << ((position & 0x07U) * 4U));
 8001b34:	69fb      	ldr	r3, [r7, #28]
 8001b36:	f003 0307 	and.w	r3, r3, #7
 8001b3a:	009b      	lsls	r3, r3, #2
 8001b3c:	220f      	movs	r2, #15
 8001b3e:	fa02 f303 	lsl.w	r3, r2, r3
 8001b42:	43db      	mvns	r3, r3
 8001b44:	69ba      	ldr	r2, [r7, #24]
 8001b46:	4013      	ands	r3, r2
 8001b48:	61bb      	str	r3, [r7, #24]
        temp |= ((GPIO_Init->Alternate) << ((position & 0x07U) * 4U));
 8001b4a:	683b      	ldr	r3, [r7, #0]
 8001b4c:	691a      	ldr	r2, [r3, #16]
 8001b4e:	69fb      	ldr	r3, [r7, #28]
 8001b50:	f003 0307 	and.w	r3, r3, #7
 8001b54:	009b      	lsls	r3, r3, #2
 8001b56:	fa02 f303 	lsl.w	r3, r2, r3
 8001b5a:	69ba      	ldr	r2, [r7, #24]
 8001b5c:	4313      	orrs	r3, r2
 8001b5e:	61bb      	str	r3, [r7, #24]
        GPIOx->AFR[position >> 3U] = temp;
 8001b60:	69fb      	ldr	r3, [r7, #28]
 8001b62:	08da      	lsrs	r2, r3, #3
 8001b64:	687b      	ldr	r3, [r7, #4]
 8001b66:	3208      	adds	r2, #8
 8001b68:	69b9      	ldr	r1, [r7, #24]
 8001b6a:	f843 1022 	str.w	r1, [r3, r2, lsl #2]
      }

      /* Configure IO Direction mode (Input, Output, Alternate or Analog) */
      temp = GPIOx->MODER;
 8001b6e:	687b      	ldr	r3, [r7, #4]
 8001b70:	681b      	ldr	r3, [r3, #0]
 8001b72:	61bb      	str	r3, [r7, #24]
      temp &= ~(GPIO_MODER_MODE0 << (position * 2U));
 8001b74:	69fb      	ldr	r3, [r7, #28]
 8001b76:	005b      	lsls	r3, r3, #1
 8001b78:	2203      	movs	r2, #3
 8001b7a:	fa02 f303 	lsl.w	r3, r2, r3
 8001b7e:	43db      	mvns	r3, r3
 8001b80:	69ba      	ldr	r2, [r7, #24]
 8001b82:	4013      	ands	r3, r2
 8001b84:	61bb      	str	r3, [r7, #24]
      temp |= ((GPIO_Init->Mode & GPIO_MODE) << (position * 2U));
 8001b86:	683b      	ldr	r3, [r7, #0]
 8001b88:	685b      	ldr	r3, [r3, #4]
 8001b8a:	f003 0203 	and.w	r2, r3, #3
 8001b8e:	69fb      	ldr	r3, [r7, #28]
 8001b90:	005b      	lsls	r3, r3, #1
 8001b92:	fa02 f303 	lsl.w	r3, r2, r3
 8001b96:	69ba      	ldr	r2, [r7, #24]
 8001b98:	4313      	orrs	r3, r2
 8001b9a:	61bb      	str	r3, [r7, #24]
      GPIOx->MODER = temp;
 8001b9c:	687b      	ldr	r3, [r7, #4]
 8001b9e:	69ba      	ldr	r2, [r7, #24]
 8001ba0:	601a      	str	r2, [r3, #0]

      /*--------------------- EXTI Mode Configuration ------------------------*/
      /* Configure the External Interrupt or event for the current IO */
      if ((GPIO_Init->Mode & EXTI_MODE) != 0x00U)
 8001ba2:	683b      	ldr	r3, [r7, #0]
 8001ba4:	685b      	ldr	r3, [r3, #4]
 8001ba6:	f403 3340 	and.w	r3, r3, #196608	; 0x30000
 8001baa:	2b00      	cmp	r3, #0
 8001bac:	f000 80e0 	beq.w	8001d70 <HAL_GPIO_Init+0x338>
      {
        /* Enable SYSCFG Clock */
        __HAL_RCC_SYSCFG_CLK_ENABLE();
 8001bb0:	4b2f      	ldr	r3, [pc, #188]	; (8001c70 <HAL_GPIO_Init+0x238>)
 8001bb2:	f8d3 30f4 	ldr.w	r3, [r3, #244]	; 0xf4
 8001bb6:	4a2e      	ldr	r2, [pc, #184]	; (8001c70 <HAL_GPIO_Init+0x238>)
 8001bb8:	f043 0302 	orr.w	r3, r3, #2
 8001bbc:	f8c2 30f4 	str.w	r3, [r2, #244]	; 0xf4
 8001bc0:	4b2b      	ldr	r3, [pc, #172]	; (8001c70 <HAL_GPIO_Init+0x238>)
 8001bc2:	f8d3 30f4 	ldr.w	r3, [r3, #244]	; 0xf4
 8001bc6:	f003 0302 	and.w	r3, r3, #2
 8001bca:	60fb      	str	r3, [r7, #12]
 8001bcc:	68fb      	ldr	r3, [r7, #12]

        temp = SYSCFG->EXTICR[position >> 2U];
 8001bce:	4a29      	ldr	r2, [pc, #164]	; (8001c74 <HAL_GPIO_Init+0x23c>)
 8001bd0:	69fb      	ldr	r3, [r7, #28]
 8001bd2:	089b      	lsrs	r3, r3, #2
 8001bd4:	3302      	adds	r3, #2
 8001bd6:	f852 3023 	ldr.w	r3, [r2, r3, lsl #2]
 8001bda:	61bb      	str	r3, [r7, #24]
        temp &= ~(0x0FUL << (4U * (position & 0x03U)));
 8001bdc:	69fb      	ldr	r3, [r7, #28]
 8001bde:	f003 0303 	and.w	r3, r3, #3
 8001be2:	009b      	lsls	r3, r3, #2
 8001be4:	220f      	movs	r2, #15
 8001be6:	fa02 f303 	lsl.w	r3, r2, r3
 8001bea:	43db      	mvns	r3, r3
 8001bec:	69ba      	ldr	r2, [r7, #24]
 8001bee:	4013      	ands	r3, r2
 8001bf0:	61bb      	str	r3, [r7, #24]
        temp |= (GPIO_GET_INDEX(GPIOx) << (4U * (position & 0x03U)));
 8001bf2:	687b      	ldr	r3, [r7, #4]
 8001bf4:	4a20      	ldr	r2, [pc, #128]	; (8001c78 <HAL_GPIO_Init+0x240>)
 8001bf6:	4293      	cmp	r3, r2
 8001bf8:	d052      	beq.n	8001ca0 <HAL_GPIO_Init+0x268>
 8001bfa:	687b      	ldr	r3, [r7, #4]
 8001bfc:	4a1f      	ldr	r2, [pc, #124]	; (8001c7c <HAL_GPIO_Init+0x244>)
 8001bfe:	4293      	cmp	r3, r2
 8001c00:	d031      	beq.n	8001c66 <HAL_GPIO_Init+0x22e>
 8001c02:	687b      	ldr	r3, [r7, #4]
 8001c04:	4a1e      	ldr	r2, [pc, #120]	; (8001c80 <HAL_GPIO_Init+0x248>)
 8001c06:	4293      	cmp	r3, r2
 8001c08:	d02b      	beq.n	8001c62 <HAL_GPIO_Init+0x22a>
 8001c0a:	687b      	ldr	r3, [r7, #4]
 8001c0c:	4a1d      	ldr	r2, [pc, #116]	; (8001c84 <HAL_GPIO_Init+0x24c>)
 8001c0e:	4293      	cmp	r3, r2
 8001c10:	d025      	beq.n	8001c5e <HAL_GPIO_Init+0x226>
 8001c12:	687b      	ldr	r3, [r7, #4]
 8001c14:	4a1c      	ldr	r2, [pc, #112]	; (8001c88 <HAL_GPIO_Init+0x250>)
 8001c16:	4293      	cmp	r3, r2
 8001c18:	d01f      	beq.n	8001c5a <HAL_GPIO_Init+0x222>
 8001c1a:	687b      	ldr	r3, [r7, #4]
 8001c1c:	4a1b      	ldr	r2, [pc, #108]	; (8001c8c <HAL_GPIO_Init+0x254>)
 8001c1e:	4293      	cmp	r3, r2
 8001c20:	d019      	beq.n	8001c56 <HAL_GPIO_Init+0x21e>
 8001c22:	687b      	ldr	r3, [r7, #4]
 8001c24:	4a1a      	ldr	r2, [pc, #104]	; (8001c90 <HAL_GPIO_Init+0x258>)
 8001c26:	4293      	cmp	r3, r2
 8001c28:	d013      	beq.n	8001c52 <HAL_GPIO_Init+0x21a>
 8001c2a:	687b      	ldr	r3, [r7, #4]
 8001c2c:	4a19      	ldr	r2, [pc, #100]	; (8001c94 <HAL_GPIO_Init+0x25c>)
 8001c2e:	4293      	cmp	r3, r2
 8001c30:	d00d      	beq.n	8001c4e <HAL_GPIO_Init+0x216>
 8001c32:	687b      	ldr	r3, [r7, #4]
 8001c34:	4a18      	ldr	r2, [pc, #96]	; (8001c98 <HAL_GPIO_Init+0x260>)
 8001c36:	4293      	cmp	r3, r2
 8001c38:	d007      	beq.n	8001c4a <HAL_GPIO_Init+0x212>
 8001c3a:	687b      	ldr	r3, [r7, #4]
 8001c3c:	4a17      	ldr	r2, [pc, #92]	; (8001c9c <HAL_GPIO_Init+0x264>)
 8001c3e:	4293      	cmp	r3, r2
 8001c40:	d101      	bne.n	8001c46 <HAL_GPIO_Init+0x20e>
 8001c42:	2309      	movs	r3, #9
 8001c44:	e02d      	b.n	8001ca2 <HAL_GPIO_Init+0x26a>
 8001c46:	230a      	movs	r3, #10
 8001c48:	e02b      	b.n	8001ca2 <HAL_GPIO_Init+0x26a>
 8001c4a:	2308      	movs	r3, #8
 8001c4c:	e029      	b.n	8001ca2 <HAL_GPIO_Init+0x26a>
 8001c4e:	2307      	movs	r3, #7
 8001c50:	e027      	b.n	8001ca2 <HAL_GPIO_Init+0x26a>
 8001c52:	2306      	movs	r3, #6
 8001c54:	e025      	b.n	8001ca2 <HAL_GPIO_Init+0x26a>
 8001c56:	2305      	movs	r3, #5
 8001c58:	e023      	b.n	8001ca2 <HAL_GPIO_Init+0x26a>
 8001c5a:	2304      	movs	r3, #4
 8001c5c:	e021      	b.n	8001ca2 <HAL_GPIO_Init+0x26a>
 8001c5e:	2303      	movs	r3, #3
 8001c60:	e01f      	b.n	8001ca2 <HAL_GPIO_Init+0x26a>
 8001c62:	2302      	movs	r3, #2
 8001c64:	e01d      	b.n	8001ca2 <HAL_GPIO_Init+0x26a>
 8001c66:	2301      	movs	r3, #1
 8001c68:	e01b      	b.n	8001ca2 <HAL_GPIO_Init+0x26a>
 8001c6a:	bf00      	nop
 8001c6c:	58000080 	.word	0x58000080
 8001c70:	58024400 	.word	0x58024400
 8001c74:	58000400 	.word	0x58000400
 8001c78:	58020000 	.word	0x58020000
 8001c7c:	58020400 	.word	0x58020400
 8001c80:	58020800 	.word	0x58020800
 8001c84:	58020c00 	.word	0x58020c00
 8001c88:	58021000 	.word	0x58021000
 8001c8c:	58021400 	.word	0x58021400
 8001c90:	58021800 	.word	0x58021800
 8001c94:	58021c00 	.word	0x58021c00
 8001c98:	58022000 	.word	0x58022000
 8001c9c:	58022400 	.word	0x58022400
 8001ca0:	2300      	movs	r3, #0
 8001ca2:	69fa      	ldr	r2, [r7, #28]
 8001ca4:	f002 0203 	and.w	r2, r2, #3
 8001ca8:	0092      	lsls	r2, r2, #2
 8001caa:	4093      	lsls	r3, r2
 8001cac:	69ba      	ldr	r2, [r7, #24]
 8001cae:	4313      	orrs	r3, r2
 8001cb0:	61bb      	str	r3, [r7, #24]
        SYSCFG->EXTICR[position >> 2U] = temp;
 8001cb2:	4938      	ldr	r1, [pc, #224]	; (8001d94 <HAL_GPIO_Init+0x35c>)
 8001cb4:	69fb      	ldr	r3, [r7, #28]
 8001cb6:	089b      	lsrs	r3, r3, #2
 8001cb8:	3302      	adds	r3, #2
 8001cba:	69ba      	ldr	r2, [r7, #24]
 8001cbc:	f841 2023 	str.w	r2, [r1, r3, lsl #2]

        /* Clear Rising Falling edge configuration */
        temp = EXTI->RTSR1;
 8001cc0:	f04f 43b0 	mov.w	r3, #1476395008	; 0x58000000
 8001cc4:	681b      	ldr	r3, [r3, #0]
 8001cc6:	61bb      	str	r3, [r7, #24]
        temp &= ~(iocurrent);
 8001cc8:	693b      	ldr	r3, [r7, #16]
 8001cca:	43db      	mvns	r3, r3
 8001ccc:	69ba      	ldr	r2, [r7, #24]
 8001cce:	4013      	ands	r3, r2
 8001cd0:	61bb      	str	r3, [r7, #24]
        if ((GPIO_Init->Mode & TRIGGER_RISING) != 0x00U)
 8001cd2:	683b      	ldr	r3, [r7, #0]
 8001cd4:	685b      	ldr	r3, [r3, #4]
 8001cd6:	f403 1380 	and.w	r3, r3, #1048576	; 0x100000
 8001cda:	2b00      	cmp	r3, #0
 8001cdc:	d003      	beq.n	8001ce6 <HAL_GPIO_Init+0x2ae>
        {
          temp |= iocurrent;
 8001cde:	69ba      	ldr	r2, [r7, #24]
 8001ce0:	693b      	ldr	r3, [r7, #16]
 8001ce2:	4313      	orrs	r3, r2
 8001ce4:	61bb      	str	r3, [r7, #24]
        }
        EXTI->RTSR1 = temp;
 8001ce6:	f04f 42b0 	mov.w	r2, #1476395008	; 0x58000000
 8001cea:	69bb      	ldr	r3, [r7, #24]
 8001cec:	6013      	str	r3, [r2, #0]

        temp = EXTI->FTSR1;
 8001cee:	f04f 43b0 	mov.w	r3, #1476395008	; 0x58000000
 8001cf2:	685b      	ldr	r3, [r3, #4]
 8001cf4:	61bb      	str	r3, [r7, #24]
        temp &= ~(iocurrent);
 8001cf6:	693b      	ldr	r3, [r7, #16]
 8001cf8:	43db      	mvns	r3, r3
 8001cfa:	69ba      	ldr	r2, [r7, #24]
 8001cfc:	4013      	ands	r3, r2
 8001cfe:	61bb      	str	r3, [r7, #24]
        if ((GPIO_Init->Mode & TRIGGER_FALLING) != 0x00U)
 8001d00:	683b      	ldr	r3, [r7, #0]
 8001d02:	685b      	ldr	r3, [r3, #4]
 8001d04:	f403 1300 	and.w	r3, r3, #2097152	; 0x200000
 8001d08:	2b00      	cmp	r3, #0
 8001d0a:	d003      	beq.n	8001d14 <HAL_GPIO_Init+0x2dc>
        {
          temp |= iocurrent;
 8001d0c:	69ba      	ldr	r2, [r7, #24]
 8001d0e:	693b      	ldr	r3, [r7, #16]
 8001d10:	4313      	orrs	r3, r2
 8001d12:	61bb      	str	r3, [r7, #24]
        }
        EXTI->FTSR1 = temp;
 8001d14:	f04f 42b0 	mov.w	r2, #1476395008	; 0x58000000
 8001d18:	69bb      	ldr	r3, [r7, #24]
 8001d1a:	6053      	str	r3, [r2, #4]

        temp = EXTI_CurrentCPU->EMR1;
 8001d1c:	697b      	ldr	r3, [r7, #20]
 8001d1e:	685b      	ldr	r3, [r3, #4]
 8001d20:	61bb      	str	r3, [r7, #24]
        temp &= ~(iocurrent);
 8001d22:	693b      	ldr	r3, [r7, #16]
 8001d24:	43db      	mvns	r3, r3
 8001d26:	69ba      	ldr	r2, [r7, #24]
 8001d28:	4013      	ands	r3, r2
 8001d2a:	61bb      	str	r3, [r7, #24]
        if ((GPIO_Init->Mode & EXTI_EVT) != 0x00U)
 8001d2c:	683b      	ldr	r3, [r7, #0]
 8001d2e:	685b      	ldr	r3, [r3, #4]
 8001d30:	f403 3300 	and.w	r3, r3, #131072	; 0x20000
 8001d34:	2b00      	cmp	r3, #0
 8001d36:	d003      	beq.n	8001d40 <HAL_GPIO_Init+0x308>
        {
          temp |= iocurrent;
 8001d38:	69ba      	ldr	r2, [r7, #24]
 8001d3a:	693b      	ldr	r3, [r7, #16]
 8001d3c:	4313      	orrs	r3, r2
 8001d3e:	61bb      	str	r3, [r7, #24]
        }
        EXTI_CurrentCPU->EMR1 = temp;
 8001d40:	697b      	ldr	r3, [r7, #20]
 8001d42:	69ba      	ldr	r2, [r7, #24]
 8001d44:	605a      	str	r2, [r3, #4]

        /* Clear EXTI line configuration */
        temp = EXTI_CurrentCPU->IMR1;
 8001d46:	697b      	ldr	r3, [r7, #20]
 8001d48:	681b      	ldr	r3, [r3, #0]
 8001d4a:	61bb      	str	r3, [r7, #24]
        temp &= ~(iocurrent);
 8001d4c:	693b      	ldr	r3, [r7, #16]
 8001d4e:	43db      	mvns	r3, r3
 8001d50:	69ba      	ldr	r2, [r7, #24]
 8001d52:	4013      	ands	r3, r2
 8001d54:	61bb      	str	r3, [r7, #24]
        if ((GPIO_Init->Mode & EXTI_IT) != 0x00U)
 8001d56:	683b      	ldr	r3, [r7, #0]
 8001d58:	685b      	ldr	r3, [r3, #4]
 8001d5a:	f403 3380 	and.w	r3, r3, #65536	; 0x10000
 8001d5e:	2b00      	cmp	r3, #0
 8001d60:	d003      	beq.n	8001d6a <HAL_GPIO_Init+0x332>
        {
          temp |= iocurrent;
 8001d62:	69ba      	ldr	r2, [r7, #24]
 8001d64:	693b      	ldr	r3, [r7, #16]
 8001d66:	4313      	orrs	r3, r2
 8001d68:	61bb      	str	r3, [r7, #24]
        }
        EXTI_CurrentCPU->IMR1 = temp;
 8001d6a:	697b      	ldr	r3, [r7, #20]
 8001d6c:	69ba      	ldr	r2, [r7, #24]
 8001d6e:	601a      	str	r2, [r3, #0]
      }
    }

    position++;
 8001d70:	69fb      	ldr	r3, [r7, #28]
 8001d72:	3301      	adds	r3, #1
 8001d74:	61fb      	str	r3, [r7, #28]
  while (((GPIO_Init->Pin) >> position) != 0x00U)
 8001d76:	683b      	ldr	r3, [r7, #0]
 8001d78:	681a      	ldr	r2, [r3, #0]
 8001d7a:	69fb      	ldr	r3, [r7, #28]
 8001d7c:	fa22 f303 	lsr.w	r3, r2, r3
 8001d80:	2b00      	cmp	r3, #0
 8001d82:	f47f ae63 	bne.w	8001a4c <HAL_GPIO_Init+0x14>
  }
}
 8001d86:	bf00      	nop
 8001d88:	bf00      	nop
 8001d8a:	3724      	adds	r7, #36	; 0x24
 8001d8c:	46bd      	mov	sp, r7
 8001d8e:	f85d 7b04 	ldr.w	r7, [sp], #4
 8001d92:	4770      	bx	lr
 8001d94:	58000400 	.word	0x58000400

08001d98 <HAL_GPIO_WritePin>:
  *            @arg GPIO_PIN_RESET: to clear the port pin
  *            @arg GPIO_PIN_SET: to set the port pin
  * @retval None
  */
void HAL_GPIO_WritePin(GPIO_TypeDef *GPIOx, uint16_t GPIO_Pin, GPIO_PinState PinState)
{
 8001d98:	b480      	push	{r7}
 8001d9a:	b083      	sub	sp, #12
 8001d9c:	af00      	add	r7, sp, #0
 8001d9e:	6078      	str	r0, [r7, #4]
 8001da0:	460b      	mov	r3, r1
 8001da2:	807b      	strh	r3, [r7, #2]
 8001da4:	4613      	mov	r3, r2
 8001da6:	707b      	strb	r3, [r7, #1]
  /* Check the parameters */
  assert_param(IS_GPIO_PIN(GPIO_Pin));
  assert_param(IS_GPIO_PIN_ACTION(PinState));

  if (PinState != GPIO_PIN_RESET)
 8001da8:	787b      	ldrb	r3, [r7, #1]
 8001daa:	2b00      	cmp	r3, #0
 8001dac:	d003      	beq.n	8001db6 <HAL_GPIO_WritePin+0x1e>
  {
    GPIOx->BSRR = GPIO_Pin;
 8001dae:	887a      	ldrh	r2, [r7, #2]
 8001db0:	687b      	ldr	r3, [r7, #4]
 8001db2:	619a      	str	r2, [r3, #24]
  }
  else
  {
    GPIOx->BSRR = (uint32_t)GPIO_Pin << GPIO_NUMBER;
  }
}
 8001db4:	e003      	b.n	8001dbe <HAL_GPIO_WritePin+0x26>
    GPIOx->BSRR = (uint32_t)GPIO_Pin << GPIO_NUMBER;
 8001db6:	887b      	ldrh	r3, [r7, #2]
 8001db8:	041a      	lsls	r2, r3, #16
 8001dba:	687b      	ldr	r3, [r7, #4]
 8001dbc:	619a      	str	r2, [r3, #24]
}
 8001dbe:	bf00      	nop
 8001dc0:	370c      	adds	r7, #12
 8001dc2:	46bd      	mov	sp, r7
 8001dc4:	f85d 7b04 	ldr.w	r7, [sp], #4
 8001dc8:	4770      	bx	lr
	...

08001dcc <HAL_HSEM_FastTake>:
  * @brief  Fast Take a semaphore with 1 Step mode.
  * @param  SemID: semaphore ID from 0 to 31
  * @retval HAL status
  */
HAL_StatusTypeDef HAL_HSEM_FastTake(uint32_t SemID)
{
 8001dcc:	b480      	push	{r7}
 8001dce:	b083      	sub	sp, #12
 8001dd0:	af00      	add	r7, sp, #0
 8001dd2:	6078      	str	r0, [r7, #4]
    /*take success when MasterID match and take bit set*/
    return HAL_OK;
  }
#else  
  /* Read the RLR register to take the semaphore */
  if (HSEM->RLR[SemID] == (HSEM_CR_COREID_CURRENT | HSEM_RLR_LOCK))
 8001dd4:	4a08      	ldr	r2, [pc, #32]	; (8001df8 <HAL_HSEM_FastTake+0x2c>)
 8001dd6:	687b      	ldr	r3, [r7, #4]
 8001dd8:	3320      	adds	r3, #32
 8001dda:	f852 3023 	ldr.w	r3, [r2, r3, lsl #2]
 8001dde:	4a07      	ldr	r2, [pc, #28]	; (8001dfc <HAL_HSEM_FastTake+0x30>)
 8001de0:	4293      	cmp	r3, r2
 8001de2:	d101      	bne.n	8001de8 <HAL_HSEM_FastTake+0x1c>
  {
    /*take success when MasterID match and take bit set*/
    return HAL_OK;
 8001de4:	2300      	movs	r3, #0
 8001de6:	e000      	b.n	8001dea <HAL_HSEM_FastTake+0x1e>
  }
#endif

  /* Semaphore take fails */
  return HAL_ERROR;
 8001de8:	2301      	movs	r3, #1
}
 8001dea:	4618      	mov	r0, r3
 8001dec:	370c      	adds	r7, #12
 8001dee:	46bd      	mov	sp, r7
 8001df0:	f85d 7b04 	ldr.w	r7, [sp], #4
 8001df4:	4770      	bx	lr
 8001df6:	bf00      	nop
 8001df8:	58026400 	.word	0x58026400
 8001dfc:	80000300 	.word	0x80000300

08001e00 <HAL_HSEM_Release>:
  * @param  SemID: semaphore ID from 0 to 31
  * @param  ProcessID: Process ID from 0 to 255
  * @retval None
  */
void  HAL_HSEM_Release(uint32_t SemID, uint32_t ProcessID)
{
 8001e00:	b480      	push	{r7}
 8001e02:	b083      	sub	sp, #12
 8001e04:	af00      	add	r7, sp, #0
 8001e06:	6078      	str	r0, [r7, #4]
 8001e08:	6039      	str	r1, [r7, #0]

  /* Clear the semaphore by writing to the R register : the MasterID , the processID and take bit = 0  */
#if  USE_MULTI_CORE_SHARED_CODE != 0U
  HSEM->R[SemID] = (ProcessID | ((HAL_GetCurrentCPUID() << POSITION_VAL(HSEM_R_MASTERID)) & HSEM_R_MASTERID));
#else
  HSEM->R[SemID] = (ProcessID | HSEM_CR_COREID_CURRENT);
 8001e0a:	4906      	ldr	r1, [pc, #24]	; (8001e24 <HAL_HSEM_Release+0x24>)
 8001e0c:	683b      	ldr	r3, [r7, #0]
 8001e0e:	f443 7240 	orr.w	r2, r3, #768	; 0x300
 8001e12:	687b      	ldr	r3, [r7, #4]
 8001e14:	f841 2023 	str.w	r2, [r1, r3, lsl #2]
#endif

}
 8001e18:	bf00      	nop
 8001e1a:	370c      	adds	r7, #12
 8001e1c:	46bd      	mov	sp, r7
 8001e1e:	f85d 7b04 	ldr.w	r7, [sp], #4
 8001e22:	4770      	bx	lr
 8001e24:	58026400 	.word	0x58026400

08001e28 <HAL_I2C_Init>:
  * @param  hi2c Pointer to a I2C_HandleTypeDef structure that contains
  *                the configuration information for the specified I2C.
  * @retval HAL status
  */
HAL_StatusTypeDef HAL_I2C_Init(I2C_HandleTypeDef *hi2c)
{
 8001e28:	b580      	push	{r7, lr}
 8001e2a:	b082      	sub	sp, #8
 8001e2c:	af00      	add	r7, sp, #0
 8001e2e:	6078      	str	r0, [r7, #4]
  /* Check the I2C handle allocation */
  if (hi2c == NULL)
 8001e30:	687b      	ldr	r3, [r7, #4]
 8001e32:	2b00      	cmp	r3, #0
 8001e34:	d101      	bne.n	8001e3a <HAL_I2C_Init+0x12>
  {
    return HAL_ERROR;
 8001e36:	2301      	movs	r3, #1
 8001e38:	e07f      	b.n	8001f3a <HAL_I2C_Init+0x112>
  assert_param(IS_I2C_OWN_ADDRESS2(hi2c->Init.OwnAddress2));
  assert_param(IS_I2C_OWN_ADDRESS2_MASK(hi2c->Init.OwnAddress2Masks));
  assert_param(IS_I2C_GENERAL_CALL(hi2c->Init.GeneralCallMode));
  assert_param(IS_I2C_NO_STRETCH(hi2c->Init.NoStretchMode));

  if (hi2c->State == HAL_I2C_STATE_RESET)
 8001e3a:	687b      	ldr	r3, [r7, #4]
 8001e3c:	f893 3041 	ldrb.w	r3, [r3, #65]	; 0x41
 8001e40:	b2db      	uxtb	r3, r3
 8001e42:	2b00      	cmp	r3, #0
 8001e44:	d106      	bne.n	8001e54 <HAL_I2C_Init+0x2c>
  {
    /* Allocate lock resource and initialize it */
    hi2c->Lock = HAL_UNLOCKED;
 8001e46:	687b      	ldr	r3, [r7, #4]
 8001e48:	2200      	movs	r2, #0
 8001e4a:	f883 2040 	strb.w	r2, [r3, #64]	; 0x40

    /* Init the low level hardware : GPIO, CLOCK, CORTEX...etc */
    hi2c->MspInitCallback(hi2c);
#else
    /* Init the low level hardware : GPIO, CLOCK, CORTEX...etc */
    HAL_I2C_MspInit(hi2c);
 8001e4e:	6878      	ldr	r0, [r7, #4]
 8001e50:	f7ff f9fe 	bl	8001250 <HAL_I2C_MspInit>
#endif /* USE_HAL_I2C_REGISTER_CALLBACKS */
  }

  hi2c->State = HAL_I2C_STATE_BUSY;
 8001e54:	687b      	ldr	r3, [r7, #4]
 8001e56:	2224      	movs	r2, #36	; 0x24
 8001e58:	f883 2041 	strb.w	r2, [r3, #65]	; 0x41

  /* Disable the selected I2C peripheral */
  __HAL_I2C_DISABLE(hi2c);
 8001e5c:	687b      	ldr	r3, [r7, #4]
 8001e5e:	681b      	ldr	r3, [r3, #0]
 8001e60:	681a      	ldr	r2, [r3, #0]
 8001e62:	687b      	ldr	r3, [r7, #4]
 8001e64:	681b      	ldr	r3, [r3, #0]
 8001e66:	f022 0201 	bic.w	r2, r2, #1
 8001e6a:	601a      	str	r2, [r3, #0]

  /*---------------------------- I2Cx TIMINGR Configuration ------------------*/
  /* Configure I2Cx: Frequency range */
  hi2c->Instance->TIMINGR = hi2c->Init.Timing & TIMING_CLEAR_MASK;
 8001e6c:	687b      	ldr	r3, [r7, #4]
 8001e6e:	685a      	ldr	r2, [r3, #4]
 8001e70:	687b      	ldr	r3, [r7, #4]
 8001e72:	681b      	ldr	r3, [r3, #0]
 8001e74:	f022 6270 	bic.w	r2, r2, #251658240	; 0xf000000
 8001e78:	611a      	str	r2, [r3, #16]

  /*---------------------------- I2Cx OAR1 Configuration ---------------------*/
  /* Disable Own Address1 before set the Own Address1 configuration */
  hi2c->Instance->OAR1 &= ~I2C_OAR1_OA1EN;
 8001e7a:	687b      	ldr	r3, [r7, #4]
 8001e7c:	681b      	ldr	r3, [r3, #0]
 8001e7e:	689a      	ldr	r2, [r3, #8]
 8001e80:	687b      	ldr	r3, [r7, #4]
 8001e82:	681b      	ldr	r3, [r3, #0]
 8001e84:	f422 4200 	bic.w	r2, r2, #32768	; 0x8000
 8001e88:	609a      	str	r2, [r3, #8]

  /* Configure I2Cx: Own Address1 and ack own address1 mode */
  if (hi2c->Init.AddressingMode == I2C_ADDRESSINGMODE_7BIT)
 8001e8a:	687b      	ldr	r3, [r7, #4]
 8001e8c:	68db      	ldr	r3, [r3, #12]
 8001e8e:	2b01      	cmp	r3, #1
 8001e90:	d107      	bne.n	8001ea2 <HAL_I2C_Init+0x7a>
  {
    hi2c->Instance->OAR1 = (I2C_OAR1_OA1EN | hi2c->Init.OwnAddress1);
 8001e92:	687b      	ldr	r3, [r7, #4]
 8001e94:	689a      	ldr	r2, [r3, #8]
 8001e96:	687b      	ldr	r3, [r7, #4]
 8001e98:	681b      	ldr	r3, [r3, #0]
 8001e9a:	f442 4200 	orr.w	r2, r2, #32768	; 0x8000
 8001e9e:	609a      	str	r2, [r3, #8]
 8001ea0:	e006      	b.n	8001eb0 <HAL_I2C_Init+0x88>
  }
  else /* I2C_ADDRESSINGMODE_10BIT */
  {
    hi2c->Instance->OAR1 = (I2C_OAR1_OA1EN | I2C_OAR1_OA1MODE | hi2c->Init.OwnAddress1);
 8001ea2:	687b      	ldr	r3, [r7, #4]
 8001ea4:	689a      	ldr	r2, [r3, #8]
 8001ea6:	687b      	ldr	r3, [r7, #4]
 8001ea8:	681b      	ldr	r3, [r3, #0]
 8001eaa:	f442 4204 	orr.w	r2, r2, #33792	; 0x8400
 8001eae:	609a      	str	r2, [r3, #8]
  }

  /*---------------------------- I2Cx CR2 Configuration ----------------------*/
  /* Configure I2Cx: Addressing Master mode */
  if (hi2c->Init.AddressingMode == I2C_ADDRESSINGMODE_10BIT)
 8001eb0:	687b      	ldr	r3, [r7, #4]
 8001eb2:	68db      	ldr	r3, [r3, #12]
 8001eb4:	2b02      	cmp	r3, #2
 8001eb6:	d104      	bne.n	8001ec2 <HAL_I2C_Init+0x9a>
  {
    hi2c->Instance->CR2 = (I2C_CR2_ADD10);
 8001eb8:	687b      	ldr	r3, [r7, #4]
 8001eba:	681b      	ldr	r3, [r3, #0]
 8001ebc:	f44f 6200 	mov.w	r2, #2048	; 0x800
 8001ec0:	605a      	str	r2, [r3, #4]
  }
  /* Enable the AUTOEND by default, and enable NACK (should be disable only during Slave process */
  hi2c->Instance->CR2 |= (I2C_CR2_AUTOEND | I2C_CR2_NACK);
 8001ec2:	687b      	ldr	r3, [r7, #4]
 8001ec4:	681b      	ldr	r3, [r3, #0]
 8001ec6:	6859      	ldr	r1, [r3, #4]
 8001ec8:	687b      	ldr	r3, [r7, #4]
 8001eca:	681a      	ldr	r2, [r3, #0]
 8001ecc:	4b1d      	ldr	r3, [pc, #116]	; (8001f44 <HAL_I2C_Init+0x11c>)
 8001ece:	430b      	orrs	r3, r1
 8001ed0:	6053      	str	r3, [r2, #4]

  /*---------------------------- I2Cx OAR2 Configuration ---------------------*/
  /* Disable Own Address2 before set the Own Address2 configuration */
  hi2c->Instance->OAR2 &= ~I2C_DUALADDRESS_ENABLE;
 8001ed2:	687b      	ldr	r3, [r7, #4]
 8001ed4:	681b      	ldr	r3, [r3, #0]
 8001ed6:	68da      	ldr	r2, [r3, #12]
 8001ed8:	687b      	ldr	r3, [r7, #4]
 8001eda:	681b      	ldr	r3, [r3, #0]
 8001edc:	f422 4200 	bic.w	r2, r2, #32768	; 0x8000
 8001ee0:	60da      	str	r2, [r3, #12]

  /* Configure I2Cx: Dual mode and Own Address2 */
  hi2c->Instance->OAR2 = (hi2c->Init.DualAddressMode | hi2c->Init.OwnAddress2 | \
 8001ee2:	687b      	ldr	r3, [r7, #4]
 8001ee4:	691a      	ldr	r2, [r3, #16]
 8001ee6:	687b      	ldr	r3, [r7, #4]
 8001ee8:	695b      	ldr	r3, [r3, #20]
 8001eea:	ea42 0103 	orr.w	r1, r2, r3
                          (hi2c->Init.OwnAddress2Masks << 8));
 8001eee:	687b      	ldr	r3, [r7, #4]
 8001ef0:	699b      	ldr	r3, [r3, #24]
 8001ef2:	021a      	lsls	r2, r3, #8
  hi2c->Instance->OAR2 = (hi2c->Init.DualAddressMode | hi2c->Init.OwnAddress2 | \
 8001ef4:	687b      	ldr	r3, [r7, #4]
 8001ef6:	681b      	ldr	r3, [r3, #0]
 8001ef8:	430a      	orrs	r2, r1
 8001efa:	60da      	str	r2, [r3, #12]

  /*---------------------------- I2Cx CR1 Configuration ----------------------*/
  /* Configure I2Cx: Generalcall and NoStretch mode */
  hi2c->Instance->CR1 = (hi2c->Init.GeneralCallMode | hi2c->Init.NoStretchMode);
 8001efc:	687b      	ldr	r3, [r7, #4]
 8001efe:	69d9      	ldr	r1, [r3, #28]
 8001f00:	687b      	ldr	r3, [r7, #4]
 8001f02:	6a1a      	ldr	r2, [r3, #32]
 8001f04:	687b      	ldr	r3, [r7, #4]
 8001f06:	681b      	ldr	r3, [r3, #0]
 8001f08:	430a      	orrs	r2, r1
 8001f0a:	601a      	str	r2, [r3, #0]

  /* Enable the selected I2C peripheral */
  __HAL_I2C_ENABLE(hi2c);
 8001f0c:	687b      	ldr	r3, [r7, #4]
 8001f0e:	681b      	ldr	r3, [r3, #0]
 8001f10:	681a      	ldr	r2, [r3, #0]
 8001f12:	687b      	ldr	r3, [r7, #4]
 8001f14:	681b      	ldr	r3, [r3, #0]
 8001f16:	f042 0201 	orr.w	r2, r2, #1
 8001f1a:	601a      	str	r2, [r3, #0]

  hi2c->ErrorCode = HAL_I2C_ERROR_NONE;
 8001f1c:	687b      	ldr	r3, [r7, #4]
 8001f1e:	2200      	movs	r2, #0
 8001f20:	645a      	str	r2, [r3, #68]	; 0x44
  hi2c->State = HAL_I2C_STATE_READY;
 8001f22:	687b      	ldr	r3, [r7, #4]
 8001f24:	2220      	movs	r2, #32
 8001f26:	f883 2041 	strb.w	r2, [r3, #65]	; 0x41
  hi2c->PreviousState = I2C_STATE_NONE;
 8001f2a:	687b      	ldr	r3, [r7, #4]
 8001f2c:	2200      	movs	r2, #0
 8001f2e:	631a      	str	r2, [r3, #48]	; 0x30
  hi2c->Mode = HAL_I2C_MODE_NONE;
 8001f30:	687b      	ldr	r3, [r7, #4]
 8001f32:	2200      	movs	r2, #0
 8001f34:	f883 2042 	strb.w	r2, [r3, #66]	; 0x42

  return HAL_OK;
 8001f38:	2300      	movs	r3, #0
}
 8001f3a:	4618      	mov	r0, r3
 8001f3c:	3708      	adds	r7, #8
 8001f3e:	46bd      	mov	sp, r7
 8001f40:	bd80      	pop	{r7, pc}
 8001f42:	bf00      	nop
 8001f44:	02008000 	.word	0x02008000

08001f48 <HAL_I2C_Mem_Write>:
  * @param  Timeout Timeout duration
  * @retval HAL status
  */
HAL_StatusTypeDef HAL_I2C_Mem_Write(I2C_HandleTypeDef *hi2c, uint16_t DevAddress, uint16_t MemAddress,
                                    uint16_t MemAddSize, uint8_t *pData, uint16_t Size, uint32_t Timeout)
{
 8001f48:	b580      	push	{r7, lr}
 8001f4a:	b088      	sub	sp, #32
 8001f4c:	af02      	add	r7, sp, #8
 8001f4e:	60f8      	str	r0, [r7, #12]
 8001f50:	4608      	mov	r0, r1
 8001f52:	4611      	mov	r1, r2
 8001f54:	461a      	mov	r2, r3
 8001f56:	4603      	mov	r3, r0
 8001f58:	817b      	strh	r3, [r7, #10]
 8001f5a:	460b      	mov	r3, r1
 8001f5c:	813b      	strh	r3, [r7, #8]
 8001f5e:	4613      	mov	r3, r2
 8001f60:	80fb      	strh	r3, [r7, #6]
  uint32_t tickstart;

  /* Check the parameters */
  assert_param(IS_I2C_MEMADD_SIZE(MemAddSize));

  if (hi2c->State == HAL_I2C_STATE_READY)
 8001f62:	68fb      	ldr	r3, [r7, #12]
 8001f64:	f893 3041 	ldrb.w	r3, [r3, #65]	; 0x41
 8001f68:	b2db      	uxtb	r3, r3
 8001f6a:	2b20      	cmp	r3, #32
 8001f6c:	f040 80f9 	bne.w	8002162 <HAL_I2C_Mem_Write+0x21a>
  {
    if ((pData == NULL) || (Size == 0U))
 8001f70:	6a3b      	ldr	r3, [r7, #32]
 8001f72:	2b00      	cmp	r3, #0
 8001f74:	d002      	beq.n	8001f7c <HAL_I2C_Mem_Write+0x34>
 8001f76:	8cbb      	ldrh	r3, [r7, #36]	; 0x24
 8001f78:	2b00      	cmp	r3, #0
 8001f7a:	d105      	bne.n	8001f88 <HAL_I2C_Mem_Write+0x40>
    {
      hi2c->ErrorCode = HAL_I2C_ERROR_INVALID_PARAM;
 8001f7c:	68fb      	ldr	r3, [r7, #12]
 8001f7e:	f44f 7200 	mov.w	r2, #512	; 0x200
 8001f82:	645a      	str	r2, [r3, #68]	; 0x44
      return  HAL_ERROR;
 8001f84:	2301      	movs	r3, #1
 8001f86:	e0ed      	b.n	8002164 <HAL_I2C_Mem_Write+0x21c>
    }

    /* Process Locked */
    __HAL_LOCK(hi2c);
 8001f88:	68fb      	ldr	r3, [r7, #12]
 8001f8a:	f893 3040 	ldrb.w	r3, [r3, #64]	; 0x40
 8001f8e:	2b01      	cmp	r3, #1
 8001f90:	d101      	bne.n	8001f96 <HAL_I2C_Mem_Write+0x4e>
 8001f92:	2302      	movs	r3, #2
 8001f94:	e0e6      	b.n	8002164 <HAL_I2C_Mem_Write+0x21c>
 8001f96:	68fb      	ldr	r3, [r7, #12]
 8001f98:	2201      	movs	r2, #1
 8001f9a:	f883 2040 	strb.w	r2, [r3, #64]	; 0x40

    /* Init tickstart for timeout management*/
    tickstart = HAL_GetTick();
 8001f9e:	f7ff fc2b 	bl	80017f8 <HAL_GetTick>
 8001fa2:	6178      	str	r0, [r7, #20]

    if (I2C_WaitOnFlagUntilTimeout(hi2c, I2C_FLAG_BUSY, SET, I2C_TIMEOUT_BUSY, tickstart) != HAL_OK)
 8001fa4:	697b      	ldr	r3, [r7, #20]
 8001fa6:	9300      	str	r3, [sp, #0]
 8001fa8:	2319      	movs	r3, #25
 8001faa:	2201      	movs	r2, #1
 8001fac:	f44f 4100 	mov.w	r1, #32768	; 0x8000
 8001fb0:	68f8      	ldr	r0, [r7, #12]
 8001fb2:	f000 fac3 	bl	800253c <I2C_WaitOnFlagUntilTimeout>
 8001fb6:	4603      	mov	r3, r0
 8001fb8:	2b00      	cmp	r3, #0
 8001fba:	d001      	beq.n	8001fc0 <HAL_I2C_Mem_Write+0x78>
    {
      return HAL_ERROR;
 8001fbc:	2301      	movs	r3, #1
 8001fbe:	e0d1      	b.n	8002164 <HAL_I2C_Mem_Write+0x21c>
    }

    hi2c->State     = HAL_I2C_STATE_BUSY_TX;
 8001fc0:	68fb      	ldr	r3, [r7, #12]
 8001fc2:	2221      	movs	r2, #33	; 0x21
 8001fc4:	f883 2041 	strb.w	r2, [r3, #65]	; 0x41
    hi2c->Mode      = HAL_I2C_MODE_MEM;
 8001fc8:	68fb      	ldr	r3, [r7, #12]
 8001fca:	2240      	movs	r2, #64	; 0x40
 8001fcc:	f883 2042 	strb.w	r2, [r3, #66]	; 0x42
    hi2c->ErrorCode = HAL_I2C_ERROR_NONE;
 8001fd0:	68fb      	ldr	r3, [r7, #12]
 8001fd2:	2200      	movs	r2, #0
 8001fd4:	645a      	str	r2, [r3, #68]	; 0x44

    /* Prepare transfer parameters */
    hi2c->pBuffPtr  = pData;
 8001fd6:	68fb      	ldr	r3, [r7, #12]
 8001fd8:	6a3a      	ldr	r2, [r7, #32]
 8001fda:	625a      	str	r2, [r3, #36]	; 0x24
    hi2c->XferCount = Size;
 8001fdc:	68fb      	ldr	r3, [r7, #12]
 8001fde:	8cba      	ldrh	r2, [r7, #36]	; 0x24
 8001fe0:	855a      	strh	r2, [r3, #42]	; 0x2a
    hi2c->XferISR   = NULL;
 8001fe2:	68fb      	ldr	r3, [r7, #12]
 8001fe4:	2200      	movs	r2, #0
 8001fe6:	635a      	str	r2, [r3, #52]	; 0x34

    /* Send Slave Address and Memory Address */
    if (I2C_RequestMemoryWrite(hi2c, DevAddress, MemAddress, MemAddSize, Timeout, tickstart) != HAL_OK)
 8001fe8:	88f8      	ldrh	r0, [r7, #6]
 8001fea:	893a      	ldrh	r2, [r7, #8]
 8001fec:	8979      	ldrh	r1, [r7, #10]
 8001fee:	697b      	ldr	r3, [r7, #20]
 8001ff0:	9301      	str	r3, [sp, #4]
 8001ff2:	6abb      	ldr	r3, [r7, #40]	; 0x28
 8001ff4:	9300      	str	r3, [sp, #0]
 8001ff6:	4603      	mov	r3, r0
 8001ff8:	68f8      	ldr	r0, [r7, #12]
 8001ffa:	f000 f9d3 	bl	80023a4 <I2C_RequestMemoryWrite>
 8001ffe:	4603      	mov	r3, r0
 8002000:	2b00      	cmp	r3, #0
 8002002:	d005      	beq.n	8002010 <HAL_I2C_Mem_Write+0xc8>
    {
      /* Process Unlocked */
      __HAL_UNLOCK(hi2c);
 8002004:	68fb      	ldr	r3, [r7, #12]
 8002006:	2200      	movs	r2, #0
 8002008:	f883 2040 	strb.w	r2, [r3, #64]	; 0x40
      return HAL_ERROR;
 800200c:	2301      	movs	r3, #1
 800200e:	e0a9      	b.n	8002164 <HAL_I2C_Mem_Write+0x21c>
    }

    /* Set NBYTES to write and reload if hi2c->XferCount > MAX_NBYTE_SIZE */
    if (hi2c->XferCount > MAX_NBYTE_SIZE)
 8002010:	68fb      	ldr	r3, [r7, #12]
 8002012:	8d5b      	ldrh	r3, [r3, #42]	; 0x2a
 8002014:	b29b      	uxth	r3, r3
 8002016:	2bff      	cmp	r3, #255	; 0xff
 8002018:	d90e      	bls.n	8002038 <HAL_I2C_Mem_Write+0xf0>
    {
      hi2c->XferSize = MAX_NBYTE_SIZE;
 800201a:	68fb      	ldr	r3, [r7, #12]
 800201c:	22ff      	movs	r2, #255	; 0xff
 800201e:	851a      	strh	r2, [r3, #40]	; 0x28
      I2C_TransferConfig(hi2c, DevAddress, (uint8_t)hi2c->XferSize, I2C_RELOAD_MODE, I2C_NO_STARTSTOP);
 8002020:	68fb      	ldr	r3, [r7, #12]
 8002022:	8d1b      	ldrh	r3, [r3, #40]	; 0x28
 8002024:	b2da      	uxtb	r2, r3
 8002026:	8979      	ldrh	r1, [r7, #10]
 8002028:	2300      	movs	r3, #0
 800202a:	9300      	str	r3, [sp, #0]
 800202c:	f04f 7380 	mov.w	r3, #16777216	; 0x1000000
 8002030:	68f8      	ldr	r0, [r7, #12]
 8002032:	f000 fc2b 	bl	800288c <I2C_TransferConfig>
 8002036:	e00f      	b.n	8002058 <HAL_I2C_Mem_Write+0x110>
    }
    else
    {
      hi2c->XferSize = hi2c->XferCount;
 8002038:	68fb      	ldr	r3, [r7, #12]
 800203a:	8d5b      	ldrh	r3, [r3, #42]	; 0x2a
 800203c:	b29a      	uxth	r2, r3
 800203e:	68fb      	ldr	r3, [r7, #12]
 8002040:	851a      	strh	r2, [r3, #40]	; 0x28
      I2C_TransferConfig(hi2c, DevAddress, (uint8_t)hi2c->XferSize, I2C_AUTOEND_MODE, I2C_NO_STARTSTOP);
 8002042:	68fb      	ldr	r3, [r7, #12]
 8002044:	8d1b      	ldrh	r3, [r3, #40]	; 0x28
 8002046:	b2da      	uxtb	r2, r3
 8002048:	8979      	ldrh	r1, [r7, #10]
 800204a:	2300      	movs	r3, #0
 800204c:	9300      	str	r3, [sp, #0]
 800204e:	f04f 7300 	mov.w	r3, #33554432	; 0x2000000
 8002052:	68f8      	ldr	r0, [r7, #12]
 8002054:	f000 fc1a 	bl	800288c <I2C_TransferConfig>
    }

    do
    {
      /* Wait until TXIS flag is set */
      if (I2C_WaitOnTXISFlagUntilTimeout(hi2c, Timeout, tickstart) != HAL_OK)
 8002058:	697a      	ldr	r2, [r7, #20]
 800205a:	6ab9      	ldr	r1, [r7, #40]	; 0x28
 800205c:	68f8      	ldr	r0, [r7, #12]
 800205e:	f000 faad 	bl	80025bc <I2C_WaitOnTXISFlagUntilTimeout>
 8002062:	4603      	mov	r3, r0
 8002064:	2b00      	cmp	r3, #0
 8002066:	d001      	beq.n	800206c <HAL_I2C_Mem_Write+0x124>
      {
        return HAL_ERROR;
 8002068:	2301      	movs	r3, #1
 800206a:	e07b      	b.n	8002164 <HAL_I2C_Mem_Write+0x21c>
      }

      /* Write data to TXDR */
      hi2c->Instance->TXDR = *hi2c->pBuffPtr;
 800206c:	68fb      	ldr	r3, [r7, #12]
 800206e:	6a5b      	ldr	r3, [r3, #36]	; 0x24
 8002070:	781a      	ldrb	r2, [r3, #0]
 8002072:	68fb      	ldr	r3, [r7, #12]
 8002074:	681b      	ldr	r3, [r3, #0]
 8002076:	629a      	str	r2, [r3, #40]	; 0x28

      /* Increment Buffer pointer */
      hi2c->pBuffPtr++;
 8002078:	68fb      	ldr	r3, [r7, #12]
 800207a:	6a5b      	ldr	r3, [r3, #36]	; 0x24
 800207c:	1c5a      	adds	r2, r3, #1
 800207e:	68fb      	ldr	r3, [r7, #12]
 8002080:	625a      	str	r2, [r3, #36]	; 0x24

      hi2c->XferCount--;
 8002082:	68fb      	ldr	r3, [r7, #12]
 8002084:	8d5b      	ldrh	r3, [r3, #42]	; 0x2a
 8002086:	b29b      	uxth	r3, r3
 8002088:	3b01      	subs	r3, #1
 800208a:	b29a      	uxth	r2, r3
 800208c:	68fb      	ldr	r3, [r7, #12]
 800208e:	855a      	strh	r2, [r3, #42]	; 0x2a
      hi2c->XferSize--;
 8002090:	68fb      	ldr	r3, [r7, #12]
 8002092:	8d1b      	ldrh	r3, [r3, #40]	; 0x28
 8002094:	3b01      	subs	r3, #1
 8002096:	b29a      	uxth	r2, r3
 8002098:	68fb      	ldr	r3, [r7, #12]
 800209a:	851a      	strh	r2, [r3, #40]	; 0x28

      if ((hi2c->XferCount != 0U) && (hi2c->XferSize == 0U))
 800209c:	68fb      	ldr	r3, [r7, #12]
 800209e:	8d5b      	ldrh	r3, [r3, #42]	; 0x2a
 80020a0:	b29b      	uxth	r3, r3
 80020a2:	2b00      	cmp	r3, #0
 80020a4:	d034      	beq.n	8002110 <HAL_I2C_Mem_Write+0x1c8>
 80020a6:	68fb      	ldr	r3, [r7, #12]
 80020a8:	8d1b      	ldrh	r3, [r3, #40]	; 0x28
 80020aa:	2b00      	cmp	r3, #0
 80020ac:	d130      	bne.n	8002110 <HAL_I2C_Mem_Write+0x1c8>
      {
        /* Wait until TCR flag is set */
        if (I2C_WaitOnFlagUntilTimeout(hi2c, I2C_FLAG_TCR, RESET, Timeout, tickstart) != HAL_OK)
 80020ae:	697b      	ldr	r3, [r7, #20]
 80020b0:	9300      	str	r3, [sp, #0]
 80020b2:	6abb      	ldr	r3, [r7, #40]	; 0x28
 80020b4:	2200      	movs	r2, #0
 80020b6:	2180      	movs	r1, #128	; 0x80
 80020b8:	68f8      	ldr	r0, [r7, #12]
 80020ba:	f000 fa3f 	bl	800253c <I2C_WaitOnFlagUntilTimeout>
 80020be:	4603      	mov	r3, r0
 80020c0:	2b00      	cmp	r3, #0
 80020c2:	d001      	beq.n	80020c8 <HAL_I2C_Mem_Write+0x180>
        {
          return HAL_ERROR;
 80020c4:	2301      	movs	r3, #1
 80020c6:	e04d      	b.n	8002164 <HAL_I2C_Mem_Write+0x21c>
        }

        if (hi2c->XferCount > MAX_NBYTE_SIZE)
 80020c8:	68fb      	ldr	r3, [r7, #12]
 80020ca:	8d5b      	ldrh	r3, [r3, #42]	; 0x2a
 80020cc:	b29b      	uxth	r3, r3
 80020ce:	2bff      	cmp	r3, #255	; 0xff
 80020d0:	d90e      	bls.n	80020f0 <HAL_I2C_Mem_Write+0x1a8>
        {
          hi2c->XferSize = MAX_NBYTE_SIZE;
 80020d2:	68fb      	ldr	r3, [r7, #12]
 80020d4:	22ff      	movs	r2, #255	; 0xff
 80020d6:	851a      	strh	r2, [r3, #40]	; 0x28
          I2C_TransferConfig(hi2c, DevAddress, (uint8_t)hi2c->XferSize, I2C_RELOAD_MODE,
 80020d8:	68fb      	ldr	r3, [r7, #12]
 80020da:	8d1b      	ldrh	r3, [r3, #40]	; 0x28
 80020dc:	b2da      	uxtb	r2, r3
 80020de:	8979      	ldrh	r1, [r7, #10]
 80020e0:	2300      	movs	r3, #0
 80020e2:	9300      	str	r3, [sp, #0]
 80020e4:	f04f 7380 	mov.w	r3, #16777216	; 0x1000000
 80020e8:	68f8      	ldr	r0, [r7, #12]
 80020ea:	f000 fbcf 	bl	800288c <I2C_TransferConfig>
 80020ee:	e00f      	b.n	8002110 <HAL_I2C_Mem_Write+0x1c8>
                             I2C_NO_STARTSTOP);
        }
        else
        {
          hi2c->XferSize = hi2c->XferCount;
 80020f0:	68fb      	ldr	r3, [r7, #12]
 80020f2:	8d5b      	ldrh	r3, [r3, #42]	; 0x2a
 80020f4:	b29a      	uxth	r2, r3
 80020f6:	68fb      	ldr	r3, [r7, #12]
 80020f8:	851a      	strh	r2, [r3, #40]	; 0x28
          I2C_TransferConfig(hi2c, DevAddress, (uint8_t)hi2c->XferSize, I2C_AUTOEND_MODE,
 80020fa:	68fb      	ldr	r3, [r7, #12]
 80020fc:	8d1b      	ldrh	r3, [r3, #40]	; 0x28
 80020fe:	b2da      	uxtb	r2, r3
 8002100:	8979      	ldrh	r1, [r7, #10]
 8002102:	2300      	movs	r3, #0
 8002104:	9300      	str	r3, [sp, #0]
 8002106:	f04f 7300 	mov.w	r3, #33554432	; 0x2000000
 800210a:	68f8      	ldr	r0, [r7, #12]
 800210c:	f000 fbbe 	bl	800288c <I2C_TransferConfig>
                             I2C_NO_STARTSTOP);
        }
      }

    } while (hi2c->XferCount > 0U);
 8002110:	68fb      	ldr	r3, [r7, #12]
 8002112:	8d5b      	ldrh	r3, [r3, #42]	; 0x2a
 8002114:	b29b      	uxth	r3, r3
 8002116:	2b00      	cmp	r3, #0
 8002118:	d19e      	bne.n	8002058 <HAL_I2C_Mem_Write+0x110>

    /* No need to Check TC flag, with AUTOEND mode the stop is automatically generated */
    /* Wait until STOPF flag is reset */
    if (I2C_WaitOnSTOPFlagUntilTimeout(hi2c, Timeout, tickstart) != HAL_OK)
 800211a:	697a      	ldr	r2, [r7, #20]
 800211c:	6ab9      	ldr	r1, [r7, #40]	; 0x28
 800211e:	68f8      	ldr	r0, [r7, #12]
 8002120:	f000 fa8c 	bl	800263c <I2C_WaitOnSTOPFlagUntilTimeout>
 8002124:	4603      	mov	r3, r0
 8002126:	2b00      	cmp	r3, #0
 8002128:	d001      	beq.n	800212e <HAL_I2C_Mem_Write+0x1e6>
    {
      return HAL_ERROR;
 800212a:	2301      	movs	r3, #1
 800212c:	e01a      	b.n	8002164 <HAL_I2C_Mem_Write+0x21c>
    }

    /* Clear STOP Flag */
    __HAL_I2C_CLEAR_FLAG(hi2c, I2C_FLAG_STOPF);
 800212e:	68fb      	ldr	r3, [r7, #12]
 8002130:	681b      	ldr	r3, [r3, #0]
 8002132:	2220      	movs	r2, #32
 8002134:	61da      	str	r2, [r3, #28]

    /* Clear Configuration Register 2 */
    I2C_RESET_CR2(hi2c);
 8002136:	68fb      	ldr	r3, [r7, #12]
 8002138:	681b      	ldr	r3, [r3, #0]
 800213a:	6859      	ldr	r1, [r3, #4]
 800213c:	68fb      	ldr	r3, [r7, #12]
 800213e:	681a      	ldr	r2, [r3, #0]
 8002140:	4b0a      	ldr	r3, [pc, #40]	; (800216c <HAL_I2C_Mem_Write+0x224>)
 8002142:	400b      	ands	r3, r1
 8002144:	6053      	str	r3, [r2, #4]

    hi2c->State = HAL_I2C_STATE_READY;
 8002146:	68fb      	ldr	r3, [r7, #12]
 8002148:	2220      	movs	r2, #32
 800214a:	f883 2041 	strb.w	r2, [r3, #65]	; 0x41
    hi2c->Mode  = HAL_I2C_MODE_NONE;
 800214e:	68fb      	ldr	r3, [r7, #12]
 8002150:	2200      	movs	r2, #0
 8002152:	f883 2042 	strb.w	r2, [r3, #66]	; 0x42

    /* Process Unlocked */
    __HAL_UNLOCK(hi2c);
 8002156:	68fb      	ldr	r3, [r7, #12]
 8002158:	2200      	movs	r2, #0
 800215a:	f883 2040 	strb.w	r2, [r3, #64]	; 0x40

    return HAL_OK;
 800215e:	2300      	movs	r3, #0
 8002160:	e000      	b.n	8002164 <HAL_I2C_Mem_Write+0x21c>
  }
  else
  {
    return HAL_BUSY;
 8002162:	2302      	movs	r3, #2
  }
}
 8002164:	4618      	mov	r0, r3
 8002166:	3718      	adds	r7, #24
 8002168:	46bd      	mov	sp, r7
 800216a:	bd80      	pop	{r7, pc}
 800216c:	fe00e800 	.word	0xfe00e800

08002170 <HAL_I2C_Mem_Read>:
  * @param  Timeout Timeout duration
  * @retval HAL status
  */
HAL_StatusTypeDef HAL_I2C_Mem_Read(I2C_HandleTypeDef *hi2c, uint16_t DevAddress, uint16_t MemAddress,
                                   uint16_t MemAddSize, uint8_t *pData, uint16_t Size, uint32_t Timeout)
{
 8002170:	b580      	push	{r7, lr}
 8002172:	b088      	sub	sp, #32
 8002174:	af02      	add	r7, sp, #8
 8002176:	60f8      	str	r0, [r7, #12]
 8002178:	4608      	mov	r0, r1
 800217a:	4611      	mov	r1, r2
 800217c:	461a      	mov	r2, r3
 800217e:	4603      	mov	r3, r0
 8002180:	817b      	strh	r3, [r7, #10]
 8002182:	460b      	mov	r3, r1
 8002184:	813b      	strh	r3, [r7, #8]
 8002186:	4613      	mov	r3, r2
 8002188:	80fb      	strh	r3, [r7, #6]
  uint32_t tickstart;

  /* Check the parameters */
  assert_param(IS_I2C_MEMADD_SIZE(MemAddSize));

  if (hi2c->State == HAL_I2C_STATE_READY)
 800218a:	68fb      	ldr	r3, [r7, #12]
 800218c:	f893 3041 	ldrb.w	r3, [r3, #65]	; 0x41
 8002190:	b2db      	uxtb	r3, r3
 8002192:	2b20      	cmp	r3, #32
 8002194:	f040 80fd 	bne.w	8002392 <HAL_I2C_Mem_Read+0x222>
  {
    if ((pData == NULL) || (Size == 0U))
 8002198:	6a3b      	ldr	r3, [r7, #32]
 800219a:	2b00      	cmp	r3, #0
 800219c:	d002      	beq.n	80021a4 <HAL_I2C_Mem_Read+0x34>
 800219e:	8cbb      	ldrh	r3, [r7, #36]	; 0x24
 80021a0:	2b00      	cmp	r3, #0
 80021a2:	d105      	bne.n	80021b0 <HAL_I2C_Mem_Read+0x40>
    {
      hi2c->ErrorCode = HAL_I2C_ERROR_INVALID_PARAM;
 80021a4:	68fb      	ldr	r3, [r7, #12]
 80021a6:	f44f 7200 	mov.w	r2, #512	; 0x200
 80021aa:	645a      	str	r2, [r3, #68]	; 0x44
      return  HAL_ERROR;
 80021ac:	2301      	movs	r3, #1
 80021ae:	e0f1      	b.n	8002394 <HAL_I2C_Mem_Read+0x224>
    }

    /* Process Locked */
    __HAL_LOCK(hi2c);
 80021b0:	68fb      	ldr	r3, [r7, #12]
 80021b2:	f893 3040 	ldrb.w	r3, [r3, #64]	; 0x40
 80021b6:	2b01      	cmp	r3, #1
 80021b8:	d101      	bne.n	80021be <HAL_I2C_Mem_Read+0x4e>
 80021ba:	2302      	movs	r3, #2
 80021bc:	e0ea      	b.n	8002394 <HAL_I2C_Mem_Read+0x224>
 80021be:	68fb      	ldr	r3, [r7, #12]
 80021c0:	2201      	movs	r2, #1
 80021c2:	f883 2040 	strb.w	r2, [r3, #64]	; 0x40

    /* Init tickstart for timeout management*/
    tickstart = HAL_GetTick();
 80021c6:	f7ff fb17 	bl	80017f8 <HAL_GetTick>
 80021ca:	6178      	str	r0, [r7, #20]

    if (I2C_WaitOnFlagUntilTimeout(hi2c, I2C_FLAG_BUSY, SET, I2C_TIMEOUT_BUSY, tickstart) != HAL_OK)
 80021cc:	697b      	ldr	r3, [r7, #20]
 80021ce:	9300      	str	r3, [sp, #0]
 80021d0:	2319      	movs	r3, #25
 80021d2:	2201      	movs	r2, #1
 80021d4:	f44f 4100 	mov.w	r1, #32768	; 0x8000
 80021d8:	68f8      	ldr	r0, [r7, #12]
 80021da:	f000 f9af 	bl	800253c <I2C_WaitOnFlagUntilTimeout>
 80021de:	4603      	mov	r3, r0
 80021e0:	2b00      	cmp	r3, #0
 80021e2:	d001      	beq.n	80021e8 <HAL_I2C_Mem_Read+0x78>
    {
      return HAL_ERROR;
 80021e4:	2301      	movs	r3, #1
 80021e6:	e0d5      	b.n	8002394 <HAL_I2C_Mem_Read+0x224>
    }

    hi2c->State     = HAL_I2C_STATE_BUSY_RX;
 80021e8:	68fb      	ldr	r3, [r7, #12]
 80021ea:	2222      	movs	r2, #34	; 0x22
 80021ec:	f883 2041 	strb.w	r2, [r3, #65]	; 0x41
    hi2c->Mode      = HAL_I2C_MODE_MEM;
 80021f0:	68fb      	ldr	r3, [r7, #12]
